{
	"data": {
		"bytecode": {
			"linkReferences": {},
			"object": "6101006040523461038457604080519081016001600160401b0381118282101761029a576040908152600982526812dc9a5cda1a53919560ba1b602083015280519081016001600160401b0381118282101761029a57604052600481526312d3919560e21b602082015281516001600160401b03811161029a575f54600181811c9116801561037a575b602082101461027c57601f8111610318575b50602092601f82116001146102b957928192935f926102ae575b50508160011b915f199060031b1c1916175f555b80516001600160401b03811161029a57600154600181811c91168015610290575b602082101461027c57601f8111610219575b50602091601f82116001146101b9579181925f926101ae575b50508160011b915f199060031b1c1916176001555b60016007555f6008555f600955600560805267016345785d8a000060a0526706f05b59d3b2000060c0523360e0526040516140f5908161038982396080518181816109250152613811015260a05181611dab015260c0518181816109950152818161108b015281816111bb0152818161260c0152612989015260e0518161094d0152f35b015190505f80610115565b601f1982169260015f52805f20915f5b858110610201575083600195106101e9575b505050811b0160015561012a565b01515f1960f88460031b161c191690555f80806101db565b919260206001819286850151815501940192016101c9565b60015f527fb10e2d527612073b26eecdfd717e6a320cf44b4afac2b0732d9fcbe2b7fa0cf6601f830160051c81019160208410610272575b601f0160051c01905b81811061026757506100fc565b5f815560010161025a565b9091508190610251565b634e487b7160e01b5f52602260045260245ffd5b90607f16906100ea565b634e487b7160e01b5f52604160045260245ffd5b015190505f806100b5565b601f198216935f8052805f20915f5b86811061030057508360019596106102e8575b505050811b015f556100c9565b01515f1960f88460031b161c191690555f80806102db565b919260206001819286850151815501940192016102c8565b5f80527f290decd9548b62a8d60345a988386fc84ba6bc95484008f6362f93160ef3e563601f830160051c81019160208410610370575b601f0160051c01905b818110610365575061009b565b5f8155600101610358565b909150819061034f565b90607f1690610089565b5f80fdfe6101008060405260043610156100a1575b50361561005c5760405162461bcd60e51b815260206004820152601860248201527f46616c6c6261636b2066756e6374696f6e2063616c6c656400000000000000006044820152606490fd5b60405162461bcd60e51b815260206004820152601960248201527f446972656374204574686572206e6f74206163636570746564000000000000006044820152606490fd5b5f3560e01c90816301ffc9a71461355e57508063067bd3b414611c8b57806306fdde03146134bc578063081812fc14613480578063095ea7b3146133965780630cc1679b1461303157806314ff5ea31461300457806317b1845814612fcd5780631c351a9d14612ca05780631ecb993814612c7857806323b872dd14612c615780632766df9b14612bc35780632e55b510146124935780632f63f34f1461245c5780633bc4dbf11461242f5780633cf13901146123f85780633ee23f92146123c657806342842e0e14612397578063474da79a146121f65780634c9c3f8514611ca857806351e4e174146121c1578063530ea55a146121945780636352211e146121645780636ebc8c8614611e1f57806370a0823114611dce5780637a76e86514611d945780637a77dc5d14611d625780637a870b6314611cee5780638031e4ee14611cad5780638c639a8514611ca85780639399869d14611c8b57806395d89b4114611bc1578063971d608f14611b94578063987d4b7c146110ae5780639c0401c6146110745780639e5d9c0914610d9e578063a22cb46514610cfa578063b7c9bf3414610ccd578063b88d4fde14610c61578063c15113951461085e578063c6497da11461060b578063c87b56dd146105ec578063ce7bf797146105bf578063cfa3f450146104c5578063d082e381146104a8578063d6b2737b14610452578063e250fc7b1461041f578063e985e9c5146103c8578063ed87620e14610393578063f0e406621461034c578063f32f3ae6146103175763fadd2b69146102e9575f610010565b34610313576020366003190112610313576004355f52600b602052602060405f2054604051908152f35b5f80fd5b34610313576020366003190112610313576004355f52600a602052602060018060a01b03600b60405f20015416604051908152f35b3461031357602036600319011261031357600480355f908152600a602090815260409091206003810154920154909161038b9163ffffffff1690613c89565b604051908152f35b34610313576020366003190112610313576004355f52600a602052602060ff600d60405f20015460101c166040519015158152f35b34610313576040366003190112610313576103e1613607565b6103e961361d565b9060018060a01b03165f52600560205260405f209060018060a01b03165f52602052602060ff60405f2054166040519015158152f35b34610313576020366003190112610313576004355f52600a602052602063ffffffff600460405f20015416604051908152f35b34610313576020366003190112610313576004355f52600a6020526104a4610489610490600c60405f200160405192838092613779565b038261366a565b6040519182916020835260208301906135e3565b0390f35b34610313575f366003190112610313576020600854604051908152f35b34610313576104d33661388c565b6060604080516104e281613633565b5f81525f60208201520152815f52600b60205260405f205481101561058a57610515915f52600b60205260405f206138c8565b5060405161052281613633565b60018060a01b0382541681526104a46002610553600185015494602085019586526104896040518094819301613779565b604083019081526040519384936020855260018060a01b0390511660208501525160408401525160608084015260808301906135e3565b60405162461bcd60e51b815260206004820152600d60248201526c092dcecc2d8d2c840d2dcc8caf609b1b6044820152606490fd5b34610313576020366003190112610313576004355f52600a6020526020600960405f200154604051908152f35b34610313576020366003190112610313576104a4610490600435613cea565b602036600319011261031357600435610622613d58565b805f52600a60205260018060a01b0360405f2054163314801561083c575b61064990613b8b565b805f52600a60205260405f2090600882019160ff8354166005811015610828576001036107bd578054336001600160a01b0382161490819060a01c60ff16816107b5575b811561079b575b5015610750576106a43415613944565b1561073a57600d8101805460ff191660011790555b600d81015460ff8116908161072c575b506106d6575b6001600755005b8054600b909101546040519283526001600160a01b03908116929116907fcc1adf309bca76d2117cae4d24a9972395946063bad58278c39d3f641b632a8f90602090a3805460ff191660021790558080806106cf565b60ff915060081c16846106c9565b600d8101805461ff0019166101001790556106b9565b610769600383015463ffffffff60048501541690613c89565b60058301548103908111610787576107829034146138f8565b6106a4565b634e487b7160e01b5f52601160045260245ffd5b82159150816107ac575b5085610694565b905015856107a5565b90508061068d565b60405162461bcd60e51b815260206004820152603960248201527f436f6e7472616374206d75737420626520616c6c6f746564206265666f72652060448201527f6167726565696e6720746f2066756c66696c6c696e67206974000000000000006064820152608490fd5b634e487b7160e01b5f52602160045260245ffd5b505f818152600a60205260409020600b01546001600160a01b03163314610640565b346103135760203660031901126103135760043561087a613d58565b610882613d58565b5f818152600a6020526040902054336001600160a01b038216149081159060a01c60ff168282610c3f575b6108b690613b8b565b82610c36575b8215610c1d575b505015610bc057805f52600a60205260405f20600881019160ff835416600581101561082857600203610b465781546001600160a01b0316338103610b405750600b8201546001600160a01b0316925b60038301935f808080606461094a8a547f000000000000000000000000000000000000000000000000000000000000000090613c89565b047f00000000000000000000000000000000000000000000000000000000000000006001600160a01b03165af161097f613bfd565b5015610afb575f80808060018060a01b038854167f0000000000000000000000000000000000000000000000000000000000000000905af16109bf613bfd565b5015610aa7575f9081908190819047906001600160a01b03165af16109e2613bfd565b5015610a56577f7c7a5c35900ca2cdb3fd22c04b7cb88170ca56792a8fb22e028959acd2e62dcf91606091600360ff1982541617905560018060a01b038454169363ffffffff600460018060a01b03600b840154169754920154169060405192835260208301526040820152a36001600755005b60405162461bcd60e51b8152602060048201526024808201527f4661696c656420746f2072656c656173652066756e647320746f2072656369706044820152631a595b9d60e21b6064820152608490fd5b60405162461bcd60e51b815260206004820152602660248201527f4661696c656420746f20726566756e6420636f6e7472616374206372656174696044820152656f6e2066656560d01b6064820152608490fd5b60405162461bcd60e51b815260206004820152601f60248201527f4661696c656420746f207472616e7366657220706c6174666f726d20666565006044820152606490fd5b92610913565b60405162461bcd60e51b815260206004820152604660248201527f436f6e7472616374206d75737420626520616363657074656420627920626f7460448201527f682070617274696573206265666f72652066756e64732063616e2062652072656064820152651b19585cd95960d21b608482015260a490fd5b60405162461bcd60e51b815260206004820152602f60248201527f4f6e6c792073656c6563746564206170706c6963616e742063616e207065726660448201526e37b936903a3434b99030b1ba34b7b760891b6064820152608490fd5b90915081610c2e575b5082806108c3565b905082610c26565b801592506108bc565b505f848152600a60205260409020600b01546001600160a01b031633146108ad565b3461031357608036600319011261031357610c7a613607565b610c8261361d565b90604435606435926001600160401b038411610313573660238501121561031357610cba610ccb9436906024816004013591016136a6565b92610cc6838383613a03565b613fb2565b005b34610313576020366003190112610313576004355f52600a6020526020600560405f200154604051908152f35b3461031357604036600319011261031357610d13613607565b6024359081151590818303610313576001600160a01b0316918215610d8b57610d5d90335f52600560205260405f20845f5260205260405f209060ff801983541691151516179055565b6040519081527f17307eab39ab6107e8899845ad3d59bd9653f200f220920489ca2b5937696c3160203392a3005b82630b61174360e31b5f5260045260245ffd5b3461031357604036600319011261031357600435610dba61361d565b90610dc3613d58565b5f818152600a60205260409020546001600160a01b0316330361102357805f52600a60205260405f2091610df6826139c6565b15610fde575f916001600160a01b038216835b825f52600b60205260405f2054811015610fd557825f52600b60205281610e338260405f206138c8565b50546001600160a01b031614610e4b57600101610e09565b509091925060015b15610f7557815f52600b6020526001610e6e60405f206138a2565b50015460038501908155600b850180546001600160a01b0319168317905560088501805460ff19166001179055610eae6001600160a01b03831684613ec7565b54825f52600b6020527f7d883ba5522088734dc79c338171b05bc9ad435ce52a692803527ace937ca11b610ee460405f206138a2565b50916040519085825260208201526060604082015280610f0c33946002606084019101613779565b0390a35f52600b60205260405f208054905f815581610f36575b6106cf8360018601549030613e6d565b81600302916003830403610787575f5260205f20908101905b81811015610f2657805f600392555f6001820155610f6f60028201613c9c565b01610f4f565b60405162461bcd60e51b815260206004820152603260248201527f53656c6563746564206170706c6963616e7420646964206e6f74206170706c7960448201527108199bdc881d1a1a5cc818dbdb9d1c9858dd60721b6064820152608490fd5b50909192610e53565b60405162461bcd60e51b815260206004820152601a60248201527f436f6e7472616374206973206e6f206c6f6e676572206f70656e0000000000006044820152606490fd5b60405162461bcd60e51b8152602060048201526024808201527f4f6e6c792063726561746f722063616e20706572666f726d20746869732061636044820152633a34b7b760e11b6064820152608490fd5b34610313575f3660031901126103135760206040517f00000000000000000000000000000000000000000000000000000000000000008152f35b610180366003190112610313576004358015158103610313576044356001600160401b038111610313576110e69036906004016136dc565b60843560805263ffffffff60805116608051036103135760a4356001600160401b03811161031357366023820112156103135780600401359061113961112b836138e1565b60405160c05260c05161366a565b60c08051839052516020019160051b8101602401903682116103135760248101925b828410611b6557858560c435918260030b83036103135760e4358060030b8103610313576101043561014435801515810361031357610164356001600160401b038111610313576111b09036906004016136dc565b916111b9613d58565b7f00000000000000000000000000000000000000000000000000000000000000003403611b205761012435811015611aca576111f66009546139b8565b8060095561120e63ffffffff60805116606435613c89565b918260058102046005148315171561078757420180421161078757606460056040519461123a8661364e565b338652891515602087015260243560408701528a60608701528235608087015263ffffffff6080511660a0870152020460c084015260c05160e0840152610124356101008401525f6101208401528860030b6101408401528560030b610160840152426101808401526101a08301525f6101c08301525f60e052602060e0526040516112c860e0518261366a565b5f8082526101e084019190915261020083018190526102208301819052831515610240840152610260830185905290815260e051600a905260409081902060a08181528351825460208601516001600160a81b03199091166001600160a01b03929092169190911790151590911b60ff60a01b161781559082015160019091015560608101518051906001600160401b03821161180d5761136e600260a0510154613741565b601f8111611a93575b5060e05190601f8311600114611a1f576113a892915f9183611a14575b50508160011b915f199060031b1c19161790565b600260a05101555b6080810151600360a0510155600460a0510163ffffffff60a08301511663ffffffff1982541617905560c0810151600560a051015560e0810151805190600160401b821161180d5760a0516006018054908390558083106119e0575b5060e0510190600660a051015f5260e0515f20915f905b8282106118c95750505050610100810151600760a0510155600860a0510161012082015160058110156108285760ff80198354169116178155610140820151815464ffffffff0061016085015160281b68ffffffff0000000000169260081b169068ffffffffffffffff00191617179055610180810151600960a05101556101a0810151600a60a051015560018060a01b036101c082015116600b60a051019060018060a01b03166001600160601b0360a01b825416179055600c60a051016101e08201518051906001600160401b03821161180d576115038354613741565b601f8111611897575b5060e05190601f831160011461182c579180611542926102609695945f926118215750508160011b915f199060031b1c19161790565b90555b600d60a051016115686102008301511515829060ff801983541691151516179055565b610220820151815461024084015162ffff001990911691151560081b61ff00169190911790151560101b62ff00001617905501518051906001600160401b03821161180d576115bc600e60a0510154613741565b601f81116117cb575b5060e05190601f8311600114611731578261171295937f96c24b024629500436be7d20631e0c8866383b9c2690b451850afcbf992c0f45999a959361161e935f926117265750508160011b915f199060031b1c19161790565b600e60a05101555b6116336024353033613e6d565b600954978895865f52600a60e05152600560405f20015490875f52600a60e051526116d3600960405f20015492895f52600a60e051526116a6600a60405f200154956040519c8d9c8d52338d60e0510152151560408d015260243560608d015261020060808d01526102008c01906135e3565b9060643560a08c015263ffffffff6080511660c08c015260e08b01528981036101008b015260c051613834565b95610124356101208a015260030b61014089015260030b6101608801526101808701526101a086015215156101c08501528382036101e08501526135e3565b0390a1600160075560405190815260e05190f35b015190508b80611394565b90600e60a051015f5260e0515f20915f5b601f19851681106117b25750927f96c24b024629500436be7d20631e0c8866383b9c2690b451850afcbf992c0f4598999492600192611712979583601f1981161061179a575b505050811b01600e60a0510155611626565b01515f1960f88460031b161c191690558a8080611788565b81830151845560e0516001909401939283019201611742565b6117fd90600e60a051015f5260e0515f20601f850160051c81019160e0518610611803575b601f0160051c01906139a2565b886115c5565b90915081906117f0565b634e487b7160e01b5f52604160045260245ffd5b015190508c80611394565b90601f19831691845f5260e0515f20925f5b81811061187e57509160019391856102609897969410611866575b505050811b019055611545565b01515f1960f88460031b161c191690558b8080611859565b82840151855560e051600190950194938401930161183e565b6118c390845f5260e0515f20601f850160051c81019160e051861061180357601f0160051c01906139a2565b8a61150c565b80518051906001600160401b03821161180d576118e68654613741565b601f81116119ae575b5060e05190601f8311600114611942578260019492938594611925935f926119375750508160011b915f199060031b1c19161790565b86555b60e05101940191019092611423565b015190505f80611394565b90865f5260e0515f20915f5b601f198516811061199557509260019492859492859383601f1981161061197d575b505050811b018655611928565b01515f1960f88460031b161c191690558f8080611970565b81830151845560e051600190940193928301920161194e565b6119da90875f5260e0515f20601f850160051c81019160e051861061180357601f0160051c01906139a2565b8d6118ef565b600660a051015f5260e0515f20908382015b8183018110611a0257505061140c565b80611a0e600192613c9c565b016119f2565b015190508a80611394565b9190600260a051015f5260e0515f20905f935b601f1984168510611a77576001945083601f19811610611a5f575b505050811b01600260a05101556113b0565b01515f1960f88460031b161c19169055898080611a4d565b81810151835560e0519485019460019093019290910190611a32565b611ac490600260a051015f5260e0515f20601f850160051c81019160e051861061180357601f0160051c01906139a2565b89611377565b60405162461bcd60e51b815260206004820152602860248201527f436f6e74726163742063616e6e6f74206f70656e2061667465722064656c6976604482015267657279206461746560c01b6064820152608490fd5b60405162461bcd60e51b815260206004820152601b60248201527f496e636f7272656374206372656174696f6e206665652073656e7400000000006044820152606490fd5b83356001600160401b03811161031357602091611b898392602436918701016136dc565b81520193019261115b565b34610313576020366003190112610313576004355f52600a6020526020600360405f200154604051908152f35b34610313575f366003190112610313576040515f600154611be181613741565b8084529060018116908115611c675750600114611c09575b6104a4836104908185038261366a565b60015f9081527fb10e2d527612073b26eecdfd717e6a320cf44b4afac2b0732d9fcbe2b7fa0cf6939250905b808210611c4d57509091508101602001610490611bf9565b919260018160209254838588010152019101909291611c35565b60ff191660208086019190915291151560051b840190910191506104909050611bf9565b34610313575f366003190112610313576020600954604051908152f35b6137fa565b34610313576020366003190112610313576004355f52600a6020526104a4611cda600660405f2001613c2c565b604051918291602083526020830190613834565b3461031357611cfc3661388c565b905f52600b60205260405f2090815481101561031357611d1b916138c8565b5060018060a01b038154166104a46002611d446001850154946104896040518094819301613779565b604051938493845260208401526060604084015260608301906135e3565b34610313576020366003190112610313576004355f52600a602052602060ff600d60405f200154166040519015158152f35b34610313575f3660031901126103135760206040517f00000000000000000000000000000000000000000000000000000000000000008152f35b34610313576020366003190112610313576001600160a01b03611def613607565b168015611e0c575f526003602052602060405f2054604051908152f35b6322718ad960e21b5f525f60045260245ffd5b34610313576020366003190112610313576060610260604051611e418161364e565b5f81525f60208201525f604082015282808201525f60808201525f60a08201525f60c08201528260e08201525f6101008201525f6101208201525f6101408201525f6101608201525f6101808201525f6101a08201525f6101c0820152826101e08201525f6102008201525f6102208201525f61024082015201526004355f52600a60205260405f20604051611ed68161364e565b81546001600160a01b038116825260a01c60ff1615156020820152600182015460408083019190915251611f11816104898160028701613779565b60608201526003820154608082015263ffffffff60048301541660a0820152600582015460c0820152611f4660068301613c2c565b60e08201526007820154610100820152600882015460ff81166005811015610828576104a493600e92612011926101208601528060081c60030b61014086015260281c60030b6101608501526009810154610180850152600a8101546101a085015260018060a01b03600b820154166101c0850152604051611fcf8161048981600c8601613779565b6101e085015260ff600d8201548181161515610200870152818160081c16151561022087015260101c1615156102408501526104896040518094819301613779565b6102608201526040519182916020835260018060a01b038151166020840152602081015115156040840152604081015160608401526102606121276120a561206a606085015161028060808901526102a08801906135e3565b608085015160a088015263ffffffff60a08601511660c088015260c085015160e088015260e0850151601f1988830301610100890152613834565b6101008401516101208701526120c56101208501516101408801906136fa565b61014084015160030b61016087015261016084015160030b6101808701526101808401516101a08701526101a08401516101c087015260018060a01b036101c0850151166101e08701526101e0840151601f19878303016102008801526135e3565b91610200810151151561022086015261022081015115156102408601526102408101511515828601520151601f19848303016102808501526135e3565b34610313576020366003190112610313576020612182600435613d24565b6040516001600160a01b039091168152f35b34610313576020366003190112610313576004355f52600a6020526020600760405f200154604051908152f35b34610313576020366003190112610313576004355f52600a602052602060ff600d60405f20015460081c166040519015158152f35b34610313576020366003190112610313576004355f52600a60205260405f2080546001820154916040518080600284019061223091613779565b0361223b908261366a565b6003820154600483015463ffffffff1690600584015460078501546008860154600987015490600a88015492600160a01b60019003600b8a01541694604051978880600c8d019061228b91613779565b03612296908a61366a565b600d8b01549960405180600e819e01906122af91613779565b036122ba908d61366a565b6040519d8e809e600160a01b600190038116825260a01c60ff16151560208201526040015260608d0161026090526102608d016122f6916135e3565b9760808d015260a08c015260c08b015260e08a0152610100890160ff82169061231e916136fa565b8060081c60030b6101208a015260281c60030b6101408901526101608801526101808701526101a08601528481036101c086015261235b916135e3565b9060ff811615156101e08501528060081c60ff16151561020085015260101c60ff1615156102208401528281036102408401526104a4916135e3565b3461031357610ccb6123a836613707565b90604051926123b860208561366a565b5f8452610cc6838383613a03565b34610313576020366003190112610313576004355f52600a602052602060ff60405f205460a01c166040519015158152f35b34610313576020366003190112610313576004355f52600a6020526104a4610489610490600e60405f200160405192838092613779565b34610313576020366003190112610313576004355f52600a6020526020600a60405f200154604051908152f35b34610313576020366003190112610313576004355f52600a6020526104a4610489610490600260405f200160405192838092613779565b6040366003190112610313576004356024356001600160401b038111610313576124c19036906004016136dc565b815f52600a60205260018060a01b0360405f20541633148015612ba1575b6124e890613b8b565b6124f0613d58565b815f52600a60205260405f20916008830160ff8154166005811015610828578015908115612b96575b5015612b385783546001600160a01b03163303612987576040517f43726561746f722063616e63656c6c65642074686520636f6e74726163742e0a60208201527102932b0b9b7b71036b2b73a34b7b732b21d160751b604082015261259b605282865180602089018484015e81015f838201520301601f19810183528261366a565b8051600c8601916001600160401b03821161180d576125ba8354613741565b601f8111612957575b50602090601f83116001146128f4576125f292915f91836128e95750508160011b915f199060031b1c19161790565b90555b805460ff1916600417815583545f908190819081907f0000000000000000000000000000000000000000000000000000000000000000906001600160a01b03165af161263f613bfd565b501561288d575460ff166005811015610828576001146126fc575b827fda5b2a53d65dcc2a3312e7142252e98fd5b01334d00b605aaadc13c8d922b229935460ff8160a01c165f146126dd5750600b81015481546001909201546126b19290916001600160a01b039182169116613e6d565b6126d360405192839283523360208401526060604084015260608301906135e3565b0390a16001600755005b600191909101546126f7916001600160a01b031630613e6d565b6126b1565b82546001600160a01b038116903382148061287f575b156127bb5750505f80808060018060a01b03600b880154166005880154905af161273a613bfd565b501561276a577fda5b2a53d65dcc2a3312e7142252e98fd5b01334d00b605aaadc13c8d922b229925b925061265a565b60405162461bcd60e51b8152602060048201526024808201527f4661696c656420746f2072656c656173652066756e647320746f206170706c6960448201526318d85b9d60e21b6064820152608490fd5b600b8501546001600160a01b031633149081612871575b50612800575b507fda5b2a53d65dcc2a3312e7142252e98fd5b01334d00b605aaadc13c8d922b22992612763565b5f808080936005880154905af1612815613bfd565b501561282157836127d8565b60405162461bcd60e51b815260206004820152602260248201527f4661696c656420746f2072656c656173652066756e647320746f20637265617460448201526137b960f11b6064820152608490fd5b60ff915060a01c16856127d2565b5060ff8160a01c1615612712565b60405162461bcd60e51b815260206004820152602e60248201527f4661696c656420746f207472616e736665722063616e63656c6c6174696f6e2060448201526d3332b2903a379031b932b0ba37b960911b6064820152608490fd5b015190508880611394565b90601f19831691845f52815f20925f5b81811061293f5750908460019594939210612927575b505050811b0190556125f5565b01515f1960f88460031b161c1916905587808061291a565b92936020600181928786015181550195019301612904565b61298190845f5260205f20601f850160051c8101916020861061180357601f0160051c01906139a2565b876125c3565b7f00000000000000000000000000000000000000000000000000000000000000003403612af3576040517f4170706c6963616e742063616e63656c6c65642074686520636f6e7472616374602082015273017052932b0b9b7b71036b2b73a34b7b732b21d160651b6040820152612a1b605482865180602089018484015e81015f838201520301601f19810183528261366a565b8051600c8601916001600160401b03821161180d57612a3a8354613741565b601f8111612ac3575b50602090601f8311600114612a7957612a7292915f91836128e95750508160011b915f199060031b1c19161790565b90556125f5565b90601f19831691845f52815f20925f5b818110612aab575090846001959493921061292757505050811b0190556125f5565b92936020600181928786015181550195019301612a89565b612aed90845f5260205f20601f850160051c8101916020861061180357601f0160051c01906139a2565b87612a43565b60405162461bcd60e51b815260206004820152601f60248201527f496e636f72726563742063616e63656c6c6174696f6e206665652073656e74006044820152606490fd5b60405162461bcd60e51b815260206004820152603060248201527f436f6e7472616374206d757374206265206f70656e206f7220616c6c6f74656460448201526f081d1bc818994818d85b98d95b1b195960821b6064820152608490fd5b600191501485612519565b505f828152600a60205260409020600b01546001600160a01b031633146124df565b3461031357602036600319011261031357600435604090818051612be7828261366a565b3690378151908282018281106001600160401b0382111761180d578352805f52600a6020526008835f20015460081c60030b82525f52600a6020526008825f20015460281c60030b6020820152815190815f905b60028210612c4857505050f35b602080600192855160030b815201930191019091612c3b565b3461031357610ccb612c7236613707565b91613a03565b34610313576020366003190112610313576020612c966004356139c6565b6040519015158152f35b34610313576040366003190112610313576004356001600160401b03811161031357612cd09036906004016136dc565b612cd861361d565b612ce36008546139b8565b9081600855602092604051612cf8858261366a565b5f81526001600160a01b038316928315612fba576001600160a01b03612d1e8683613dae565b16612fa7573b612eba575b50825f526006845260405f2081516001600160401b03811161180d57612d4f8254613741565b601f8111612e8c575b5085601f8211600114612e065791612dab827fe7cd4ce7f2a465edc730269a1305e8a48bad821e8fb7e152ec413829c01a53c49593612df0955f91612dfb575b508160011b915f199060031b1c19161790565b90555b7ff8e1a15aba9398e019f0b49df1a4fde98ee17ae345cb5f6b5e2c27f5033e8ce786604051878152a160405191829186835260408884015260408301906135e3565b0390a2604051908152f35b90508401518a612d98565b601f19821690835f52875f20915f5b89828210612e7657505092612df09492600192827fe7cd4ce7f2a465edc730269a1305e8a48bad821e8fb7e152ec413829c01a53c4989610612e5e575b5050811b019055612dae565b8501515f1960f88460031b161c191690558980612e52565b600184958293958a015181550194019201612e15565b612eb490835f52875f20601f840160051c81019189851061180357601f0160051c01906139a2565b86612d58565b84612ef7916040969594965180938192630a85bd0160e11b83523360048401525f60248401528760448401526080606484015260848301906135e3565b03815f895af15f9181612f67575b50612f3357505050612f15613bfd565b80519182612f305783633250574960e11b5f5260045260245ffd5b01fd5b929391926001600160e01b03191663757a42ff60e11b01612f545784612d29565b50633250574960e11b5f5260045260245ffd5b9091508481813d8311612fa0575b612f7f818361366a565b8101031261031357516001600160e01b031981168103610313579086612f05565b503d612f75565b6339e3563760e11b5f525f60045260245ffd5b633250574960e11b5f525f60045260245ffd5b34610313576020366003190112610313576004355f52600a602052602060ff600860405f2001541661300260405180926136fa565bf35b34610313576020366003190112610313576004355f52600a6020526020600160405f200154604051908152f35b6060366003190112610313576024356004356044356001600160401b038111610313576130629036906004016136dc565b61306a613d58565b815f52600a60205260018060a01b0360405f205416331461333d5761308e826139c6565b156132e457815f52600a60205260405f209160ff835460a01c16155f146132d0576130b93415613944565b604051936130c685613633565b33855260208501948186526040810195848752835f52600b60205260405f208054600160401b81101561180d57613102916001820181556138c8565b9190916132bd57915181546001600160a01b0319166001600160a01b039190911617815590516001820155945180519095600201906001600160401b03811161180d5761314f8254613741565b601f811161328d575b506020601f821160011461320557817fe4b8e969be7436f10cc5e8d346f485fe6b6438e59bc9c0a22c1606572ef3b009959493926131ad92600a9a5f92611a145750508160011b915f199060031b1c19161790565b90555b604051918252602082015260606040820152806131d2339460608301906135e3565b0390a201805461025842019081421161078757106131f1576001600755005b610e104201908142116107875755806106cf565b601f19821697835f52815f20985f5b81811061327557509860019284927fe4b8e969be7436f10cc5e8d346f485fe6b6438e59bc9c0a22c1606572ef3b00998979695600a9c1061325d575b505050811b0190556131b0565b01515f1960f88460031b161c19169055898080613250565b838301518b556001909a019960209384019301613214565b6132b790835f5260205f20601f840160051c8101916020851061180357601f0160051c01906139a2565b87613158565b634e487b7160e01b5f525f60045260245ffd5b6132df600584015434146138f8565b6130b9565b60405162461bcd60e51b815260206004820152602b60248201527f436f6e7472616374206973206e6f206c6f6e676572206f70656e20666f72206160448201526a70706c69636174696f6e7360a81b6064820152608490fd5b60405162461bcd60e51b815260206004820152602b60248201527f43726561746f722063616e6e6f74206170706c7920666f72207468656972206f60448201526a1ddb8818dbdb9d1c9858dd60aa1b6064820152608490fd5b34610313576040366003190112610313576133af613607565b6024356133bb81613d24565b3315158061346d575b80613440575b61342d5781906001600160a01b0384811691167f8c5be1e5ebec7d5bd14f71427d1e84f3dd0314c0f7b2291e5b200ac8c7c3b9255f80a45f90815260046020526040902080546001600160a01b0319166001600160a01b03909216919091179055005b63a9fbf51f60e01b5f523360045260245ffd5b506001600160a01b0381165f90815260056020908152604080832033845290915290205460ff16156133ca565b506001600160a01b0381163314156133c4565b346103135760203660031901126103135760043561349d81613d24565b505f526004602052602060018060a01b0360405f205416604051908152f35b34610313575f366003190112610313576040515f80546134db81613741565b8084529060018116908115611c675750600114613502576104a4836104908185038261366a565b5f8080527f290decd9548b62a8d60345a988386fc84ba6bc95484008f6362f93160ef3e563939250905b80821061354457509091508101602001610490611bf9565b91926001816020925483858801015201910190929161352c565b34610313576020366003190112610313576004359063ffffffff60e01b821680920361031357602091632483248360e11b81149081156135a0575b5015158152f35b6380ac58cd60e01b8114915081156135d2575b81156135c1575b5083613599565b6301ffc9a760e01b149050836135ba565b635b5e139f60e01b811491506135b3565b805180835260209291819084018484015e5f828201840152601f01601f1916010190565b600435906001600160a01b038216820361031357565b602435906001600160a01b038216820361031357565b606081019081106001600160401b0382111761180d57604052565b61028081019081106001600160401b0382111761180d57604052565b90601f801991011681019081106001600160401b0382111761180d57604052565b6001600160401b03811161180d57601f01601f191660200190565b9291926136b28261368b565b916136c0604051938461366a565b829481845281830111610313578281602093845f960137010152565b9080601f83011215610313578160206136f7933591016136a6565b90565b9060058210156108285752565b6060906003190112610313576004356001600160a01b038116810361031357906024356001600160a01b0381168103610313579060443590565b90600182811c9216801561376f575b602083101461375b57565b634e487b7160e01b5f52602260045260245ffd5b91607f1691613750565b5f929181549161378883613741565b80835292600181169081156137dd57506001146137a457505050565b5f9081526020812093945091925b8383106137c3575060209250010190565b6001816020929493945483858701015201910191906137b2565b915050602093945060ff929192191683830152151560051b010190565b34610313575f3660031901126103135760206040517f00000000000000000000000000000000000000000000000000000000000000008152f35b9080602083519182815201916020808360051b8301019401925f915b83831061385f57505050505090565b909192939460208061387d600193601f1986820301875289516135e3565b97019301930191939290613850565b6040906003190112610313576004359060243590565b8054156138b4575f5260205f20905f90565b634e487b7160e01b5f52603260045260245ffd5b80548210156138b4575f52600360205f20910201905f90565b6001600160401b03811161180d5760051b60200190565b156138ff57565b60405162461bcd60e51b815260206004820152601760248201527f496e73756666696369656e742066756e64732073656e740000000000000000006044820152606490fd5b1561394b57565b60405162461bcd60e51b815260206004820152602960248201527f4e6f2066756e64732073686f756c642062652073656e7420666f7220746869736044820152680818dbdb9d1c9858dd60ba1b6064820152608490fd5b8181106139ad575050565b5f81556001016139a2565b5f1981146107875760010190565b805f52600a60205260ff600860405f200154166005811015610828571590816139ed575090565b90505f52600a602052600a60405f200154421090565b6001600160a01b0390911691908215612fba575f828152600260205260409020546001600160a01b031692829033151580613af6575b5084613ac3575b805f52600360205260405f2060018154019055815f52600260205260405f20816001600160601b0360a01b825416179055847fddf252ad1be2c89b69c2b068fc378daa952ba7f163c4a11628f55a4df523b3ef5f80a46001600160a01b0316808303613aab57505050565b6364283d7b60e01b5f5260045260245260445260645ffd5b5f82815260046020526040902080546001600160a01b0319169055845f52600360205260405f205f198154019055613a40565b90915080613b3a575b15613b0c5782905f613a39565b8284613b2457637e27328960e01b5f5260045260245ffd5b63177e802f60e01b5f523360045260245260445ffd5b503384148015613b69575b80613aff57505f838152600460205260409020546001600160a01b03163314613aff565b505f84815260056020908152604080832033845290915290205460ff16613b45565b15613b9257565b60405162461bcd60e51b815260206004820152603a60248201527f4f6e6c792063726561746f72206f722073656c6563746564206170706c69636160448201527f6e742063616e20706572666f726d207468697320616374696f6e0000000000006064820152608490fd5b3d15613c27573d90613c0e8261368b565b91613c1c604051938461366a565b82523d5f602084013e565b606090565b908154613c38816138e1565b92613c46604051948561366a565b81845260208401905f5260205f205f915b838310613c645750505050565b600160208192604051613c7b816104898189613779565b815201920192019190613c57565b8181029291811591840414171561078757565b613ca68154613741565b9081613cb0575050565b81601f5f9311600114613cc1575055565b81835260208320613cdd91601f0160051c8101906001016139a2565b8082528160208120915555565b613cf381613d24565b505f526006602052610489613d1160405f2060405192838092613779565b5f604051613d2060208261366a565b5290565b5f818152600260205260409020546001600160a01b0316908115613d46575090565b637e27328960e01b5f5260045260245ffd5b600260075414613d69576002600755565b60405162461bcd60e51b815260206004820152601f60248201527f5265656e7472616e637947756172643a207265656e7472616e742063616c6c006044820152606490fd5b5f828152600260205260409020546001600160a01b0316919082613e3a575b6001600160a01b031680613e22575b815f52600260205260405f20816001600160601b0360a01b825416179055827fddf252ad1be2c89b69c2b068fc378daa952ba7f163c4a11628f55a4df523b3ef5f80a490565b805f52600360205260405f2060018154019055613ddc565b5f82815260046020526040902080546001600160a01b0319169055825f52600360205260405f205f198154019055613dcd565b919291906001600160a01b03811615612fba576001600160a01b0390613e94908590613dae565b169081613eae5783637e27328960e01b5f5260045260245ffd5b919290916001600160a01b0316808303613aab57505050565b805f52600a60205260405f209160ff835460a01c1615613fad575f5b825f52600b60205260405f2054811015613fa757825f52600b602052613f0c8160405f206138c8565b50546001600160a01b0390811690831603613f2a575b600101613ee3565b825f52600b6020525f808080613f4385604083206138c8565b50546005890154906001600160a01b03165af1613f5e613bfd565b50613f2257606460405162461bcd60e51b815260206004820152602060248201527f4661696c656420746f20726566756e64206170706c69636174696f6e206665656044820152fd5b50505050565b505050565b9291813b613fc05750505050565b604051630a85bd0160e11b81523360048201526001600160a01b039485166024820152604481019190915260806064820152921691906020908290819061400b9060848301906135e3565b03815f865af15f918161407a575b506140475750614027613bfd565b805190816140425782633250574960e11b5f5260045260245ffd5b602001fd5b6001600160e01b03191663757a42ff60e11b0161406857505f808080613fa7565b633250574960e11b5f5260045260245ffd5b9091506020813d6020116140b7575b816140966020938361366a565b8101031261031357516001600160e01b03198116810361031357905f614019565b3d915061408956fea2646970667358221220e4a286e7150fb2a08fcbb9416d6b067ec801376df3a54e94887e09ca0bb71f1e64736f6c634300081a0033",
			"opcodes": "PUSH2 0x100 PUSH1 0x40 MSTORE CALLVALUE PUSH2 0x384 JUMPI PUSH1 0x40 DUP1 MLOAD SWAP1 DUP2 ADD PUSH1 0x1 PUSH1 0x1 PUSH1 0x40 SHL SUB DUP2 GT DUP3 DUP3 LT OR PUSH2 0x29A JUMPI PUSH1 0x40 SWAP1 DUP2 MSTORE PUSH1 0x9 DUP3 MSTORE PUSH9 0x12DC9A5CDA1A539195 PUSH1 0xBA SHL PUSH1 0x20 DUP4 ADD MSTORE DUP1 MLOAD SWAP1 DUP2 ADD PUSH1 0x1 PUSH1 0x1 PUSH1 0x40 SHL SUB DUP2 GT DUP3 DUP3 LT OR PUSH2 0x29A JUMPI PUSH1 0x40 MSTORE PUSH1 0x4 DUP2 MSTORE PUSH4 0x12D39195 PUSH1 0xE2 SHL PUSH1 0x20 DUP3 ADD MSTORE DUP2 MLOAD PUSH1 0x1 PUSH1 0x1 PUSH1 0x40 SHL SUB DUP2 GT PUSH2 0x29A JUMPI PUSH0 SLOAD PUSH1 0x1 DUP2 DUP2 SHR SWAP2 AND DUP1 ISZERO PUSH2 0x37A JUMPI JUMPDEST PUSH1 0x20 DUP3 LT EQ PUSH2 0x27C JUMPI PUSH1 0x1F DUP2 GT PUSH2 0x318 JUMPI JUMPDEST POP PUSH1 0x20 SWAP3 PUSH1 0x1F DUP3 GT PUSH1 0x1 EQ PUSH2 0x2B9 JUMPI SWAP3 DUP2 SWAP3 SWAP4 PUSH0 SWAP3 PUSH2 0x2AE JUMPI JUMPDEST POP POP DUP2 PUSH1 0x1 SHL SWAP2 PUSH0 NOT SWAP1 PUSH1 0x3 SHL SHR NOT AND OR PUSH0 SSTORE JUMPDEST DUP1 MLOAD PUSH1 0x1 PUSH1 0x1 PUSH1 0x40 SHL SUB DUP2 GT PUSH2 0x29A JUMPI PUSH1 0x1 SLOAD PUSH1 0x1 DUP2 DUP2 SHR SWAP2 AND DUP1 ISZERO PUSH2 0x290 JUMPI JUMPDEST PUSH1 0x20 DUP3 LT EQ PUSH2 0x27C JUMPI PUSH1 0x1F DUP2 GT PUSH2 0x219 JUMPI JUMPDEST POP PUSH1 0x20 SWAP2 PUSH1 0x1F DUP3 GT PUSH1 0x1 EQ PUSH2 0x1B9 JUMPI SWAP2 DUP2 SWAP3 PUSH0 SWAP3 PUSH2 0x1AE JUMPI JUMPDEST POP POP DUP2 PUSH1 0x1 SHL SWAP2 PUSH0 NOT SWAP1 PUSH1 0x3 SHL SHR NOT AND OR PUSH1 0x1 SSTORE JUMPDEST PUSH1 0x1 PUSH1 0x7 SSTORE PUSH0 PUSH1 0x8 SSTORE PUSH0 PUSH1 0x9 SSTORE PUSH1 0x5 PUSH1 0x80 MSTORE PUSH8 0x16345785D8A0000 PUSH1 0xA0 MSTORE PUSH8 0x6F05B59D3B20000 PUSH1 0xC0 MSTORE CALLER PUSH1 0xE0 MSTORE PUSH1 0x40 MLOAD PUSH2 0x40F5 SWAP1 DUP2 PUSH2 0x389 DUP3 CODECOPY PUSH1 0x80 MLOAD DUP2 DUP2 DUP2 PUSH2 0x925 ADD MSTORE PUSH2 0x3811 ADD MSTORE PUSH1 0xA0 MLOAD DUP2 PUSH2 0x1DAB ADD MSTORE PUSH1 0xC0 MLOAD DUP2 DUP2 DUP2 PUSH2 0x995 ADD MSTORE DUP2 DUP2 PUSH2 0x108B ADD MSTORE DUP2 DUP2 PUSH2 0x11BB ADD MSTORE DUP2 DUP2 PUSH2 0x260C ADD MSTORE PUSH2 0x2989 ADD MSTORE PUSH1 0xE0 MLOAD DUP2 PUSH2 0x94D ADD MSTORE RETURN JUMPDEST ADD MLOAD SWAP1 POP PUSH0 DUP1 PUSH2 0x115 JUMP JUMPDEST PUSH1 0x1F NOT DUP3 AND SWAP3 PUSH1 0x1 PUSH0 MSTORE DUP1 PUSH0 KECCAK256 SWAP2 PUSH0 JUMPDEST DUP6 DUP2 LT PUSH2 0x201 JUMPI POP DUP4 PUSH1 0x1 SWAP6 LT PUSH2 0x1E9 JUMPI JUMPDEST POP POP POP DUP2 SHL ADD PUSH1 0x1 SSTORE PUSH2 0x12A JUMP JUMPDEST ADD MLOAD PUSH0 NOT PUSH1 0xF8 DUP5 PUSH1 0x3 SHL AND SHR NOT AND SWAP1 SSTORE PUSH0 DUP1 DUP1 PUSH2 0x1DB JUMP JUMPDEST SWAP2 SWAP3 PUSH1 0x20 PUSH1 0x1 DUP2 SWAP3 DUP7 DUP6 ADD MLOAD DUP2 SSTORE ADD SWAP5 ADD SWAP3 ADD PUSH2 0x1C9 JUMP JUMPDEST PUSH1 0x1 PUSH0 MSTORE PUSH32 0xB10E2D527612073B26EECDFD717E6A320CF44B4AFAC2B0732D9FCBE2B7FA0CF6 PUSH1 0x1F DUP4 ADD PUSH1 0x5 SHR DUP2 ADD SWAP2 PUSH1 0x20 DUP5 LT PUSH2 0x272 JUMPI JUMPDEST PUSH1 0x1F ADD PUSH1 0x5 SHR ADD SWAP1 JUMPDEST DUP2 DUP2 LT PUSH2 0x267 JUMPI POP PUSH2 0xFC JUMP JUMPDEST PUSH0 DUP2 SSTORE PUSH1 0x1 ADD PUSH2 0x25A JUMP JUMPDEST SWAP1 SWAP2 POP DUP2 SWAP1 PUSH2 0x251 JUMP JUMPDEST PUSH4 0x4E487B71 PUSH1 0xE0 SHL PUSH0 MSTORE PUSH1 0x22 PUSH1 0x4 MSTORE PUSH1 0x24 PUSH0 REVERT JUMPDEST SWAP1 PUSH1 0x7F AND SWAP1 PUSH2 0xEA JUMP JUMPDEST PUSH4 0x4E487B71 PUSH1 0xE0 SHL PUSH0 MSTORE PUSH1 0x41 PUSH1 0x4 MSTORE PUSH1 0x24 PUSH0 REVERT JUMPDEST ADD MLOAD SWAP1 POP PUSH0 DUP1 PUSH2 0xB5 JUMP JUMPDEST PUSH1 0x1F NOT DUP3 AND SWAP4 PUSH0 DUP1 MSTORE DUP1 PUSH0 KECCAK256 SWAP2 PUSH0 JUMPDEST DUP7 DUP2 LT PUSH2 0x300 JUMPI POP DUP4 PUSH1 0x1 SWAP6 SWAP7 LT PUSH2 0x2E8 JUMPI JUMPDEST POP POP POP DUP2 SHL ADD PUSH0 SSTORE PUSH2 0xC9 JUMP JUMPDEST ADD MLOAD PUSH0 NOT PUSH1 0xF8 DUP5 PUSH1 0x3 SHL AND SHR NOT AND SWAP1 SSTORE PUSH0 DUP1 DUP1 PUSH2 0x2DB JUMP JUMPDEST SWAP2 SWAP3 PUSH1 0x20 PUSH1 0x1 DUP2 SWAP3 DUP7 DUP6 ADD MLOAD DUP2 SSTORE ADD SWAP5 ADD SWAP3 ADD PUSH2 0x2C8 JUMP JUMPDEST PUSH0 DUP1 MSTORE PUSH32 0x290DECD9548B62A8D60345A988386FC84BA6BC95484008F6362F93160EF3E563 PUSH1 0x1F DUP4 ADD PUSH1 0x5 SHR DUP2 ADD SWAP2 PUSH1 0x20 DUP5 LT PUSH2 0x370 JUMPI JUMPDEST PUSH1 0x1F ADD PUSH1 0x5 SHR ADD SWAP1 JUMPDEST DUP2 DUP2 LT PUSH2 0x365 JUMPI POP PUSH2 0x9B JUMP JUMPDEST PUSH0 DUP2 SSTORE PUSH1 0x1 ADD PUSH2 0x358 JUMP JUMPDEST SWAP1 SWAP2 POP DUP2 SWAP1 PUSH2 0x34F JUMP JUMPDEST SWAP1 PUSH1 0x7F AND SWAP1 PUSH2 0x89 JUMP JUMPDEST PUSH0 DUP1 REVERT INVALID PUSH2 0x100 DUP1 PUSH1 0x40 MSTORE PUSH1 0x4 CALLDATASIZE LT ISZERO PUSH2 0xA1 JUMPI JUMPDEST POP CALLDATASIZE ISZERO PUSH2 0x5C JUMPI PUSH1 0x40 MLOAD PUSH3 0x461BCD PUSH1 0xE5 SHL DUP2 MSTORE PUSH1 0x20 PUSH1 0x4 DUP3 ADD MSTORE PUSH1 0x18 PUSH1 0x24 DUP3 ADD MSTORE PUSH32 0x46616C6C6261636B2066756E6374696F6E2063616C6C65640000000000000000 PUSH1 0x44 DUP3 ADD MSTORE PUSH1 0x64 SWAP1 REVERT JUMPDEST PUSH1 0x40 MLOAD PUSH3 0x461BCD PUSH1 0xE5 SHL DUP2 MSTORE PUSH1 0x20 PUSH1 0x4 DUP3 ADD MSTORE PUSH1 0x19 PUSH1 0x24 DUP3 ADD MSTORE PUSH32 0x446972656374204574686572206E6F7420616363657074656400000000000000 PUSH1 0x44 DUP3 ADD MSTORE PUSH1 0x64 SWAP1 REVERT JUMPDEST PUSH0 CALLDATALOAD PUSH1 0xE0 SHR SWAP1 DUP2 PUSH4 0x1FFC9A7 EQ PUSH2 0x355E JUMPI POP DUP1 PUSH4 0x67BD3B4 EQ PUSH2 0x1C8B JUMPI DUP1 PUSH4 0x6FDDE03 EQ PUSH2 0x34BC JUMPI DUP1 PUSH4 0x81812FC EQ PUSH2 0x3480 JUMPI DUP1 PUSH4 0x95EA7B3 EQ PUSH2 0x3396 JUMPI DUP1 PUSH4 0xCC1679B EQ PUSH2 0x3031 JUMPI DUP1 PUSH4 0x14FF5EA3 EQ PUSH2 0x3004 JUMPI DUP1 PUSH4 0x17B18458 EQ PUSH2 0x2FCD JUMPI DUP1 PUSH4 0x1C351A9D EQ PUSH2 0x2CA0 JUMPI DUP1 PUSH4 0x1ECB9938 EQ PUSH2 0x2C78 JUMPI DUP1 PUSH4 0x23B872DD EQ PUSH2 0x2C61 JUMPI DUP1 PUSH4 0x2766DF9B EQ PUSH2 0x2BC3 JUMPI DUP1 PUSH4 0x2E55B510 EQ PUSH2 0x2493 JUMPI DUP1 PUSH4 0x2F63F34F EQ PUSH2 0x245C JUMPI DUP1 PUSH4 0x3BC4DBF1 EQ PUSH2 0x242F JUMPI DUP1 PUSH4 0x3CF13901 EQ PUSH2 0x23F8 JUMPI DUP1 PUSH4 0x3EE23F92 EQ PUSH2 0x23C6 JUMPI DUP1 PUSH4 0x42842E0E EQ PUSH2 0x2397 JUMPI DUP1 PUSH4 0x474DA79A EQ PUSH2 0x21F6 JUMPI DUP1 PUSH4 0x4C9C3F85 EQ PUSH2 0x1CA8 JUMPI DUP1 PUSH4 0x51E4E174 EQ PUSH2 0x21C1 JUMPI DUP1 PUSH4 0x530EA55A EQ PUSH2 0x2194 JUMPI DUP1 PUSH4 0x6352211E EQ PUSH2 0x2164 JUMPI DUP1 PUSH4 0x6EBC8C86 EQ PUSH2 0x1E1F JUMPI DUP1 PUSH4 0x70A08231 EQ PUSH2 0x1DCE JUMPI DUP1 PUSH4 0x7A76E865 EQ PUSH2 0x1D94 JUMPI DUP1 PUSH4 0x7A77DC5D EQ PUSH2 0x1D62 JUMPI DUP1 PUSH4 0x7A870B63 EQ PUSH2 0x1CEE JUMPI DUP1 PUSH4 0x8031E4EE EQ PUSH2 0x1CAD JUMPI DUP1 PUSH4 0x8C639A85 EQ PUSH2 0x1CA8 JUMPI DUP1 PUSH4 0x9399869D EQ PUSH2 0x1C8B JUMPI DUP1 PUSH4 0x95D89B41 EQ PUSH2 0x1BC1 JUMPI DUP1 PUSH4 0x971D608F EQ PUSH2 0x1B94 JUMPI DUP1 PUSH4 0x987D4B7C EQ PUSH2 0x10AE JUMPI DUP1 PUSH4 0x9C0401C6 EQ PUSH2 0x1074 JUMPI DUP1 PUSH4 0x9E5D9C09 EQ PUSH2 0xD9E JUMPI DUP1 PUSH4 0xA22CB465 EQ PUSH2 0xCFA JUMPI DUP1 PUSH4 0xB7C9BF34 EQ PUSH2 0xCCD JUMPI DUP1 PUSH4 0xB88D4FDE EQ PUSH2 0xC61 JUMPI DUP1 PUSH4 0xC1511395 EQ PUSH2 0x85E JUMPI DUP1 PUSH4 0xC6497DA1 EQ PUSH2 0x60B JUMPI DUP1 PUSH4 0xC87B56DD EQ PUSH2 0x5EC JUMPI DUP1 PUSH4 0xCE7BF797 EQ PUSH2 0x5BF JUMPI DUP1 PUSH4 0xCFA3F450 EQ PUSH2 0x4C5 JUMPI DUP1 PUSH4 0xD082E381 EQ PUSH2 0x4A8 JUMPI DUP1 PUSH4 0xD6B2737B EQ PUSH2 0x452 JUMPI DUP1 PUSH4 0xE250FC7B EQ PUSH2 0x41F JUMPI DUP1 PUSH4 0xE985E9C5 EQ PUSH2 0x3C8 JUMPI DUP1 PUSH4 0xED87620E EQ PUSH2 0x393 JUMPI DUP1 PUSH4 0xF0E40662 EQ PUSH2 0x34C JUMPI DUP1 PUSH4 0xF32F3AE6 EQ PUSH2 0x317 JUMPI PUSH4 0xFADD2B69 EQ PUSH2 0x2E9 JUMPI PUSH0 PUSH2 0x10 JUMP JUMPDEST CALLVALUE PUSH2 0x313 JUMPI PUSH1 0x20 CALLDATASIZE PUSH1 0x3 NOT ADD SLT PUSH2 0x313 JUMPI PUSH1 0x4 CALLDATALOAD PUSH0 MSTORE PUSH1 0xB PUSH1 0x20 MSTORE PUSH1 0x20 PUSH1 0x40 PUSH0 KECCAK256 SLOAD PUSH1 0x40 MLOAD SWAP1 DUP2 MSTORE RETURN JUMPDEST PUSH0 DUP1 REVERT JUMPDEST CALLVALUE PUSH2 0x313 JUMPI PUSH1 0x20 CALLDATASIZE PUSH1 0x3 NOT ADD SLT PUSH2 0x313 JUMPI PUSH1 0x4 CALLDATALOAD PUSH0 MSTORE PUSH1 0xA PUSH1 0x20 MSTORE PUSH1 0x20 PUSH1 0x1 DUP1 PUSH1 0xA0 SHL SUB PUSH1 0xB PUSH1 0x40 PUSH0 KECCAK256 ADD SLOAD AND PUSH1 0x40 MLOAD SWAP1 DUP2 MSTORE RETURN JUMPDEST CALLVALUE PUSH2 0x313 JUMPI PUSH1 0x20 CALLDATASIZE PUSH1 0x3 NOT ADD SLT PUSH2 0x313 JUMPI PUSH1 0x4 DUP1 CALLDATALOAD PUSH0 SWAP1 DUP2 MSTORE PUSH1 0xA PUSH1 0x20 SWAP1 DUP2 MSTORE PUSH1 0x40 SWAP1 SWAP2 KECCAK256 PUSH1 0x3 DUP2 ADD SLOAD SWAP3 ADD SLOAD SWAP1 SWAP2 PUSH2 0x38B SWAP2 PUSH4 0xFFFFFFFF AND SWAP1 PUSH2 0x3C89 JUMP JUMPDEST PUSH1 0x40 MLOAD SWAP1 DUP2 MSTORE RETURN JUMPDEST CALLVALUE PUSH2 0x313 JUMPI PUSH1 0x20 CALLDATASIZE PUSH1 0x3 NOT ADD SLT PUSH2 0x313 JUMPI PUSH1 0x4 CALLDATALOAD PUSH0 MSTORE PUSH1 0xA PUSH1 0x20 MSTORE PUSH1 0x20 PUSH1 0xFF PUSH1 0xD PUSH1 0x40 PUSH0 KECCAK256 ADD SLOAD PUSH1 0x10 SHR AND PUSH1 0x40 MLOAD SWAP1 ISZERO ISZERO DUP2 MSTORE RETURN JUMPDEST CALLVALUE PUSH2 0x313 JUMPI PUSH1 0x40 CALLDATASIZE PUSH1 0x3 NOT ADD SLT PUSH2 0x313 JUMPI PUSH2 0x3E1 PUSH2 0x3607 JUMP JUMPDEST PUSH2 0x3E9 PUSH2 0x361D JUMP JUMPDEST SWAP1 PUSH1 0x1 DUP1 PUSH1 0xA0 SHL SUB AND PUSH0 MSTORE PUSH1 0x5 PUSH1 0x20 MSTORE PUSH1 0x40 PUSH0 KECCAK256 SWAP1 PUSH1 0x1 DUP1 PUSH1 0xA0 SHL SUB AND PUSH0 MSTORE PUSH1 0x20 MSTORE PUSH1 0x20 PUSH1 0xFF PUSH1 0x40 PUSH0 KECCAK256 SLOAD AND PUSH1 0x40 MLOAD SWAP1 ISZERO ISZERO DUP2 MSTORE RETURN JUMPDEST CALLVALUE PUSH2 0x313 JUMPI PUSH1 0x20 CALLDATASIZE PUSH1 0x3 NOT ADD SLT PUSH2 0x313 JUMPI PUSH1 0x4 CALLDATALOAD PUSH0 MSTORE PUSH1 0xA PUSH1 0x20 MSTORE PUSH1 0x20 PUSH4 0xFFFFFFFF PUSH1 0x4 PUSH1 0x40 PUSH0 KECCAK256 ADD SLOAD AND PUSH1 0x40 MLOAD SWAP1 DUP2 MSTORE RETURN JUMPDEST CALLVALUE PUSH2 0x313 JUMPI PUSH1 0x20 CALLDATASIZE PUSH1 0x3 NOT ADD SLT PUSH2 0x313 JUMPI PUSH1 0x4 CALLDATALOAD PUSH0 MSTORE PUSH1 0xA PUSH1 0x20 MSTORE PUSH2 0x4A4 PUSH2 0x489 PUSH2 0x490 PUSH1 0xC PUSH1 0x40 PUSH0 KECCAK256 ADD PUSH1 0x40 MLOAD SWAP3 DUP4 DUP1 SWAP3 PUSH2 0x3779 JUMP JUMPDEST SUB DUP3 PUSH2 0x366A JUMP JUMPDEST PUSH1 0x40 MLOAD SWAP2 DUP3 SWAP2 PUSH1 0x20 DUP4 MSTORE PUSH1 0x20 DUP4 ADD SWAP1 PUSH2 0x35E3 JUMP JUMPDEST SUB SWAP1 RETURN JUMPDEST CALLVALUE PUSH2 0x313 JUMPI PUSH0 CALLDATASIZE PUSH1 0x3 NOT ADD SLT PUSH2 0x313 JUMPI PUSH1 0x20 PUSH1 0x8 SLOAD PUSH1 0x40 MLOAD SWAP1 DUP2 MSTORE RETURN JUMPDEST CALLVALUE PUSH2 0x313 JUMPI PUSH2 0x4D3 CALLDATASIZE PUSH2 0x388C JUMP JUMPDEST PUSH1 0x60 PUSH1 0x40 DUP1 MLOAD PUSH2 0x4E2 DUP2 PUSH2 0x3633 JUMP JUMPDEST PUSH0 DUP2 MSTORE PUSH0 PUSH1 0x20 DUP3 ADD MSTORE ADD MSTORE DUP2 PUSH0 MSTORE PUSH1 0xB PUSH1 0x20 MSTORE PUSH1 0x40 PUSH0 KECCAK256 SLOAD DUP2 LT ISZERO PUSH2 0x58A JUMPI PUSH2 0x515 SWAP2 PUSH0 MSTORE PUSH1 0xB PUSH1 0x20 MSTORE PUSH1 0x40 PUSH0 KECCAK256 PUSH2 0x38C8 JUMP JUMPDEST POP PUSH1 0x40 MLOAD PUSH2 0x522 DUP2 PUSH2 0x3633 JUMP JUMPDEST PUSH1 0x1 DUP1 PUSH1 0xA0 SHL SUB DUP3 SLOAD AND DUP2 MSTORE PUSH2 0x4A4 PUSH1 0x2 PUSH2 0x553 PUSH1 0x1 DUP6 ADD SLOAD SWAP5 PUSH1 0x20 DUP6 ADD SWAP6 DUP7 MSTORE PUSH2 0x489 PUSH1 0x40 MLOAD DUP1 SWAP5 DUP2 SWAP4 ADD PUSH2 0x3779 JUMP JUMPDEST PUSH1 0x40 DUP4 ADD SWAP1 DUP2 MSTORE PUSH1 0x40 MLOAD SWAP4 DUP5 SWAP4 PUSH1 0x20 DUP6 MSTORE PUSH1 0x1 DUP1 PUSH1 0xA0 SHL SUB SWAP1 MLOAD AND PUSH1 0x20 DUP6 ADD MSTORE MLOAD PUSH1 0x40 DUP5 ADD MSTORE MLOAD PUSH1 0x60 DUP1 DUP5 ADD MSTORE PUSH1 0x80 DUP4 ADD SWAP1 PUSH2 0x35E3 JUMP JUMPDEST PUSH1 0x40 MLOAD PUSH3 0x461BCD PUSH1 0xE5 SHL DUP2 MSTORE PUSH1 0x20 PUSH1 0x4 DUP3 ADD MSTORE PUSH1 0xD PUSH1 0x24 DUP3 ADD MSTORE PUSH13 0x92DCECC2D8D2C840D2DCC8CAF PUSH1 0x9B SHL PUSH1 0x44 DUP3 ADD MSTORE PUSH1 0x64 SWAP1 REVERT JUMPDEST CALLVALUE PUSH2 0x313 JUMPI PUSH1 0x20 CALLDATASIZE PUSH1 0x3 NOT ADD SLT PUSH2 0x313 JUMPI PUSH1 0x4 CALLDATALOAD PUSH0 MSTORE PUSH1 0xA PUSH1 0x20 MSTORE PUSH1 0x20 PUSH1 0x9 PUSH1 0x40 PUSH0 KECCAK256 ADD SLOAD PUSH1 0x40 MLOAD SWAP1 DUP2 MSTORE RETURN JUMPDEST CALLVALUE PUSH2 0x313 JUMPI PUSH1 0x20 CALLDATASIZE PUSH1 0x3 NOT ADD SLT PUSH2 0x313 JUMPI PUSH2 0x4A4 PUSH2 0x490 PUSH1 0x4 CALLDATALOAD PUSH2 0x3CEA JUMP JUMPDEST PUSH1 0x20 CALLDATASIZE PUSH1 0x3 NOT ADD SLT PUSH2 0x313 JUMPI PUSH1 0x4 CALLDATALOAD PUSH2 0x622 PUSH2 0x3D58 JUMP JUMPDEST DUP1 PUSH0 MSTORE PUSH1 0xA PUSH1 0x20 MSTORE PUSH1 0x1 DUP1 PUSH1 0xA0 SHL SUB PUSH1 0x40 PUSH0 KECCAK256 SLOAD AND CALLER EQ DUP1 ISZERO PUSH2 0x83C JUMPI JUMPDEST PUSH2 0x649 SWAP1 PUSH2 0x3B8B JUMP JUMPDEST DUP1 PUSH0 MSTORE PUSH1 0xA PUSH1 0x20 MSTORE PUSH1 0x40 PUSH0 KECCAK256 SWAP1 PUSH1 0x8 DUP3 ADD SWAP2 PUSH1 0xFF DUP4 SLOAD AND PUSH1 0x5 DUP2 LT ISZERO PUSH2 0x828 JUMPI PUSH1 0x1 SUB PUSH2 0x7BD JUMPI DUP1 SLOAD CALLER PUSH1 0x1 PUSH1 0x1 PUSH1 0xA0 SHL SUB DUP3 AND EQ SWAP1 DUP2 SWAP1 PUSH1 0xA0 SHR PUSH1 0xFF AND DUP2 PUSH2 0x7B5 JUMPI JUMPDEST DUP2 ISZERO PUSH2 0x79B JUMPI JUMPDEST POP ISZERO PUSH2 0x750 JUMPI PUSH2 0x6A4 CALLVALUE ISZERO PUSH2 0x3944 JUMP JUMPDEST ISZERO PUSH2 0x73A JUMPI PUSH1 0xD DUP2 ADD DUP1 SLOAD PUSH1 0xFF NOT AND PUSH1 0x1 OR SWAP1 SSTORE JUMPDEST PUSH1 0xD DUP2 ADD SLOAD PUSH1 0xFF DUP2 AND SWAP1 DUP2 PUSH2 0x72C JUMPI JUMPDEST POP PUSH2 0x6D6 JUMPI JUMPDEST PUSH1 0x1 PUSH1 0x7 SSTORE STOP JUMPDEST DUP1 SLOAD PUSH1 0xB SWAP1 SWAP2 ADD SLOAD PUSH1 0x40 MLOAD SWAP3 DUP4 MSTORE PUSH1 0x1 PUSH1 0x1 PUSH1 0xA0 SHL SUB SWAP1 DUP2 AND SWAP3 SWAP2 AND SWAP1 PUSH32 0xCC1ADF309BCA76D2117CAE4D24A9972395946063BAD58278C39D3F641B632A8F SWAP1 PUSH1 0x20 SWAP1 LOG3 DUP1 SLOAD PUSH1 0xFF NOT AND PUSH1 0x2 OR SWAP1 SSTORE DUP1 DUP1 DUP1 PUSH2 0x6CF JUMP JUMPDEST PUSH1 0xFF SWAP2 POP PUSH1 0x8 SHR AND DUP5 PUSH2 0x6C9 JUMP JUMPDEST PUSH1 0xD DUP2 ADD DUP1 SLOAD PUSH2 0xFF00 NOT AND PUSH2 0x100 OR SWAP1 SSTORE PUSH2 0x6B9 JUMP JUMPDEST PUSH2 0x769 PUSH1 0x3 DUP4 ADD SLOAD PUSH4 0xFFFFFFFF PUSH1 0x4 DUP6 ADD SLOAD AND SWAP1 PUSH2 0x3C89 JUMP JUMPDEST PUSH1 0x5 DUP4 ADD SLOAD DUP2 SUB SWAP1 DUP2 GT PUSH2 0x787 JUMPI PUSH2 0x782 SWAP1 CALLVALUE EQ PUSH2 0x38F8 JUMP JUMPDEST PUSH2 0x6A4 JUMP JUMPDEST PUSH4 0x4E487B71 PUSH1 0xE0 SHL PUSH0 MSTORE PUSH1 0x11 PUSH1 0x4 MSTORE PUSH1 0x24 PUSH0 REVERT JUMPDEST DUP3 ISZERO SWAP2 POP DUP2 PUSH2 0x7AC JUMPI JUMPDEST POP DUP6 PUSH2 0x694 JUMP JUMPDEST SWAP1 POP ISZERO DUP6 PUSH2 0x7A5 JUMP JUMPDEST SWAP1 POP DUP1 PUSH2 0x68D JUMP JUMPDEST PUSH1 0x40 MLOAD PUSH3 0x461BCD PUSH1 0xE5 SHL DUP2 MSTORE PUSH1 0x20 PUSH1 0x4 DUP3 ADD MSTORE PUSH1 0x39 PUSH1 0x24 DUP3 ADD MSTORE PUSH32 0x436F6E7472616374206D75737420626520616C6C6F746564206265666F726520 PUSH1 0x44 DUP3 ADD MSTORE PUSH32 0x6167726565696E6720746F2066756C66696C6C696E6720697400000000000000 PUSH1 0x64 DUP3 ADD MSTORE PUSH1 0x84 SWAP1 REVERT JUMPDEST PUSH4 0x4E487B71 PUSH1 0xE0 SHL PUSH0 MSTORE PUSH1 0x21 PUSH1 0x4 MSTORE PUSH1 0x24 PUSH0 REVERT JUMPDEST POP PUSH0 DUP2 DUP2 MSTORE PUSH1 0xA PUSH1 0x20 MSTORE PUSH1 0x40 SWAP1 KECCAK256 PUSH1 0xB ADD SLOAD PUSH1 0x1 PUSH1 0x1 PUSH1 0xA0 SHL SUB AND CALLER EQ PUSH2 0x640 JUMP JUMPDEST CALLVALUE PUSH2 0x313 JUMPI PUSH1 0x20 CALLDATASIZE PUSH1 0x3 NOT ADD SLT PUSH2 0x313 JUMPI PUSH1 0x4 CALLDATALOAD PUSH2 0x87A PUSH2 0x3D58 JUMP JUMPDEST PUSH2 0x882 PUSH2 0x3D58 JUMP JUMPDEST PUSH0 DUP2 DUP2 MSTORE PUSH1 0xA PUSH1 0x20 MSTORE PUSH1 0x40 SWAP1 KECCAK256 SLOAD CALLER PUSH1 0x1 PUSH1 0x1 PUSH1 0xA0 SHL SUB DUP3 AND EQ SWAP1 DUP2 ISZERO SWAP1 PUSH1 0xA0 SHR PUSH1 0xFF AND DUP3 DUP3 PUSH2 0xC3F JUMPI JUMPDEST PUSH2 0x8B6 SWAP1 PUSH2 0x3B8B JUMP JUMPDEST DUP3 PUSH2 0xC36 JUMPI JUMPDEST DUP3 ISZERO PUSH2 0xC1D JUMPI JUMPDEST POP POP ISZERO PUSH2 0xBC0 JUMPI DUP1 PUSH0 MSTORE PUSH1 0xA PUSH1 0x20 MSTORE PUSH1 0x40 PUSH0 KECCAK256 PUSH1 0x8 DUP2 ADD SWAP2 PUSH1 0xFF DUP4 SLOAD AND PUSH1 0x5 DUP2 LT ISZERO PUSH2 0x828 JUMPI PUSH1 0x2 SUB PUSH2 0xB46 JUMPI DUP2 SLOAD PUSH1 0x1 PUSH1 0x1 PUSH1 0xA0 SHL SUB AND CALLER DUP2 SUB PUSH2 0xB40 JUMPI POP PUSH1 0xB DUP3 ADD SLOAD PUSH1 0x1 PUSH1 0x1 PUSH1 0xA0 SHL SUB AND SWAP3 JUMPDEST PUSH1 0x3 DUP4 ADD SWAP4 PUSH0 DUP1 DUP1 DUP1 PUSH1 0x64 PUSH2 0x94A DUP11 SLOAD PUSH32 0x0 SWAP1 PUSH2 0x3C89 JUMP JUMPDEST DIV PUSH32 0x0 PUSH1 0x1 PUSH1 0x1 PUSH1 0xA0 SHL SUB AND GAS CALL PUSH2 0x97F PUSH2 0x3BFD JUMP JUMPDEST POP ISZERO PUSH2 0xAFB JUMPI PUSH0 DUP1 DUP1 DUP1 PUSH1 0x1 DUP1 PUSH1 0xA0 SHL SUB DUP9 SLOAD AND PUSH32 0x0 SWAP1 GAS CALL PUSH2 0x9BF PUSH2 0x3BFD JUMP JUMPDEST POP ISZERO PUSH2 0xAA7 JUMPI PUSH0 SWAP1 DUP2 SWAP1 DUP2 SWAP1 DUP2 SWAP1 SELFBALANCE SWAP1 PUSH1 0x1 PUSH1 0x1 PUSH1 0xA0 SHL SUB AND GAS CALL PUSH2 0x9E2 PUSH2 0x3BFD JUMP JUMPDEST POP ISZERO PUSH2 0xA56 JUMPI PUSH32 0x7C7A5C35900CA2CDB3FD22C04B7CB88170CA56792A8FB22E028959ACD2E62DCF SWAP2 PUSH1 0x60 SWAP2 PUSH1 0x3 PUSH1 0xFF NOT DUP3 SLOAD AND OR SWAP1 SSTORE PUSH1 0x1 DUP1 PUSH1 0xA0 SHL SUB DUP5 SLOAD AND SWAP4 PUSH4 0xFFFFFFFF PUSH1 0x4 PUSH1 0x1 DUP1 PUSH1 0xA0 SHL SUB PUSH1 0xB DUP5 ADD SLOAD AND SWAP8 SLOAD SWAP3 ADD SLOAD AND SWAP1 PUSH1 0x40 MLOAD SWAP3 DUP4 MSTORE PUSH1 0x20 DUP4 ADD MSTORE PUSH1 0x40 DUP3 ADD MSTORE LOG3 PUSH1 0x1 PUSH1 0x7 SSTORE STOP JUMPDEST PUSH1 0x40 MLOAD PUSH3 0x461BCD PUSH1 0xE5 SHL DUP2 MSTORE PUSH1 0x20 PUSH1 0x4 DUP3 ADD MSTORE PUSH1 0x24 DUP1 DUP3 ADD MSTORE PUSH32 0x4661696C656420746F2072656C656173652066756E647320746F207265636970 PUSH1 0x44 DUP3 ADD MSTORE PUSH4 0x1A595B9D PUSH1 0xE2 SHL PUSH1 0x64 DUP3 ADD MSTORE PUSH1 0x84 SWAP1 REVERT JUMPDEST PUSH1 0x40 MLOAD PUSH3 0x461BCD PUSH1 0xE5 SHL DUP2 MSTORE PUSH1 0x20 PUSH1 0x4 DUP3 ADD MSTORE PUSH1 0x26 PUSH1 0x24 DUP3 ADD MSTORE PUSH32 0x4661696C656420746F20726566756E6420636F6E747261637420637265617469 PUSH1 0x44 DUP3 ADD MSTORE PUSH6 0x6F6E20666565 PUSH1 0xD0 SHL PUSH1 0x64 DUP3 ADD MSTORE PUSH1 0x84 SWAP1 REVERT JUMPDEST PUSH1 0x40 MLOAD PUSH3 0x461BCD PUSH1 0xE5 SHL DUP2 MSTORE PUSH1 0x20 PUSH1 0x4 DUP3 ADD MSTORE PUSH1 0x1F PUSH1 0x24 DUP3 ADD MSTORE PUSH32 0x4661696C656420746F207472616E7366657220706C6174666F726D2066656500 PUSH1 0x44 DUP3 ADD MSTORE PUSH1 0x64 SWAP1 REVERT JUMPDEST SWAP3 PUSH2 0x913 JUMP JUMPDEST PUSH1 0x40 MLOAD PUSH3 0x461BCD PUSH1 0xE5 SHL DUP2 MSTORE PUSH1 0x20 PUSH1 0x4 DUP3 ADD MSTORE PUSH1 0x46 PUSH1 0x24 DUP3 ADD MSTORE PUSH32 0x436F6E7472616374206D75737420626520616363657074656420627920626F74 PUSH1 0x44 DUP3 ADD MSTORE PUSH32 0x682070617274696573206265666F72652066756E64732063616E206265207265 PUSH1 0x64 DUP3 ADD MSTORE PUSH6 0x1B19585CD959 PUSH1 0xD2 SHL PUSH1 0x84 DUP3 ADD MSTORE PUSH1 0xA4 SWAP1 REVERT JUMPDEST PUSH1 0x40 MLOAD PUSH3 0x461BCD PUSH1 0xE5 SHL DUP2 MSTORE PUSH1 0x20 PUSH1 0x4 DUP3 ADD MSTORE PUSH1 0x2F PUSH1 0x24 DUP3 ADD MSTORE PUSH32 0x4F6E6C792073656C6563746564206170706C6963616E742063616E2070657266 PUSH1 0x44 DUP3 ADD MSTORE PUSH15 0x37B936903A3434B99030B1BA34B7B7 PUSH1 0x89 SHL PUSH1 0x64 DUP3 ADD MSTORE PUSH1 0x84 SWAP1 REVERT JUMPDEST SWAP1 SWAP2 POP DUP2 PUSH2 0xC2E JUMPI JUMPDEST POP DUP3 DUP1 PUSH2 0x8C3 JUMP JUMPDEST SWAP1 POP DUP3 PUSH2 0xC26 JUMP JUMPDEST DUP1 ISZERO SWAP3 POP PUSH2 0x8BC JUMP JUMPDEST POP PUSH0 DUP5 DUP2 MSTORE PUSH1 0xA PUSH1 0x20 MSTORE PUSH1 0x40 SWAP1 KECCAK256 PUSH1 0xB ADD SLOAD PUSH1 0x1 PUSH1 0x1 PUSH1 0xA0 SHL SUB AND CALLER EQ PUSH2 0x8AD JUMP JUMPDEST CALLVALUE PUSH2 0x313 JUMPI PUSH1 0x80 CALLDATASIZE PUSH1 0x3 NOT ADD SLT PUSH2 0x313 JUMPI PUSH2 0xC7A PUSH2 0x3607 JUMP JUMPDEST PUSH2 0xC82 PUSH2 0x361D JUMP JUMPDEST SWAP1 PUSH1 0x44 CALLDATALOAD PUSH1 0x64 CALLDATALOAD SWAP3 PUSH1 0x1 PUSH1 0x1 PUSH1 0x40 SHL SUB DUP5 GT PUSH2 0x313 JUMPI CALLDATASIZE PUSH1 0x23 DUP6 ADD SLT ISZERO PUSH2 0x313 JUMPI PUSH2 0xCBA PUSH2 0xCCB SWAP5 CALLDATASIZE SWAP1 PUSH1 0x24 DUP2 PUSH1 0x4 ADD CALLDATALOAD SWAP2 ADD PUSH2 0x36A6 JUMP JUMPDEST SWAP3 PUSH2 0xCC6 DUP4 DUP4 DUP4 PUSH2 0x3A03 JUMP JUMPDEST PUSH2 0x3FB2 JUMP JUMPDEST STOP JUMPDEST CALLVALUE PUSH2 0x313 JUMPI PUSH1 0x20 CALLDATASIZE PUSH1 0x3 NOT ADD SLT PUSH2 0x313 JUMPI PUSH1 0x4 CALLDATALOAD PUSH0 MSTORE PUSH1 0xA PUSH1 0x20 MSTORE PUSH1 0x20 PUSH1 0x5 PUSH1 0x40 PUSH0 KECCAK256 ADD SLOAD PUSH1 0x40 MLOAD SWAP1 DUP2 MSTORE RETURN JUMPDEST CALLVALUE PUSH2 0x313 JUMPI PUSH1 0x40 CALLDATASIZE PUSH1 0x3 NOT ADD SLT PUSH2 0x313 JUMPI PUSH2 0xD13 PUSH2 0x3607 JUMP JUMPDEST PUSH1 0x24 CALLDATALOAD SWAP1 DUP2 ISZERO ISZERO SWAP1 DUP2 DUP4 SUB PUSH2 0x313 JUMPI PUSH1 0x1 PUSH1 0x1 PUSH1 0xA0 SHL SUB AND SWAP2 DUP3 ISZERO PUSH2 0xD8B JUMPI PUSH2 0xD5D SWAP1 CALLER PUSH0 MSTORE PUSH1 0x5 PUSH1 0x20 MSTORE PUSH1 0x40 PUSH0 KECCAK256 DUP5 PUSH0 MSTORE PUSH1 0x20 MSTORE PUSH1 0x40 PUSH0 KECCAK256 SWAP1 PUSH1 0xFF DUP1 NOT DUP4 SLOAD AND SWAP2 ISZERO ISZERO AND OR SWAP1 SSTORE JUMP JUMPDEST PUSH1 0x40 MLOAD SWAP1 DUP2 MSTORE PUSH32 0x17307EAB39AB6107E8899845AD3D59BD9653F200F220920489CA2B5937696C31 PUSH1 0x20 CALLER SWAP3 LOG3 STOP JUMPDEST DUP3 PUSH4 0xB611743 PUSH1 0xE3 SHL PUSH0 MSTORE PUSH1 0x4 MSTORE PUSH1 0x24 PUSH0 REVERT JUMPDEST CALLVALUE PUSH2 0x313 JUMPI PUSH1 0x40 CALLDATASIZE PUSH1 0x3 NOT ADD SLT PUSH2 0x313 JUMPI PUSH1 0x4 CALLDATALOAD PUSH2 0xDBA PUSH2 0x361D JUMP JUMPDEST SWAP1 PUSH2 0xDC3 PUSH2 0x3D58 JUMP JUMPDEST PUSH0 DUP2 DUP2 MSTORE PUSH1 0xA PUSH1 0x20 MSTORE PUSH1 0x40 SWAP1 KECCAK256 SLOAD PUSH1 0x1 PUSH1 0x1 PUSH1 0xA0 SHL SUB AND CALLER SUB PUSH2 0x1023 JUMPI DUP1 PUSH0 MSTORE PUSH1 0xA PUSH1 0x20 MSTORE PUSH1 0x40 PUSH0 KECCAK256 SWAP2 PUSH2 0xDF6 DUP3 PUSH2 0x39C6 JUMP JUMPDEST ISZERO PUSH2 0xFDE JUMPI PUSH0 SWAP2 PUSH1 0x1 PUSH1 0x1 PUSH1 0xA0 SHL SUB DUP3 AND DUP4 JUMPDEST DUP3 PUSH0 MSTORE PUSH1 0xB PUSH1 0x20 MSTORE PUSH1 0x40 PUSH0 KECCAK256 SLOAD DUP2 LT ISZERO PUSH2 0xFD5 JUMPI DUP3 PUSH0 MSTORE PUSH1 0xB PUSH1 0x20 MSTORE DUP2 PUSH2 0xE33 DUP3 PUSH1 0x40 PUSH0 KECCAK256 PUSH2 0x38C8 JUMP JUMPDEST POP SLOAD PUSH1 0x1 PUSH1 0x1 PUSH1 0xA0 SHL SUB AND EQ PUSH2 0xE4B JUMPI PUSH1 0x1 ADD PUSH2 0xE09 JUMP JUMPDEST POP SWAP1 SWAP2 SWAP3 POP PUSH1 0x1 JUMPDEST ISZERO PUSH2 0xF75 JUMPI DUP2 PUSH0 MSTORE PUSH1 0xB PUSH1 0x20 MSTORE PUSH1 0x1 PUSH2 0xE6E PUSH1 0x40 PUSH0 KECCAK256 PUSH2 0x38A2 JUMP JUMPDEST POP ADD SLOAD PUSH1 0x3 DUP6 ADD SWAP1 DUP2 SSTORE PUSH1 0xB DUP6 ADD DUP1 SLOAD PUSH1 0x1 PUSH1 0x1 PUSH1 0xA0 SHL SUB NOT AND DUP4 OR SWAP1 SSTORE PUSH1 0x8 DUP6 ADD DUP1 SLOAD PUSH1 0xFF NOT AND PUSH1 0x1 OR SWAP1 SSTORE PUSH2 0xEAE PUSH1 0x1 PUSH1 0x1 PUSH1 0xA0 SHL SUB DUP4 AND DUP5 PUSH2 0x3EC7 JUMP JUMPDEST SLOAD DUP3 PUSH0 MSTORE PUSH1 0xB PUSH1 0x20 MSTORE PUSH32 0x7D883BA5522088734DC79C338171B05BC9AD435CE52A692803527ACE937CA11B PUSH2 0xEE4 PUSH1 0x40 PUSH0 KECCAK256 PUSH2 0x38A2 JUMP JUMPDEST POP SWAP2 PUSH1 0x40 MLOAD SWAP1 DUP6 DUP3 MSTORE PUSH1 0x20 DUP3 ADD MSTORE PUSH1 0x60 PUSH1 0x40 DUP3 ADD MSTORE DUP1 PUSH2 0xF0C CALLER SWAP5 PUSH1 0x2 PUSH1 0x60 DUP5 ADD SWAP2 ADD PUSH2 0x3779 JUMP JUMPDEST SUB SWAP1 LOG3 PUSH0 MSTORE PUSH1 0xB PUSH1 0x20 MSTORE PUSH1 0x40 PUSH0 KECCAK256 DUP1 SLOAD SWAP1 PUSH0 DUP2 SSTORE DUP2 PUSH2 0xF36 JUMPI JUMPDEST PUSH2 0x6CF DUP4 PUSH1 0x1 DUP7 ADD SLOAD SWAP1 ADDRESS PUSH2 0x3E6D JUMP JUMPDEST DUP2 PUSH1 0x3 MUL SWAP2 PUSH1 0x3 DUP4 DIV SUB PUSH2 0x787 JUMPI PUSH0 MSTORE PUSH1 0x20 PUSH0 KECCAK256 SWAP1 DUP2 ADD SWAP1 JUMPDEST DUP2 DUP2 LT ISZERO PUSH2 0xF26 JUMPI DUP1 PUSH0 PUSH1 0x3 SWAP3 SSTORE PUSH0 PUSH1 0x1 DUP3 ADD SSTORE PUSH2 0xF6F PUSH1 0x2 DUP3 ADD PUSH2 0x3C9C JUMP JUMPDEST ADD PUSH2 0xF4F JUMP JUMPDEST PUSH1 0x40 MLOAD PUSH3 0x461BCD PUSH1 0xE5 SHL DUP2 MSTORE PUSH1 0x20 PUSH1 0x4 DUP3 ADD MSTORE PUSH1 0x32 PUSH1 0x24 DUP3 ADD MSTORE PUSH32 0x53656C6563746564206170706C6963616E7420646964206E6F74206170706C79 PUSH1 0x44 DUP3 ADD MSTORE PUSH18 0x8199BDC881D1A1A5CC818DBDB9D1C9858DD PUSH1 0x72 SHL PUSH1 0x64 DUP3 ADD MSTORE PUSH1 0x84 SWAP1 REVERT JUMPDEST POP SWAP1 SWAP2 SWAP3 PUSH2 0xE53 JUMP JUMPDEST PUSH1 0x40 MLOAD PUSH3 0x461BCD PUSH1 0xE5 SHL DUP2 MSTORE PUSH1 0x20 PUSH1 0x4 DUP3 ADD MSTORE PUSH1 0x1A PUSH1 0x24 DUP3 ADD MSTORE PUSH32 0x436F6E7472616374206973206E6F206C6F6E676572206F70656E000000000000 PUSH1 0x44 DUP3 ADD MSTORE PUSH1 0x64 SWAP1 REVERT JUMPDEST PUSH1 0x40 MLOAD PUSH3 0x461BCD PUSH1 0xE5 SHL DUP2 MSTORE PUSH1 0x20 PUSH1 0x4 DUP3 ADD MSTORE PUSH1 0x24 DUP1 DUP3 ADD MSTORE PUSH32 0x4F6E6C792063726561746F722063616E20706572666F726D2074686973206163 PUSH1 0x44 DUP3 ADD MSTORE PUSH4 0x3A34B7B7 PUSH1 0xE1 SHL PUSH1 0x64 DUP3 ADD MSTORE PUSH1 0x84 SWAP1 REVERT JUMPDEST CALLVALUE PUSH2 0x313 JUMPI PUSH0 CALLDATASIZE PUSH1 0x3 NOT ADD SLT PUSH2 0x313 JUMPI PUSH1 0x20 PUSH1 0x40 MLOAD PUSH32 0x0 DUP2 MSTORE RETURN JUMPDEST PUSH2 0x180 CALLDATASIZE PUSH1 0x3 NOT ADD SLT PUSH2 0x313 JUMPI PUSH1 0x4 CALLDATALOAD DUP1 ISZERO ISZERO DUP2 SUB PUSH2 0x313 JUMPI PUSH1 0x44 CALLDATALOAD PUSH1 0x1 PUSH1 0x1 PUSH1 0x40 SHL SUB DUP2 GT PUSH2 0x313 JUMPI PUSH2 0x10E6 SWAP1 CALLDATASIZE SWAP1 PUSH1 0x4 ADD PUSH2 0x36DC JUMP JUMPDEST PUSH1 0x84 CALLDATALOAD PUSH1 0x80 MSTORE PUSH4 0xFFFFFFFF PUSH1 0x80 MLOAD AND PUSH1 0x80 MLOAD SUB PUSH2 0x313 JUMPI PUSH1 0xA4 CALLDATALOAD PUSH1 0x1 PUSH1 0x1 PUSH1 0x40 SHL SUB DUP2 GT PUSH2 0x313 JUMPI CALLDATASIZE PUSH1 0x23 DUP3 ADD SLT ISZERO PUSH2 0x313 JUMPI DUP1 PUSH1 0x4 ADD CALLDATALOAD SWAP1 PUSH2 0x1139 PUSH2 0x112B DUP4 PUSH2 0x38E1 JUMP JUMPDEST PUSH1 0x40 MLOAD PUSH1 0xC0 MSTORE PUSH1 0xC0 MLOAD PUSH2 0x366A JUMP JUMPDEST PUSH1 0xC0 DUP1 MLOAD DUP4 SWAP1 MSTORE MLOAD PUSH1 0x20 ADD SWAP2 PUSH1 0x5 SHL DUP2 ADD PUSH1 0x24 ADD SWAP1 CALLDATASIZE DUP3 GT PUSH2 0x313 JUMPI PUSH1 0x24 DUP2 ADD SWAP3 JUMPDEST DUP3 DUP5 LT PUSH2 0x1B65 JUMPI DUP6 DUP6 PUSH1 0xC4 CALLDATALOAD SWAP2 DUP3 PUSH1 0x3 SIGNEXTEND DUP4 SUB PUSH2 0x313 JUMPI PUSH1 0xE4 CALLDATALOAD DUP1 PUSH1 0x3 SIGNEXTEND DUP2 SUB PUSH2 0x313 JUMPI PUSH2 0x104 CALLDATALOAD PUSH2 0x144 CALLDATALOAD DUP1 ISZERO ISZERO DUP2 SUB PUSH2 0x313 JUMPI PUSH2 0x164 CALLDATALOAD PUSH1 0x1 PUSH1 0x1 PUSH1 0x40 SHL SUB DUP2 GT PUSH2 0x313 JUMPI PUSH2 0x11B0 SWAP1 CALLDATASIZE SWAP1 PUSH1 0x4 ADD PUSH2 0x36DC JUMP JUMPDEST SWAP2 PUSH2 0x11B9 PUSH2 0x3D58 JUMP JUMPDEST PUSH32 0x0 CALLVALUE SUB PUSH2 0x1B20 JUMPI PUSH2 0x124 CALLDATALOAD DUP2 LT ISZERO PUSH2 0x1ACA JUMPI PUSH2 0x11F6 PUSH1 0x9 SLOAD PUSH2 0x39B8 JUMP JUMPDEST DUP1 PUSH1 0x9 SSTORE PUSH2 0x120E PUSH4 0xFFFFFFFF PUSH1 0x80 MLOAD AND PUSH1 0x64 CALLDATALOAD PUSH2 0x3C89 JUMP JUMPDEST SWAP2 DUP3 PUSH1 0x5 DUP2 MUL DIV PUSH1 0x5 EQ DUP4 ISZERO OR ISZERO PUSH2 0x787 JUMPI TIMESTAMP ADD DUP1 TIMESTAMP GT PUSH2 0x787 JUMPI PUSH1 0x64 PUSH1 0x5 PUSH1 0x40 MLOAD SWAP5 PUSH2 0x123A DUP7 PUSH2 0x364E JUMP JUMPDEST CALLER DUP7 MSTORE DUP10 ISZERO ISZERO PUSH1 0x20 DUP8 ADD MSTORE PUSH1 0x24 CALLDATALOAD PUSH1 0x40 DUP8 ADD MSTORE DUP11 PUSH1 0x60 DUP8 ADD MSTORE DUP3 CALLDATALOAD PUSH1 0x80 DUP8 ADD MSTORE PUSH4 0xFFFFFFFF PUSH1 0x80 MLOAD AND PUSH1 0xA0 DUP8 ADD MSTORE MUL DIV PUSH1 0xC0 DUP5 ADD MSTORE PUSH1 0xC0 MLOAD PUSH1 0xE0 DUP5 ADD MSTORE PUSH2 0x124 CALLDATALOAD PUSH2 0x100 DUP5 ADD MSTORE PUSH0 PUSH2 0x120 DUP5 ADD MSTORE DUP9 PUSH1 0x3 SIGNEXTEND PUSH2 0x140 DUP5 ADD MSTORE DUP6 PUSH1 0x3 SIGNEXTEND PUSH2 0x160 DUP5 ADD MSTORE TIMESTAMP PUSH2 0x180 DUP5 ADD MSTORE PUSH2 0x1A0 DUP4 ADD MSTORE PUSH0 PUSH2 0x1C0 DUP4 ADD MSTORE PUSH0 PUSH1 0xE0 MSTORE PUSH1 0x20 PUSH1 0xE0 MSTORE PUSH1 0x40 MLOAD PUSH2 0x12C8 PUSH1 0xE0 MLOAD DUP3 PUSH2 0x366A JUMP JUMPDEST PUSH0 DUP1 DUP3 MSTORE PUSH2 0x1E0 DUP5 ADD SWAP2 SWAP1 SWAP2 MSTORE PUSH2 0x200 DUP4 ADD DUP2 SWAP1 MSTORE PUSH2 0x220 DUP4 ADD DUP2 SWAP1 MSTORE DUP4 ISZERO ISZERO PUSH2 0x240 DUP5 ADD MSTORE PUSH2 0x260 DUP4 ADD DUP6 SWAP1 MSTORE SWAP1 DUP2 MSTORE PUSH1 0xE0 MLOAD PUSH1 0xA SWAP1 MSTORE PUSH1 0x40 SWAP1 DUP2 SWAP1 KECCAK256 PUSH1 0xA0 DUP2 DUP2 MSTORE DUP4 MLOAD DUP3 SLOAD PUSH1 0x20 DUP7 ADD MLOAD PUSH1 0x1 PUSH1 0x1 PUSH1 0xA8 SHL SUB NOT SWAP1 SWAP2 AND PUSH1 0x1 PUSH1 0x1 PUSH1 0xA0 SHL SUB SWAP3 SWAP1 SWAP3 AND SWAP2 SWAP1 SWAP2 OR SWAP1 ISZERO ISZERO SWAP1 SWAP2 SHL PUSH1 0xFF PUSH1 0xA0 SHL AND OR DUP2 SSTORE SWAP1 DUP3 ADD MLOAD PUSH1 0x1 SWAP1 SWAP2 ADD SSTORE PUSH1 0x60 DUP2 ADD MLOAD DUP1 MLOAD SWAP1 PUSH1 0x1 PUSH1 0x1 PUSH1 0x40 SHL SUB DUP3 GT PUSH2 0x180D JUMPI PUSH2 0x136E PUSH1 0x2 PUSH1 0xA0 MLOAD ADD SLOAD PUSH2 0x3741 JUMP JUMPDEST PUSH1 0x1F DUP2 GT PUSH2 0x1A93 JUMPI JUMPDEST POP PUSH1 0xE0 MLOAD SWAP1 PUSH1 0x1F DUP4 GT PUSH1 0x1 EQ PUSH2 0x1A1F JUMPI PUSH2 0x13A8 SWAP3 SWAP2 PUSH0 SWAP2 DUP4 PUSH2 0x1A14 JUMPI JUMPDEST POP POP DUP2 PUSH1 0x1 SHL SWAP2 PUSH0 NOT SWAP1 PUSH1 0x3 SHL SHR NOT AND OR SWAP1 JUMP JUMPDEST PUSH1 0x2 PUSH1 0xA0 MLOAD ADD SSTORE JUMPDEST PUSH1 0x80 DUP2 ADD MLOAD PUSH1 0x3 PUSH1 0xA0 MLOAD ADD SSTORE PUSH1 0x4 PUSH1 0xA0 MLOAD ADD PUSH4 0xFFFFFFFF PUSH1 0xA0 DUP4 ADD MLOAD AND PUSH4 0xFFFFFFFF NOT DUP3 SLOAD AND OR SWAP1 SSTORE PUSH1 0xC0 DUP2 ADD MLOAD PUSH1 0x5 PUSH1 0xA0 MLOAD ADD SSTORE PUSH1 0xE0 DUP2 ADD MLOAD DUP1 MLOAD SWAP1 PUSH1 0x1 PUSH1 0x40 SHL DUP3 GT PUSH2 0x180D JUMPI PUSH1 0xA0 MLOAD PUSH1 0x6 ADD DUP1 SLOAD SWAP1 DUP4 SWAP1 SSTORE DUP1 DUP4 LT PUSH2 0x19E0 JUMPI JUMPDEST POP PUSH1 0xE0 MLOAD ADD SWAP1 PUSH1 0x6 PUSH1 0xA0 MLOAD ADD PUSH0 MSTORE PUSH1 0xE0 MLOAD PUSH0 KECCAK256 SWAP2 PUSH0 SWAP1 JUMPDEST DUP3 DUP3 LT PUSH2 0x18C9 JUMPI POP POP POP POP PUSH2 0x100 DUP2 ADD MLOAD PUSH1 0x7 PUSH1 0xA0 MLOAD ADD SSTORE PUSH1 0x8 PUSH1 0xA0 MLOAD ADD PUSH2 0x120 DUP3 ADD MLOAD PUSH1 0x5 DUP2 LT ISZERO PUSH2 0x828 JUMPI PUSH1 0xFF DUP1 NOT DUP4 SLOAD AND SWAP2 AND OR DUP2 SSTORE PUSH2 0x140 DUP3 ADD MLOAD DUP2 SLOAD PUSH5 0xFFFFFFFF00 PUSH2 0x160 DUP6 ADD MLOAD PUSH1 0x28 SHL PUSH9 0xFFFFFFFF0000000000 AND SWAP3 PUSH1 0x8 SHL AND SWAP1 PUSH9 0xFFFFFFFFFFFFFFFF00 NOT AND OR OR SWAP1 SSTORE PUSH2 0x180 DUP2 ADD MLOAD PUSH1 0x9 PUSH1 0xA0 MLOAD ADD SSTORE PUSH2 0x1A0 DUP2 ADD MLOAD PUSH1 0xA PUSH1 0xA0 MLOAD ADD SSTORE PUSH1 0x1 DUP1 PUSH1 0xA0 SHL SUB PUSH2 0x1C0 DUP3 ADD MLOAD AND PUSH1 0xB PUSH1 0xA0 MLOAD ADD SWAP1 PUSH1 0x1 DUP1 PUSH1 0xA0 SHL SUB AND PUSH1 0x1 PUSH1 0x1 PUSH1 0x60 SHL SUB PUSH1 0xA0 SHL DUP3 SLOAD AND OR SWAP1 SSTORE PUSH1 0xC PUSH1 0xA0 MLOAD ADD PUSH2 0x1E0 DUP3 ADD MLOAD DUP1 MLOAD SWAP1 PUSH1 0x1 PUSH1 0x1 PUSH1 0x40 SHL SUB DUP3 GT PUSH2 0x180D JUMPI PUSH2 0x1503 DUP4 SLOAD PUSH2 0x3741 JUMP JUMPDEST PUSH1 0x1F DUP2 GT PUSH2 0x1897 JUMPI JUMPDEST POP PUSH1 0xE0 MLOAD SWAP1 PUSH1 0x1F DUP4 GT PUSH1 0x1 EQ PUSH2 0x182C JUMPI SWAP2 DUP1 PUSH2 0x1542 SWAP3 PUSH2 0x260 SWAP7 SWAP6 SWAP5 PUSH0 SWAP3 PUSH2 0x1821 JUMPI POP POP DUP2 PUSH1 0x1 SHL SWAP2 PUSH0 NOT SWAP1 PUSH1 0x3 SHL SHR NOT AND OR SWAP1 JUMP JUMPDEST SWAP1 SSTORE JUMPDEST PUSH1 0xD PUSH1 0xA0 MLOAD ADD PUSH2 0x1568 PUSH2 0x200 DUP4 ADD MLOAD ISZERO ISZERO DUP3 SWAP1 PUSH1 0xFF DUP1 NOT DUP4 SLOAD AND SWAP2 ISZERO ISZERO AND OR SWAP1 SSTORE JUMP JUMPDEST PUSH2 0x220 DUP3 ADD MLOAD DUP2 SLOAD PUSH2 0x240 DUP5 ADD MLOAD PUSH3 0xFFFF00 NOT SWAP1 SWAP2 AND SWAP2 ISZERO ISZERO PUSH1 0x8 SHL PUSH2 0xFF00 AND SWAP2 SWAP1 SWAP2 OR SWAP1 ISZERO ISZERO PUSH1 0x10 SHL PUSH3 0xFF0000 AND OR SWAP1 SSTORE ADD MLOAD DUP1 MLOAD SWAP1 PUSH1 0x1 PUSH1 0x1 PUSH1 0x40 SHL SUB DUP3 GT PUSH2 0x180D JUMPI PUSH2 0x15BC PUSH1 0xE PUSH1 0xA0 MLOAD ADD SLOAD PUSH2 0x3741 JUMP JUMPDEST PUSH1 0x1F DUP2 GT PUSH2 0x17CB JUMPI JUMPDEST POP PUSH1 0xE0 MLOAD SWAP1 PUSH1 0x1F DUP4 GT PUSH1 0x1 EQ PUSH2 0x1731 JUMPI DUP3 PUSH2 0x1712 SWAP6 SWAP4 PUSH32 0x96C24B024629500436BE7D20631E0C8866383B9C2690B451850AFCBF992C0F45 SWAP10 SWAP11 SWAP6 SWAP4 PUSH2 0x161E SWAP4 PUSH0 SWAP3 PUSH2 0x1726 JUMPI POP POP DUP2 PUSH1 0x1 SHL SWAP2 PUSH0 NOT SWAP1 PUSH1 0x3 SHL SHR NOT AND OR SWAP1 JUMP JUMPDEST PUSH1 0xE PUSH1 0xA0 MLOAD ADD SSTORE JUMPDEST PUSH2 0x1633 PUSH1 0x24 CALLDATALOAD ADDRESS CALLER PUSH2 0x3E6D JUMP JUMPDEST PUSH1 0x9 SLOAD SWAP8 DUP9 SWAP6 DUP7 PUSH0 MSTORE PUSH1 0xA PUSH1 0xE0 MLOAD MSTORE PUSH1 0x5 PUSH1 0x40 PUSH0 KECCAK256 ADD SLOAD SWAP1 DUP8 PUSH0 MSTORE PUSH1 0xA PUSH1 0xE0 MLOAD MSTORE PUSH2 0x16D3 PUSH1 0x9 PUSH1 0x40 PUSH0 KECCAK256 ADD SLOAD SWAP3 DUP10 PUSH0 MSTORE PUSH1 0xA PUSH1 0xE0 MLOAD MSTORE PUSH2 0x16A6 PUSH1 0xA PUSH1 0x40 PUSH0 KECCAK256 ADD SLOAD SWAP6 PUSH1 0x40 MLOAD SWAP13 DUP14 SWAP13 DUP14 MSTORE CALLER DUP14 PUSH1 0xE0 MLOAD ADD MSTORE ISZERO ISZERO PUSH1 0x40 DUP14 ADD MSTORE PUSH1 0x24 CALLDATALOAD PUSH1 0x60 DUP14 ADD MSTORE PUSH2 0x200 PUSH1 0x80 DUP14 ADD MSTORE PUSH2 0x200 DUP13 ADD SWAP1 PUSH2 0x35E3 JUMP JUMPDEST SWAP1 PUSH1 0x64 CALLDATALOAD PUSH1 0xA0 DUP13 ADD MSTORE PUSH4 0xFFFFFFFF PUSH1 0x80 MLOAD AND PUSH1 0xC0 DUP13 ADD MSTORE PUSH1 0xE0 DUP12 ADD MSTORE DUP10 DUP2 SUB PUSH2 0x100 DUP12 ADD MSTORE PUSH1 0xC0 MLOAD PUSH2 0x3834 JUMP JUMPDEST SWAP6 PUSH2 0x124 CALLDATALOAD PUSH2 0x120 DUP11 ADD MSTORE PUSH1 0x3 SIGNEXTEND PUSH2 0x140 DUP10 ADD MSTORE PUSH1 0x3 SIGNEXTEND PUSH2 0x160 DUP9 ADD MSTORE PUSH2 0x180 DUP8 ADD MSTORE PUSH2 0x1A0 DUP7 ADD MSTORE ISZERO ISZERO PUSH2 0x1C0 DUP6 ADD MSTORE DUP4 DUP3 SUB PUSH2 0x1E0 DUP6 ADD MSTORE PUSH2 0x35E3 JUMP JUMPDEST SUB SWAP1 LOG1 PUSH1 0x1 PUSH1 0x7 SSTORE PUSH1 0x40 MLOAD SWAP1 DUP2 MSTORE PUSH1 0xE0 MLOAD SWAP1 RETURN JUMPDEST ADD MLOAD SWAP1 POP DUP12 DUP1 PUSH2 0x1394 JUMP JUMPDEST SWAP1 PUSH1 0xE PUSH1 0xA0 MLOAD ADD PUSH0 MSTORE PUSH1 0xE0 MLOAD PUSH0 KECCAK256 SWAP2 PUSH0 JUMPDEST PUSH1 0x1F NOT DUP6 AND DUP2 LT PUSH2 0x17B2 JUMPI POP SWAP3 PUSH32 0x96C24B024629500436BE7D20631E0C8866383B9C2690B451850AFCBF992C0F45 SWAP9 SWAP10 SWAP5 SWAP3 PUSH1 0x1 SWAP3 PUSH2 0x1712 SWAP8 SWAP6 DUP4 PUSH1 0x1F NOT DUP2 AND LT PUSH2 0x179A JUMPI JUMPDEST POP POP POP DUP2 SHL ADD PUSH1 0xE PUSH1 0xA0 MLOAD ADD SSTORE PUSH2 0x1626 JUMP JUMPDEST ADD MLOAD PUSH0 NOT PUSH1 0xF8 DUP5 PUSH1 0x3 SHL AND SHR NOT AND SWAP1 SSTORE DUP11 DUP1 DUP1 PUSH2 0x1788 JUMP JUMPDEST DUP2 DUP4 ADD MLOAD DUP5 SSTORE PUSH1 0xE0 MLOAD PUSH1 0x1 SWAP1 SWAP5 ADD SWAP4 SWAP3 DUP4 ADD SWAP3 ADD PUSH2 0x1742 JUMP JUMPDEST PUSH2 0x17FD SWAP1 PUSH1 0xE PUSH1 0xA0 MLOAD ADD PUSH0 MSTORE PUSH1 0xE0 MLOAD PUSH0 KECCAK256 PUSH1 0x1F DUP6 ADD PUSH1 0x5 SHR DUP2 ADD SWAP2 PUSH1 0xE0 MLOAD DUP7 LT PUSH2 0x1803 JUMPI JUMPDEST PUSH1 0x1F ADD PUSH1 0x5 SHR ADD SWAP1 PUSH2 0x39A2 JUMP JUMPDEST DUP9 PUSH2 0x15C5 JUMP JUMPDEST SWAP1 SWAP2 POP DUP2 SWAP1 PUSH2 0x17F0 JUMP JUMPDEST PUSH4 0x4E487B71 PUSH1 0xE0 SHL PUSH0 MSTORE PUSH1 0x41 PUSH1 0x4 MSTORE PUSH1 0x24 PUSH0 REVERT JUMPDEST ADD MLOAD SWAP1 POP DUP13 DUP1 PUSH2 0x1394 JUMP JUMPDEST SWAP1 PUSH1 0x1F NOT DUP4 AND SWAP2 DUP5 PUSH0 MSTORE PUSH1 0xE0 MLOAD PUSH0 KECCAK256 SWAP3 PUSH0 JUMPDEST DUP2 DUP2 LT PUSH2 0x187E JUMPI POP SWAP2 PUSH1 0x1 SWAP4 SWAP2 DUP6 PUSH2 0x260 SWAP9 SWAP8 SWAP7 SWAP5 LT PUSH2 0x1866 JUMPI JUMPDEST POP POP POP DUP2 SHL ADD SWAP1 SSTORE PUSH2 0x1545 JUMP JUMPDEST ADD MLOAD PUSH0 NOT PUSH1 0xF8 DUP5 PUSH1 0x3 SHL AND SHR NOT AND SWAP1 SSTORE DUP12 DUP1 DUP1 PUSH2 0x1859 JUMP JUMPDEST DUP3 DUP5 ADD MLOAD DUP6 SSTORE PUSH1 0xE0 MLOAD PUSH1 0x1 SWAP1 SWAP6 ADD SWAP5 SWAP4 DUP5 ADD SWAP4 ADD PUSH2 0x183E JUMP JUMPDEST PUSH2 0x18C3 SWAP1 DUP5 PUSH0 MSTORE PUSH1 0xE0 MLOAD PUSH0 KECCAK256 PUSH1 0x1F DUP6 ADD PUSH1 0x5 SHR DUP2 ADD SWAP2 PUSH1 0xE0 MLOAD DUP7 LT PUSH2 0x1803 JUMPI PUSH1 0x1F ADD PUSH1 0x5 SHR ADD SWAP1 PUSH2 0x39A2 JUMP JUMPDEST DUP11 PUSH2 0x150C JUMP JUMPDEST DUP1 MLOAD DUP1 MLOAD SWAP1 PUSH1 0x1 PUSH1 0x1 PUSH1 0x40 SHL SUB DUP3 GT PUSH2 0x180D JUMPI PUSH2 0x18E6 DUP7 SLOAD PUSH2 0x3741 JUMP JUMPDEST PUSH1 0x1F DUP2 GT PUSH2 0x19AE JUMPI JUMPDEST POP PUSH1 0xE0 MLOAD SWAP1 PUSH1 0x1F DUP4 GT PUSH1 0x1 EQ PUSH2 0x1942 JUMPI DUP3 PUSH1 0x1 SWAP5 SWAP3 SWAP4 DUP6 SWAP5 PUSH2 0x1925 SWAP4 PUSH0 SWAP3 PUSH2 0x1937 JUMPI POP POP DUP2 PUSH1 0x1 SHL SWAP2 PUSH0 NOT SWAP1 PUSH1 0x3 SHL SHR NOT AND OR SWAP1 JUMP JUMPDEST DUP7 SSTORE JUMPDEST PUSH1 0xE0 MLOAD ADD SWAP5 ADD SWAP2 ADD SWAP1 SWAP3 PUSH2 0x1423 JUMP JUMPDEST ADD MLOAD SWAP1 POP PUSH0 DUP1 PUSH2 0x1394 JUMP JUMPDEST SWAP1 DUP7 PUSH0 MSTORE PUSH1 0xE0 MLOAD PUSH0 KECCAK256 SWAP2 PUSH0 JUMPDEST PUSH1 0x1F NOT DUP6 AND DUP2 LT PUSH2 0x1995 JUMPI POP SWAP3 PUSH1 0x1 SWAP5 SWAP3 DUP6 SWAP5 SWAP3 DUP6 SWAP4 DUP4 PUSH1 0x1F NOT DUP2 AND LT PUSH2 0x197D JUMPI JUMPDEST POP POP POP DUP2 SHL ADD DUP7 SSTORE PUSH2 0x1928 JUMP JUMPDEST ADD MLOAD PUSH0 NOT PUSH1 0xF8 DUP5 PUSH1 0x3 SHL AND SHR NOT AND SWAP1 SSTORE DUP16 DUP1 DUP1 PUSH2 0x1970 JUMP JUMPDEST DUP2 DUP4 ADD MLOAD DUP5 SSTORE PUSH1 0xE0 MLOAD PUSH1 0x1 SWAP1 SWAP5 ADD SWAP4 SWAP3 DUP4 ADD SWAP3 ADD PUSH2 0x194E JUMP JUMPDEST PUSH2 0x19DA SWAP1 DUP8 PUSH0 MSTORE PUSH1 0xE0 MLOAD PUSH0 KECCAK256 PUSH1 0x1F DUP6 ADD PUSH1 0x5 SHR DUP2 ADD SWAP2 PUSH1 0xE0 MLOAD DUP7 LT PUSH2 0x1803 JUMPI PUSH1 0x1F ADD PUSH1 0x5 SHR ADD SWAP1 PUSH2 0x39A2 JUMP JUMPDEST DUP14 PUSH2 0x18EF JUMP JUMPDEST PUSH1 0x6 PUSH1 0xA0 MLOAD ADD PUSH0 MSTORE PUSH1 0xE0 MLOAD PUSH0 KECCAK256 SWAP1 DUP4 DUP3 ADD JUMPDEST DUP2 DUP4 ADD DUP2 LT PUSH2 0x1A02 JUMPI POP POP PUSH2 0x140C JUMP JUMPDEST DUP1 PUSH2 0x1A0E PUSH1 0x1 SWAP3 PUSH2 0x3C9C JUMP JUMPDEST ADD PUSH2 0x19F2 JUMP JUMPDEST ADD MLOAD SWAP1 POP DUP11 DUP1 PUSH2 0x1394 JUMP JUMPDEST SWAP2 SWAP1 PUSH1 0x2 PUSH1 0xA0 MLOAD ADD PUSH0 MSTORE PUSH1 0xE0 MLOAD PUSH0 KECCAK256 SWAP1 PUSH0 SWAP4 JUMPDEST PUSH1 0x1F NOT DUP5 AND DUP6 LT PUSH2 0x1A77 JUMPI PUSH1 0x1 SWAP5 POP DUP4 PUSH1 0x1F NOT DUP2 AND LT PUSH2 0x1A5F JUMPI JUMPDEST POP POP POP DUP2 SHL ADD PUSH1 0x2 PUSH1 0xA0 MLOAD ADD SSTORE PUSH2 0x13B0 JUMP JUMPDEST ADD MLOAD PUSH0 NOT PUSH1 0xF8 DUP5 PUSH1 0x3 SHL AND SHR NOT AND SWAP1 SSTORE DUP10 DUP1 DUP1 PUSH2 0x1A4D JUMP JUMPDEST DUP2 DUP2 ADD MLOAD DUP4 SSTORE PUSH1 0xE0 MLOAD SWAP5 DUP6 ADD SWAP5 PUSH1 0x1 SWAP1 SWAP4 ADD SWAP3 SWAP1 SWAP2 ADD SWAP1 PUSH2 0x1A32 JUMP JUMPDEST PUSH2 0x1AC4 SWAP1 PUSH1 0x2 PUSH1 0xA0 MLOAD ADD PUSH0 MSTORE PUSH1 0xE0 MLOAD PUSH0 KECCAK256 PUSH1 0x1F DUP6 ADD PUSH1 0x5 SHR DUP2 ADD SWAP2 PUSH1 0xE0 MLOAD DUP7 LT PUSH2 0x1803 JUMPI PUSH1 0x1F ADD PUSH1 0x5 SHR ADD SWAP1 PUSH2 0x39A2 JUMP JUMPDEST DUP10 PUSH2 0x1377 JUMP JUMPDEST PUSH1 0x40 MLOAD PUSH3 0x461BCD PUSH1 0xE5 SHL DUP2 MSTORE PUSH1 0x20 PUSH1 0x4 DUP3 ADD MSTORE PUSH1 0x28 PUSH1 0x24 DUP3 ADD MSTORE PUSH32 0x436F6E74726163742063616E6E6F74206F70656E2061667465722064656C6976 PUSH1 0x44 DUP3 ADD MSTORE PUSH8 0x6572792064617465 PUSH1 0xC0 SHL PUSH1 0x64 DUP3 ADD MSTORE PUSH1 0x84 SWAP1 REVERT JUMPDEST PUSH1 0x40 MLOAD PUSH3 0x461BCD PUSH1 0xE5 SHL DUP2 MSTORE PUSH1 0x20 PUSH1 0x4 DUP3 ADD MSTORE PUSH1 0x1B PUSH1 0x24 DUP3 ADD MSTORE PUSH32 0x496E636F7272656374206372656174696F6E206665652073656E740000000000 PUSH1 0x44 DUP3 ADD MSTORE PUSH1 0x64 SWAP1 REVERT JUMPDEST DUP4 CALLDATALOAD PUSH1 0x1 PUSH1 0x1 PUSH1 0x40 SHL SUB DUP2 GT PUSH2 0x313 JUMPI PUSH1 0x20 SWAP2 PUSH2 0x1B89 DUP4 SWAP3 PUSH1 0x24 CALLDATASIZE SWAP2 DUP8 ADD ADD PUSH2 0x36DC JUMP JUMPDEST DUP2 MSTORE ADD SWAP4 ADD SWAP3 PUSH2 0x115B JUMP JUMPDEST CALLVALUE PUSH2 0x313 JUMPI PUSH1 0x20 CALLDATASIZE PUSH1 0x3 NOT ADD SLT PUSH2 0x313 JUMPI PUSH1 0x4 CALLDATALOAD PUSH0 MSTORE PUSH1 0xA PUSH1 0x20 MSTORE PUSH1 0x20 PUSH1 0x3 PUSH1 0x40 PUSH0 KECCAK256 ADD SLOAD PUSH1 0x40 MLOAD SWAP1 DUP2 MSTORE RETURN JUMPDEST CALLVALUE PUSH2 0x313 JUMPI PUSH0 CALLDATASIZE PUSH1 0x3 NOT ADD SLT PUSH2 0x313 JUMPI PUSH1 0x40 MLOAD PUSH0 PUSH1 0x1 SLOAD PUSH2 0x1BE1 DUP2 PUSH2 0x3741 JUMP JUMPDEST DUP1 DUP5 MSTORE SWAP1 PUSH1 0x1 DUP2 AND SWAP1 DUP2 ISZERO PUSH2 0x1C67 JUMPI POP PUSH1 0x1 EQ PUSH2 0x1C09 JUMPI JUMPDEST PUSH2 0x4A4 DUP4 PUSH2 0x490 DUP2 DUP6 SUB DUP3 PUSH2 0x366A JUMP JUMPDEST PUSH1 0x1 PUSH0 SWAP1 DUP2 MSTORE PUSH32 0xB10E2D527612073B26EECDFD717E6A320CF44B4AFAC2B0732D9FCBE2B7FA0CF6 SWAP4 SWAP3 POP SWAP1 JUMPDEST DUP1 DUP3 LT PUSH2 0x1C4D JUMPI POP SWAP1 SWAP2 POP DUP2 ADD PUSH1 0x20 ADD PUSH2 0x490 PUSH2 0x1BF9 JUMP JUMPDEST SWAP2 SWAP3 PUSH1 0x1 DUP2 PUSH1 0x20 SWAP3 SLOAD DUP4 DUP6 DUP9 ADD ADD MSTORE ADD SWAP2 ADD SWAP1 SWAP3 SWAP2 PUSH2 0x1C35 JUMP JUMPDEST PUSH1 0xFF NOT AND PUSH1 0x20 DUP1 DUP7 ADD SWAP2 SWAP1 SWAP2 MSTORE SWAP2 ISZERO ISZERO PUSH1 0x5 SHL DUP5 ADD SWAP1 SWAP2 ADD SWAP2 POP PUSH2 0x490 SWAP1 POP PUSH2 0x1BF9 JUMP JUMPDEST CALLVALUE PUSH2 0x313 JUMPI PUSH0 CALLDATASIZE PUSH1 0x3 NOT ADD SLT PUSH2 0x313 JUMPI PUSH1 0x20 PUSH1 0x9 SLOAD PUSH1 0x40 MLOAD SWAP1 DUP2 MSTORE RETURN JUMPDEST PUSH2 0x37FA JUMP JUMPDEST CALLVALUE PUSH2 0x313 JUMPI PUSH1 0x20 CALLDATASIZE PUSH1 0x3 NOT ADD SLT PUSH2 0x313 JUMPI PUSH1 0x4 CALLDATALOAD PUSH0 MSTORE PUSH1 0xA PUSH1 0x20 MSTORE PUSH2 0x4A4 PUSH2 0x1CDA PUSH1 0x6 PUSH1 0x40 PUSH0 KECCAK256 ADD PUSH2 0x3C2C JUMP JUMPDEST PUSH1 0x40 MLOAD SWAP2 DUP3 SWAP2 PUSH1 0x20 DUP4 MSTORE PUSH1 0x20 DUP4 ADD SWAP1 PUSH2 0x3834 JUMP JUMPDEST CALLVALUE PUSH2 0x313 JUMPI PUSH2 0x1CFC CALLDATASIZE PUSH2 0x388C JUMP JUMPDEST SWAP1 PUSH0 MSTORE PUSH1 0xB PUSH1 0x20 MSTORE PUSH1 0x40 PUSH0 KECCAK256 SWAP1 DUP2 SLOAD DUP2 LT ISZERO PUSH2 0x313 JUMPI PUSH2 0x1D1B SWAP2 PUSH2 0x38C8 JUMP JUMPDEST POP PUSH1 0x1 DUP1 PUSH1 0xA0 SHL SUB DUP2 SLOAD AND PUSH2 0x4A4 PUSH1 0x2 PUSH2 0x1D44 PUSH1 0x1 DUP6 ADD SLOAD SWAP5 PUSH2 0x489 PUSH1 0x40 MLOAD DUP1 SWAP5 DUP2 SWAP4 ADD PUSH2 0x3779 JUMP JUMPDEST PUSH1 0x40 MLOAD SWAP4 DUP5 SWAP4 DUP5 MSTORE PUSH1 0x20 DUP5 ADD MSTORE PUSH1 0x60 PUSH1 0x40 DUP5 ADD MSTORE PUSH1 0x60 DUP4 ADD SWAP1 PUSH2 0x35E3 JUMP JUMPDEST CALLVALUE PUSH2 0x313 JUMPI PUSH1 0x20 CALLDATASIZE PUSH1 0x3 NOT ADD SLT PUSH2 0x313 JUMPI PUSH1 0x4 CALLDATALOAD PUSH0 MSTORE PUSH1 0xA PUSH1 0x20 MSTORE PUSH1 0x20 PUSH1 0xFF PUSH1 0xD PUSH1 0x40 PUSH0 KECCAK256 ADD SLOAD AND PUSH1 0x40 MLOAD SWAP1 ISZERO ISZERO DUP2 MSTORE RETURN JUMPDEST CALLVALUE PUSH2 0x313 JUMPI PUSH0 CALLDATASIZE PUSH1 0x3 NOT ADD SLT PUSH2 0x313 JUMPI PUSH1 0x20 PUSH1 0x40 MLOAD PUSH32 0x0 DUP2 MSTORE RETURN JUMPDEST CALLVALUE PUSH2 0x313 JUMPI PUSH1 0x20 CALLDATASIZE PUSH1 0x3 NOT ADD SLT PUSH2 0x313 JUMPI PUSH1 0x1 PUSH1 0x1 PUSH1 0xA0 SHL SUB PUSH2 0x1DEF PUSH2 0x3607 JUMP JUMPDEST AND DUP1 ISZERO PUSH2 0x1E0C JUMPI PUSH0 MSTORE PUSH1 0x3 PUSH1 0x20 MSTORE PUSH1 0x20 PUSH1 0x40 PUSH0 KECCAK256 SLOAD PUSH1 0x40 MLOAD SWAP1 DUP2 MSTORE RETURN JUMPDEST PUSH4 0x22718AD9 PUSH1 0xE2 SHL PUSH0 MSTORE PUSH0 PUSH1 0x4 MSTORE PUSH1 0x24 PUSH0 REVERT JUMPDEST CALLVALUE PUSH2 0x313 JUMPI PUSH1 0x20 CALLDATASIZE PUSH1 0x3 NOT ADD SLT PUSH2 0x313 JUMPI PUSH1 0x60 PUSH2 0x260 PUSH1 0x40 MLOAD PUSH2 0x1E41 DUP2 PUSH2 0x364E JUMP JUMPDEST PUSH0 DUP2 MSTORE PUSH0 PUSH1 0x20 DUP3 ADD MSTORE PUSH0 PUSH1 0x40 DUP3 ADD MSTORE DUP3 DUP1 DUP3 ADD MSTORE PUSH0 PUSH1 0x80 DUP3 ADD MSTORE PUSH0 PUSH1 0xA0 DUP3 ADD MSTORE PUSH0 PUSH1 0xC0 DUP3 ADD MSTORE DUP3 PUSH1 0xE0 DUP3 ADD MSTORE PUSH0 PUSH2 0x100 DUP3 ADD MSTORE PUSH0 PUSH2 0x120 DUP3 ADD MSTORE PUSH0 PUSH2 0x140 DUP3 ADD MSTORE PUSH0 PUSH2 0x160 DUP3 ADD MSTORE PUSH0 PUSH2 0x180 DUP3 ADD MSTORE PUSH0 PUSH2 0x1A0 DUP3 ADD MSTORE PUSH0 PUSH2 0x1C0 DUP3 ADD MSTORE DUP3 PUSH2 0x1E0 DUP3 ADD MSTORE PUSH0 PUSH2 0x200 DUP3 ADD MSTORE PUSH0 PUSH2 0x220 DUP3 ADD MSTORE PUSH0 PUSH2 0x240 DUP3 ADD MSTORE ADD MSTORE PUSH1 0x4 CALLDATALOAD PUSH0 MSTORE PUSH1 0xA PUSH1 0x20 MSTORE PUSH1 0x40 PUSH0 KECCAK256 PUSH1 0x40 MLOAD PUSH2 0x1ED6 DUP2 PUSH2 0x364E JUMP JUMPDEST DUP2 SLOAD PUSH1 0x1 PUSH1 0x1 PUSH1 0xA0 SHL SUB DUP2 AND DUP3 MSTORE PUSH1 0xA0 SHR PUSH1 0xFF AND ISZERO ISZERO PUSH1 0x20 DUP3 ADD MSTORE PUSH1 0x1 DUP3 ADD SLOAD PUSH1 0x40 DUP1 DUP4 ADD SWAP2 SWAP1 SWAP2 MSTORE MLOAD PUSH2 0x1F11 DUP2 PUSH2 0x489 DUP2 PUSH1 0x2 DUP8 ADD PUSH2 0x3779 JUMP JUMPDEST PUSH1 0x60 DUP3 ADD MSTORE PUSH1 0x3 DUP3 ADD SLOAD PUSH1 0x80 DUP3 ADD MSTORE PUSH4 0xFFFFFFFF PUSH1 0x4 DUP4 ADD SLOAD AND PUSH1 0xA0 DUP3 ADD MSTORE PUSH1 0x5 DUP3 ADD SLOAD PUSH1 0xC0 DUP3 ADD MSTORE PUSH2 0x1F46 PUSH1 0x6 DUP4 ADD PUSH2 0x3C2C JUMP JUMPDEST PUSH1 0xE0 DUP3 ADD MSTORE PUSH1 0x7 DUP3 ADD SLOAD PUSH2 0x100 DUP3 ADD MSTORE PUSH1 0x8 DUP3 ADD SLOAD PUSH1 0xFF DUP2 AND PUSH1 0x5 DUP2 LT ISZERO PUSH2 0x828 JUMPI PUSH2 0x4A4 SWAP4 PUSH1 0xE SWAP3 PUSH2 0x2011 SWAP3 PUSH2 0x120 DUP7 ADD MSTORE DUP1 PUSH1 0x8 SHR PUSH1 0x3 SIGNEXTEND PUSH2 0x140 DUP7 ADD MSTORE PUSH1 0x28 SHR PUSH1 0x3 SIGNEXTEND PUSH2 0x160 DUP6 ADD MSTORE PUSH1 0x9 DUP2 ADD SLOAD PUSH2 0x180 DUP6 ADD MSTORE PUSH1 0xA DUP2 ADD SLOAD PUSH2 0x1A0 DUP6 ADD MSTORE PUSH1 0x1 DUP1 PUSH1 0xA0 SHL SUB PUSH1 0xB DUP3 ADD SLOAD AND PUSH2 0x1C0 DUP6 ADD MSTORE PUSH1 0x40 MLOAD PUSH2 0x1FCF DUP2 PUSH2 0x489 DUP2 PUSH1 0xC DUP7 ADD PUSH2 0x3779 JUMP JUMPDEST PUSH2 0x1E0 DUP6 ADD MSTORE PUSH1 0xFF PUSH1 0xD DUP3 ADD SLOAD DUP2 DUP2 AND ISZERO ISZERO PUSH2 0x200 DUP8 ADD MSTORE DUP2 DUP2 PUSH1 0x8 SHR AND ISZERO ISZERO PUSH2 0x220 DUP8 ADD MSTORE PUSH1 0x10 SHR AND ISZERO ISZERO PUSH2 0x240 DUP6 ADD MSTORE PUSH2 0x489 PUSH1 0x40 MLOAD DUP1 SWAP5 DUP2 SWAP4 ADD PUSH2 0x3779 JUMP JUMPDEST PUSH2 0x260 DUP3 ADD MSTORE PUSH1 0x40 MLOAD SWAP2 DUP3 SWAP2 PUSH1 0x20 DUP4 MSTORE PUSH1 0x1 DUP1 PUSH1 0xA0 SHL SUB DUP2 MLOAD AND PUSH1 0x20 DUP5 ADD MSTORE PUSH1 0x20 DUP2 ADD MLOAD ISZERO ISZERO PUSH1 0x40 DUP5 ADD MSTORE PUSH1 0x40 DUP2 ADD MLOAD PUSH1 0x60 DUP5 ADD MSTORE PUSH2 0x260 PUSH2 0x2127 PUSH2 0x20A5 PUSH2 0x206A PUSH1 0x60 DUP6 ADD MLOAD PUSH2 0x280 PUSH1 0x80 DUP10 ADD MSTORE PUSH2 0x2A0 DUP9 ADD SWAP1 PUSH2 0x35E3 JUMP JUMPDEST PUSH1 0x80 DUP6 ADD MLOAD PUSH1 0xA0 DUP9 ADD MSTORE PUSH4 0xFFFFFFFF PUSH1 0xA0 DUP7 ADD MLOAD AND PUSH1 0xC0 DUP9 ADD MSTORE PUSH1 0xC0 DUP6 ADD MLOAD PUSH1 0xE0 DUP9 ADD MSTORE PUSH1 0xE0 DUP6 ADD MLOAD PUSH1 0x1F NOT DUP9 DUP4 SUB ADD PUSH2 0x100 DUP10 ADD MSTORE PUSH2 0x3834 JUMP JUMPDEST PUSH2 0x100 DUP5 ADD MLOAD PUSH2 0x120 DUP8 ADD MSTORE PUSH2 0x20C5 PUSH2 0x120 DUP6 ADD MLOAD PUSH2 0x140 DUP9 ADD SWAP1 PUSH2 0x36FA JUMP JUMPDEST PUSH2 0x140 DUP5 ADD MLOAD PUSH1 0x3 SIGNEXTEND PUSH2 0x160 DUP8 ADD MSTORE PUSH2 0x160 DUP5 ADD MLOAD PUSH1 0x3 SIGNEXTEND PUSH2 0x180 DUP8 ADD MSTORE PUSH2 0x180 DUP5 ADD MLOAD PUSH2 0x1A0 DUP8 ADD MSTORE PUSH2 0x1A0 DUP5 ADD MLOAD PUSH2 0x1C0 DUP8 ADD MSTORE PUSH1 0x1 DUP1 PUSH1 0xA0 SHL SUB PUSH2 0x1C0 DUP6 ADD MLOAD AND PUSH2 0x1E0 DUP8 ADD MSTORE PUSH2 0x1E0 DUP5 ADD MLOAD PUSH1 0x1F NOT DUP8 DUP4 SUB ADD PUSH2 0x200 DUP9 ADD MSTORE PUSH2 0x35E3 JUMP JUMPDEST SWAP2 PUSH2 0x200 DUP2 ADD MLOAD ISZERO ISZERO PUSH2 0x220 DUP7 ADD MSTORE PUSH2 0x220 DUP2 ADD MLOAD ISZERO ISZERO PUSH2 0x240 DUP7 ADD MSTORE PUSH2 0x240 DUP2 ADD MLOAD ISZERO ISZERO DUP3 DUP7 ADD MSTORE ADD MLOAD PUSH1 0x1F NOT DUP5 DUP4 SUB ADD PUSH2 0x280 DUP6 ADD MSTORE PUSH2 0x35E3 JUMP JUMPDEST CALLVALUE PUSH2 0x313 JUMPI PUSH1 0x20 CALLDATASIZE PUSH1 0x3 NOT ADD SLT PUSH2 0x313 JUMPI PUSH1 0x20 PUSH2 0x2182 PUSH1 0x4 CALLDATALOAD PUSH2 0x3D24 JUMP JUMPDEST PUSH1 0x40 MLOAD PUSH1 0x1 PUSH1 0x1 PUSH1 0xA0 SHL SUB SWAP1 SWAP2 AND DUP2 MSTORE RETURN JUMPDEST CALLVALUE PUSH2 0x313 JUMPI PUSH1 0x20 CALLDATASIZE PUSH1 0x3 NOT ADD SLT PUSH2 0x313 JUMPI PUSH1 0x4 CALLDATALOAD PUSH0 MSTORE PUSH1 0xA PUSH1 0x20 MSTORE PUSH1 0x20 PUSH1 0x7 PUSH1 0x40 PUSH0 KECCAK256 ADD SLOAD PUSH1 0x40 MLOAD SWAP1 DUP2 MSTORE RETURN JUMPDEST CALLVALUE PUSH2 0x313 JUMPI PUSH1 0x20 CALLDATASIZE PUSH1 0x3 NOT ADD SLT PUSH2 0x313 JUMPI PUSH1 0x4 CALLDATALOAD PUSH0 MSTORE PUSH1 0xA PUSH1 0x20 MSTORE PUSH1 0x20 PUSH1 0xFF PUSH1 0xD PUSH1 0x40 PUSH0 KECCAK256 ADD SLOAD PUSH1 0x8 SHR AND PUSH1 0x40 MLOAD SWAP1 ISZERO ISZERO DUP2 MSTORE RETURN JUMPDEST CALLVALUE PUSH2 0x313 JUMPI PUSH1 0x20 CALLDATASIZE PUSH1 0x3 NOT ADD SLT PUSH2 0x313 JUMPI PUSH1 0x4 CALLDATALOAD PUSH0 MSTORE PUSH1 0xA PUSH1 0x20 MSTORE PUSH1 0x40 PUSH0 KECCAK256 DUP1 SLOAD PUSH1 0x1 DUP3 ADD SLOAD SWAP2 PUSH1 0x40 MLOAD DUP1 DUP1 PUSH1 0x2 DUP5 ADD SWAP1 PUSH2 0x2230 SWAP2 PUSH2 0x3779 JUMP JUMPDEST SUB PUSH2 0x223B SWAP1 DUP3 PUSH2 0x366A JUMP JUMPDEST PUSH1 0x3 DUP3 ADD SLOAD PUSH1 0x4 DUP4 ADD SLOAD PUSH4 0xFFFFFFFF AND SWAP1 PUSH1 0x5 DUP5 ADD SLOAD PUSH1 0x7 DUP6 ADD SLOAD PUSH1 0x8 DUP7 ADD SLOAD PUSH1 0x9 DUP8 ADD SLOAD SWAP1 PUSH1 0xA DUP9 ADD SLOAD SWAP3 PUSH1 0x1 PUSH1 0xA0 SHL PUSH1 0x1 SWAP1 SUB PUSH1 0xB DUP11 ADD SLOAD AND SWAP5 PUSH1 0x40 MLOAD SWAP8 DUP9 DUP1 PUSH1 0xC DUP14 ADD SWAP1 PUSH2 0x228B SWAP2 PUSH2 0x3779 JUMP JUMPDEST SUB PUSH2 0x2296 SWAP1 DUP11 PUSH2 0x366A JUMP JUMPDEST PUSH1 0xD DUP12 ADD SLOAD SWAP10 PUSH1 0x40 MLOAD DUP1 PUSH1 0xE DUP2 SWAP15 ADD SWAP1 PUSH2 0x22AF SWAP2 PUSH2 0x3779 JUMP JUMPDEST SUB PUSH2 0x22BA SWAP1 DUP14 PUSH2 0x366A JUMP JUMPDEST PUSH1 0x40 MLOAD SWAP14 DUP15 DUP1 SWAP15 PUSH1 0x1 PUSH1 0xA0 SHL PUSH1 0x1 SWAP1 SUB DUP2 AND DUP3 MSTORE PUSH1 0xA0 SHR PUSH1 0xFF AND ISZERO ISZERO PUSH1 0x20 DUP3 ADD MSTORE PUSH1 0x40 ADD MSTORE PUSH1 0x60 DUP14 ADD PUSH2 0x260 SWAP1 MSTORE PUSH2 0x260 DUP14 ADD PUSH2 0x22F6 SWAP2 PUSH2 0x35E3 JUMP JUMPDEST SWAP8 PUSH1 0x80 DUP14 ADD MSTORE PUSH1 0xA0 DUP13 ADD MSTORE PUSH1 0xC0 DUP12 ADD MSTORE PUSH1 0xE0 DUP11 ADD MSTORE PUSH2 0x100 DUP10 ADD PUSH1 0xFF DUP3 AND SWAP1 PUSH2 0x231E SWAP2 PUSH2 0x36FA JUMP JUMPDEST DUP1 PUSH1 0x8 SHR PUSH1 0x3 SIGNEXTEND PUSH2 0x120 DUP11 ADD MSTORE PUSH1 0x28 SHR PUSH1 0x3 SIGNEXTEND PUSH2 0x140 DUP10 ADD MSTORE PUSH2 0x160 DUP9 ADD MSTORE PUSH2 0x180 DUP8 ADD MSTORE PUSH2 0x1A0 DUP7 ADD MSTORE DUP5 DUP2 SUB PUSH2 0x1C0 DUP7 ADD MSTORE PUSH2 0x235B SWAP2 PUSH2 0x35E3 JUMP JUMPDEST SWAP1 PUSH1 0xFF DUP2 AND ISZERO ISZERO PUSH2 0x1E0 DUP6 ADD MSTORE DUP1 PUSH1 0x8 SHR PUSH1 0xFF AND ISZERO ISZERO PUSH2 0x200 DUP6 ADD MSTORE PUSH1 0x10 SHR PUSH1 0xFF AND ISZERO ISZERO PUSH2 0x220 DUP5 ADD MSTORE DUP3 DUP2 SUB PUSH2 0x240 DUP5 ADD MSTORE PUSH2 0x4A4 SWAP2 PUSH2 0x35E3 JUMP JUMPDEST CALLVALUE PUSH2 0x313 JUMPI PUSH2 0xCCB PUSH2 0x23A8 CALLDATASIZE PUSH2 0x3707 JUMP JUMPDEST SWAP1 PUSH1 0x40 MLOAD SWAP3 PUSH2 0x23B8 PUSH1 0x20 DUP6 PUSH2 0x366A JUMP JUMPDEST PUSH0 DUP5 MSTORE PUSH2 0xCC6 DUP4 DUP4 DUP4 PUSH2 0x3A03 JUMP JUMPDEST CALLVALUE PUSH2 0x313 JUMPI PUSH1 0x20 CALLDATASIZE PUSH1 0x3 NOT ADD SLT PUSH2 0x313 JUMPI PUSH1 0x4 CALLDATALOAD PUSH0 MSTORE PUSH1 0xA PUSH1 0x20 MSTORE PUSH1 0x20 PUSH1 0xFF PUSH1 0x40 PUSH0 KECCAK256 SLOAD PUSH1 0xA0 SHR AND PUSH1 0x40 MLOAD SWAP1 ISZERO ISZERO DUP2 MSTORE RETURN JUMPDEST CALLVALUE PUSH2 0x313 JUMPI PUSH1 0x20 CALLDATASIZE PUSH1 0x3 NOT ADD SLT PUSH2 0x313 JUMPI PUSH1 0x4 CALLDATALOAD PUSH0 MSTORE PUSH1 0xA PUSH1 0x20 MSTORE PUSH2 0x4A4 PUSH2 0x489 PUSH2 0x490 PUSH1 0xE PUSH1 0x40 PUSH0 KECCAK256 ADD PUSH1 0x40 MLOAD SWAP3 DUP4 DUP1 SWAP3 PUSH2 0x3779 JUMP JUMPDEST CALLVALUE PUSH2 0x313 JUMPI PUSH1 0x20 CALLDATASIZE PUSH1 0x3 NOT ADD SLT PUSH2 0x313 JUMPI PUSH1 0x4 CALLDATALOAD PUSH0 MSTORE PUSH1 0xA PUSH1 0x20 MSTORE PUSH1 0x20 PUSH1 0xA PUSH1 0x40 PUSH0 KECCAK256 ADD SLOAD PUSH1 0x40 MLOAD SWAP1 DUP2 MSTORE RETURN JUMPDEST CALLVALUE PUSH2 0x313 JUMPI PUSH1 0x20 CALLDATASIZE PUSH1 0x3 NOT ADD SLT PUSH2 0x313 JUMPI PUSH1 0x4 CALLDATALOAD PUSH0 MSTORE PUSH1 0xA PUSH1 0x20 MSTORE PUSH2 0x4A4 PUSH2 0x489 PUSH2 0x490 PUSH1 0x2 PUSH1 0x40 PUSH0 KECCAK256 ADD PUSH1 0x40 MLOAD SWAP3 DUP4 DUP1 SWAP3 PUSH2 0x3779 JUMP JUMPDEST PUSH1 0x40 CALLDATASIZE PUSH1 0x3 NOT ADD SLT PUSH2 0x313 JUMPI PUSH1 0x4 CALLDATALOAD PUSH1 0x24 CALLDATALOAD PUSH1 0x1 PUSH1 0x1 PUSH1 0x40 SHL SUB DUP2 GT PUSH2 0x313 JUMPI PUSH2 0x24C1 SWAP1 CALLDATASIZE SWAP1 PUSH1 0x4 ADD PUSH2 0x36DC JUMP JUMPDEST DUP2 PUSH0 MSTORE PUSH1 0xA PUSH1 0x20 MSTORE PUSH1 0x1 DUP1 PUSH1 0xA0 SHL SUB PUSH1 0x40 PUSH0 KECCAK256 SLOAD AND CALLER EQ DUP1 ISZERO PUSH2 0x2BA1 JUMPI JUMPDEST PUSH2 0x24E8 SWAP1 PUSH2 0x3B8B JUMP JUMPDEST PUSH2 0x24F0 PUSH2 0x3D58 JUMP JUMPDEST DUP2 PUSH0 MSTORE PUSH1 0xA PUSH1 0x20 MSTORE PUSH1 0x40 PUSH0 KECCAK256 SWAP2 PUSH1 0x8 DUP4 ADD PUSH1 0xFF DUP2 SLOAD AND PUSH1 0x5 DUP2 LT ISZERO PUSH2 0x828 JUMPI DUP1 ISZERO SWAP1 DUP2 ISZERO PUSH2 0x2B96 JUMPI JUMPDEST POP ISZERO PUSH2 0x2B38 JUMPI DUP4 SLOAD PUSH1 0x1 PUSH1 0x1 PUSH1 0xA0 SHL SUB AND CALLER SUB PUSH2 0x2987 JUMPI PUSH1 0x40 MLOAD PUSH32 0x43726561746F722063616E63656C6C65642074686520636F6E74726163742E0A PUSH1 0x20 DUP3 ADD MSTORE PUSH18 0x2932B0B9B7B71036B2B73A34B7B732B21D1 PUSH1 0x75 SHL PUSH1 0x40 DUP3 ADD MSTORE PUSH2 0x259B PUSH1 0x52 DUP3 DUP7 MLOAD DUP1 PUSH1 0x20 DUP10 ADD DUP5 DUP5 ADD MCOPY DUP2 ADD PUSH0 DUP4 DUP3 ADD MSTORE SUB ADD PUSH1 0x1F NOT DUP2 ADD DUP4 MSTORE DUP3 PUSH2 0x366A JUMP JUMPDEST DUP1 MLOAD PUSH1 0xC DUP7 ADD SWAP2 PUSH1 0x1 PUSH1 0x1 PUSH1 0x40 SHL SUB DUP3 GT PUSH2 0x180D JUMPI PUSH2 0x25BA DUP4 SLOAD PUSH2 0x3741 JUMP JUMPDEST PUSH1 0x1F DUP2 GT PUSH2 0x2957 JUMPI JUMPDEST POP PUSH1 0x20 SWAP1 PUSH1 0x1F DUP4 GT PUSH1 0x1 EQ PUSH2 0x28F4 JUMPI PUSH2 0x25F2 SWAP3 SWAP2 PUSH0 SWAP2 DUP4 PUSH2 0x28E9 JUMPI POP POP DUP2 PUSH1 0x1 SHL SWAP2 PUSH0 NOT SWAP1 PUSH1 0x3 SHL SHR NOT AND OR SWAP1 JUMP JUMPDEST SWAP1 SSTORE JUMPDEST DUP1 SLOAD PUSH1 0xFF NOT AND PUSH1 0x4 OR DUP2 SSTORE DUP4 SLOAD PUSH0 SWAP1 DUP2 SWAP1 DUP2 SWAP1 DUP2 SWAP1 PUSH32 0x0 SWAP1 PUSH1 0x1 PUSH1 0x1 PUSH1 0xA0 SHL SUB AND GAS CALL PUSH2 0x263F PUSH2 0x3BFD JUMP JUMPDEST POP ISZERO PUSH2 0x288D JUMPI SLOAD PUSH1 0xFF AND PUSH1 0x5 DUP2 LT ISZERO PUSH2 0x828 JUMPI PUSH1 0x1 EQ PUSH2 0x26FC JUMPI JUMPDEST DUP3 PUSH32 0xDA5B2A53D65DCC2A3312E7142252E98FD5B01334D00B605AAADC13C8D922B229 SWAP4 SLOAD PUSH1 0xFF DUP2 PUSH1 0xA0 SHR AND PUSH0 EQ PUSH2 0x26DD JUMPI POP PUSH1 0xB DUP2 ADD SLOAD DUP2 SLOAD PUSH1 0x1 SWAP1 SWAP3 ADD SLOAD PUSH2 0x26B1 SWAP3 SWAP1 SWAP2 PUSH1 0x1 PUSH1 0x1 PUSH1 0xA0 SHL SUB SWAP2 DUP3 AND SWAP2 AND PUSH2 0x3E6D JUMP JUMPDEST PUSH2 0x26D3 PUSH1 0x40 MLOAD SWAP3 DUP4 SWAP3 DUP4 MSTORE CALLER PUSH1 0x20 DUP5 ADD MSTORE PUSH1 0x60 PUSH1 0x40 DUP5 ADD MSTORE PUSH1 0x60 DUP4 ADD SWAP1 PUSH2 0x35E3 JUMP JUMPDEST SUB SWAP1 LOG1 PUSH1 0x1 PUSH1 0x7 SSTORE STOP JUMPDEST PUSH1 0x1 SWAP2 SWAP1 SWAP2 ADD SLOAD PUSH2 0x26F7 SWAP2 PUSH1 0x1 PUSH1 0x1 PUSH1 0xA0 SHL SUB AND ADDRESS PUSH2 0x3E6D JUMP JUMPDEST PUSH2 0x26B1 JUMP JUMPDEST DUP3 SLOAD PUSH1 0x1 PUSH1 0x1 PUSH1 0xA0 SHL SUB DUP2 AND SWAP1 CALLER DUP3 EQ DUP1 PUSH2 0x287F JUMPI JUMPDEST ISZERO PUSH2 0x27BB JUMPI POP POP PUSH0 DUP1 DUP1 DUP1 PUSH1 0x1 DUP1 PUSH1 0xA0 SHL SUB PUSH1 0xB DUP9 ADD SLOAD AND PUSH1 0x5 DUP9 ADD SLOAD SWAP1 GAS CALL PUSH2 0x273A PUSH2 0x3BFD JUMP JUMPDEST POP ISZERO PUSH2 0x276A JUMPI PUSH32 0xDA5B2A53D65DCC2A3312E7142252E98FD5B01334D00B605AAADC13C8D922B229 SWAP3 JUMPDEST SWAP3 POP PUSH2 0x265A JUMP JUMPDEST PUSH1 0x40 MLOAD PUSH3 0x461BCD PUSH1 0xE5 SHL DUP2 MSTORE PUSH1 0x20 PUSH1 0x4 DUP3 ADD MSTORE PUSH1 0x24 DUP1 DUP3 ADD MSTORE PUSH32 0x4661696C656420746F2072656C656173652066756E647320746F206170706C69 PUSH1 0x44 DUP3 ADD MSTORE PUSH4 0x18D85B9D PUSH1 0xE2 SHL PUSH1 0x64 DUP3 ADD MSTORE PUSH1 0x84 SWAP1 REVERT JUMPDEST PUSH1 0xB DUP6 ADD SLOAD PUSH1 0x1 PUSH1 0x1 PUSH1 0xA0 SHL SUB AND CALLER EQ SWAP1 DUP2 PUSH2 0x2871 JUMPI JUMPDEST POP PUSH2 0x2800 JUMPI JUMPDEST POP PUSH32 0xDA5B2A53D65DCC2A3312E7142252E98FD5B01334D00B605AAADC13C8D922B229 SWAP3 PUSH2 0x2763 JUMP JUMPDEST PUSH0 DUP1 DUP1 DUP1 SWAP4 PUSH1 0x5 DUP9 ADD SLOAD SWAP1 GAS CALL PUSH2 0x2815 PUSH2 0x3BFD JUMP JUMPDEST POP ISZERO PUSH2 0x2821 JUMPI DUP4 PUSH2 0x27D8 JUMP JUMPDEST PUSH1 0x40 MLOAD PUSH3 0x461BCD PUSH1 0xE5 SHL DUP2 MSTORE PUSH1 0x20 PUSH1 0x4 DUP3 ADD MSTORE PUSH1 0x22 PUSH1 0x24 DUP3 ADD MSTORE PUSH32 0x4661696C656420746F2072656C656173652066756E647320746F206372656174 PUSH1 0x44 DUP3 ADD MSTORE PUSH2 0x37B9 PUSH1 0xF1 SHL PUSH1 0x64 DUP3 ADD MSTORE PUSH1 0x84 SWAP1 REVERT JUMPDEST PUSH1 0xFF SWAP2 POP PUSH1 0xA0 SHR AND DUP6 PUSH2 0x27D2 JUMP JUMPDEST POP PUSH1 0xFF DUP2 PUSH1 0xA0 SHR AND ISZERO PUSH2 0x2712 JUMP JUMPDEST PUSH1 0x40 MLOAD PUSH3 0x461BCD PUSH1 0xE5 SHL DUP2 MSTORE PUSH1 0x20 PUSH1 0x4 DUP3 ADD MSTORE PUSH1 0x2E PUSH1 0x24 DUP3 ADD MSTORE PUSH32 0x4661696C656420746F207472616E736665722063616E63656C6C6174696F6E20 PUSH1 0x44 DUP3 ADD MSTORE PUSH14 0x3332B2903A379031B932B0BA37B9 PUSH1 0x91 SHL PUSH1 0x64 DUP3 ADD MSTORE PUSH1 0x84 SWAP1 REVERT JUMPDEST ADD MLOAD SWAP1 POP DUP9 DUP1 PUSH2 0x1394 JUMP JUMPDEST SWAP1 PUSH1 0x1F NOT DUP4 AND SWAP2 DUP5 PUSH0 MSTORE DUP2 PUSH0 KECCAK256 SWAP3 PUSH0 JUMPDEST DUP2 DUP2 LT PUSH2 0x293F JUMPI POP SWAP1 DUP5 PUSH1 0x1 SWAP6 SWAP5 SWAP4 SWAP3 LT PUSH2 0x2927 JUMPI JUMPDEST POP POP POP DUP2 SHL ADD SWAP1 SSTORE PUSH2 0x25F5 JUMP JUMPDEST ADD MLOAD PUSH0 NOT PUSH1 0xF8 DUP5 PUSH1 0x3 SHL AND SHR NOT AND SWAP1 SSTORE DUP8 DUP1 DUP1 PUSH2 0x291A JUMP JUMPDEST SWAP3 SWAP4 PUSH1 0x20 PUSH1 0x1 DUP2 SWAP3 DUP8 DUP7 ADD MLOAD DUP2 SSTORE ADD SWAP6 ADD SWAP4 ADD PUSH2 0x2904 JUMP JUMPDEST PUSH2 0x2981 SWAP1 DUP5 PUSH0 MSTORE PUSH1 0x20 PUSH0 KECCAK256 PUSH1 0x1F DUP6 ADD PUSH1 0x5 SHR DUP2 ADD SWAP2 PUSH1 0x20 DUP7 LT PUSH2 0x1803 JUMPI PUSH1 0x1F ADD PUSH1 0x5 SHR ADD SWAP1 PUSH2 0x39A2 JUMP JUMPDEST DUP8 PUSH2 0x25C3 JUMP JUMPDEST PUSH32 0x0 CALLVALUE SUB PUSH2 0x2AF3 JUMPI PUSH1 0x40 MLOAD PUSH32 0x4170706C6963616E742063616E63656C6C65642074686520636F6E7472616374 PUSH1 0x20 DUP3 ADD MSTORE PUSH20 0x17052932B0B9B7B71036B2B73A34B7B732B21D1 PUSH1 0x65 SHL PUSH1 0x40 DUP3 ADD MSTORE PUSH2 0x2A1B PUSH1 0x54 DUP3 DUP7 MLOAD DUP1 PUSH1 0x20 DUP10 ADD DUP5 DUP5 ADD MCOPY DUP2 ADD PUSH0 DUP4 DUP3 ADD MSTORE SUB ADD PUSH1 0x1F NOT DUP2 ADD DUP4 MSTORE DUP3 PUSH2 0x366A JUMP JUMPDEST DUP1 MLOAD PUSH1 0xC DUP7 ADD SWAP2 PUSH1 0x1 PUSH1 0x1 PUSH1 0x40 SHL SUB DUP3 GT PUSH2 0x180D JUMPI PUSH2 0x2A3A DUP4 SLOAD PUSH2 0x3741 JUMP JUMPDEST PUSH1 0x1F DUP2 GT PUSH2 0x2AC3 JUMPI JUMPDEST POP PUSH1 0x20 SWAP1 PUSH1 0x1F DUP4 GT PUSH1 0x1 EQ PUSH2 0x2A79 JUMPI PUSH2 0x2A72 SWAP3 SWAP2 PUSH0 SWAP2 DUP4 PUSH2 0x28E9 JUMPI POP POP DUP2 PUSH1 0x1 SHL SWAP2 PUSH0 NOT SWAP1 PUSH1 0x3 SHL SHR NOT AND OR SWAP1 JUMP JUMPDEST SWAP1 SSTORE PUSH2 0x25F5 JUMP JUMPDEST SWAP1 PUSH1 0x1F NOT DUP4 AND SWAP2 DUP5 PUSH0 MSTORE DUP2 PUSH0 KECCAK256 SWAP3 PUSH0 JUMPDEST DUP2 DUP2 LT PUSH2 0x2AAB JUMPI POP SWAP1 DUP5 PUSH1 0x1 SWAP6 SWAP5 SWAP4 SWAP3 LT PUSH2 0x2927 JUMPI POP POP POP DUP2 SHL ADD SWAP1 SSTORE PUSH2 0x25F5 JUMP JUMPDEST SWAP3 SWAP4 PUSH1 0x20 PUSH1 0x1 DUP2 SWAP3 DUP8 DUP7 ADD MLOAD DUP2 SSTORE ADD SWAP6 ADD SWAP4 ADD PUSH2 0x2A89 JUMP JUMPDEST PUSH2 0x2AED SWAP1 DUP5 PUSH0 MSTORE PUSH1 0x20 PUSH0 KECCAK256 PUSH1 0x1F DUP6 ADD PUSH1 0x5 SHR DUP2 ADD SWAP2 PUSH1 0x20 DUP7 LT PUSH2 0x1803 JUMPI PUSH1 0x1F ADD PUSH1 0x5 SHR ADD SWAP1 PUSH2 0x39A2 JUMP JUMPDEST DUP8 PUSH2 0x2A43 JUMP JUMPDEST PUSH1 0x40 MLOAD PUSH3 0x461BCD PUSH1 0xE5 SHL DUP2 MSTORE PUSH1 0x20 PUSH1 0x4 DUP3 ADD MSTORE PUSH1 0x1F PUSH1 0x24 DUP3 ADD MSTORE PUSH32 0x496E636F72726563742063616E63656C6C6174696F6E206665652073656E7400 PUSH1 0x44 DUP3 ADD MSTORE PUSH1 0x64 SWAP1 REVERT JUMPDEST PUSH1 0x40 MLOAD PUSH3 0x461BCD PUSH1 0xE5 SHL DUP2 MSTORE PUSH1 0x20 PUSH1 0x4 DUP3 ADD MSTORE PUSH1 0x30 PUSH1 0x24 DUP3 ADD MSTORE PUSH32 0x436F6E7472616374206D757374206265206F70656E206F7220616C6C6F746564 PUSH1 0x44 DUP3 ADD MSTORE PUSH16 0x81D1BC818994818D85B98D95B1B1959 PUSH1 0x82 SHL PUSH1 0x64 DUP3 ADD MSTORE PUSH1 0x84 SWAP1 REVERT JUMPDEST PUSH1 0x1 SWAP2 POP EQ DUP6 PUSH2 0x2519 JUMP JUMPDEST POP PUSH0 DUP3 DUP2 MSTORE PUSH1 0xA PUSH1 0x20 MSTORE PUSH1 0x40 SWAP1 KECCAK256 PUSH1 0xB ADD SLOAD PUSH1 0x1 PUSH1 0x1 PUSH1 0xA0 SHL SUB AND CALLER EQ PUSH2 0x24DF JUMP JUMPDEST CALLVALUE PUSH2 0x313 JUMPI PUSH1 0x20 CALLDATASIZE PUSH1 0x3 NOT ADD SLT PUSH2 0x313 JUMPI PUSH1 0x4 CALLDATALOAD PUSH1 0x40 SWAP1 DUP2 DUP1 MLOAD PUSH2 0x2BE7 DUP3 DUP3 PUSH2 0x366A JUMP JUMPDEST CALLDATASIZE SWAP1 CALLDATACOPY DUP2 MLOAD SWAP1 DUP3 DUP3 ADD DUP3 DUP2 LT PUSH1 0x1 PUSH1 0x1 PUSH1 0x40 SHL SUB DUP3 GT OR PUSH2 0x180D JUMPI DUP4 MSTORE DUP1 PUSH0 MSTORE PUSH1 0xA PUSH1 0x20 MSTORE PUSH1 0x8 DUP4 PUSH0 KECCAK256 ADD SLOAD PUSH1 0x8 SHR PUSH1 0x3 SIGNEXTEND DUP3 MSTORE PUSH0 MSTORE PUSH1 0xA PUSH1 0x20 MSTORE PUSH1 0x8 DUP3 PUSH0 KECCAK256 ADD SLOAD PUSH1 0x28 SHR PUSH1 0x3 SIGNEXTEND PUSH1 0x20 DUP3 ADD MSTORE DUP2 MLOAD SWAP1 DUP2 PUSH0 SWAP1 JUMPDEST PUSH1 0x2 DUP3 LT PUSH2 0x2C48 JUMPI POP POP POP RETURN JUMPDEST PUSH1 0x20 DUP1 PUSH1 0x1 SWAP3 DUP6 MLOAD PUSH1 0x3 SIGNEXTEND DUP2 MSTORE ADD SWAP4 ADD SWAP2 ADD SWAP1 SWAP2 PUSH2 0x2C3B JUMP JUMPDEST CALLVALUE PUSH2 0x313 JUMPI PUSH2 0xCCB PUSH2 0x2C72 CALLDATASIZE PUSH2 0x3707 JUMP JUMPDEST SWAP2 PUSH2 0x3A03 JUMP JUMPDEST CALLVALUE PUSH2 0x313 JUMPI PUSH1 0x20 CALLDATASIZE PUSH1 0x3 NOT ADD SLT PUSH2 0x313 JUMPI PUSH1 0x20 PUSH2 0x2C96 PUSH1 0x4 CALLDATALOAD PUSH2 0x39C6 JUMP JUMPDEST PUSH1 0x40 MLOAD SWAP1 ISZERO ISZERO DUP2 MSTORE RETURN JUMPDEST CALLVALUE PUSH2 0x313 JUMPI PUSH1 0x40 CALLDATASIZE PUSH1 0x3 NOT ADD SLT PUSH2 0x313 JUMPI PUSH1 0x4 CALLDATALOAD PUSH1 0x1 PUSH1 0x1 PUSH1 0x40 SHL SUB DUP2 GT PUSH2 0x313 JUMPI PUSH2 0x2CD0 SWAP1 CALLDATASIZE SWAP1 PUSH1 0x4 ADD PUSH2 0x36DC JUMP JUMPDEST PUSH2 0x2CD8 PUSH2 0x361D JUMP JUMPDEST PUSH2 0x2CE3 PUSH1 0x8 SLOAD PUSH2 0x39B8 JUMP JUMPDEST SWAP1 DUP2 PUSH1 0x8 SSTORE PUSH1 0x20 SWAP3 PUSH1 0x40 MLOAD PUSH2 0x2CF8 DUP6 DUP3 PUSH2 0x366A JUMP JUMPDEST PUSH0 DUP2 MSTORE PUSH1 0x1 PUSH1 0x1 PUSH1 0xA0 SHL SUB DUP4 AND SWAP3 DUP4 ISZERO PUSH2 0x2FBA JUMPI PUSH1 0x1 PUSH1 0x1 PUSH1 0xA0 SHL SUB PUSH2 0x2D1E DUP7 DUP4 PUSH2 0x3DAE JUMP JUMPDEST AND PUSH2 0x2FA7 JUMPI EXTCODESIZE PUSH2 0x2EBA JUMPI JUMPDEST POP DUP3 PUSH0 MSTORE PUSH1 0x6 DUP5 MSTORE PUSH1 0x40 PUSH0 KECCAK256 DUP2 MLOAD PUSH1 0x1 PUSH1 0x1 PUSH1 0x40 SHL SUB DUP2 GT PUSH2 0x180D JUMPI PUSH2 0x2D4F DUP3 SLOAD PUSH2 0x3741 JUMP JUMPDEST PUSH1 0x1F DUP2 GT PUSH2 0x2E8C JUMPI JUMPDEST POP DUP6 PUSH1 0x1F DUP3 GT PUSH1 0x1 EQ PUSH2 0x2E06 JUMPI SWAP2 PUSH2 0x2DAB DUP3 PUSH32 0xE7CD4CE7F2A465EDC730269A1305E8A48BAD821E8FB7E152EC413829C01A53C4 SWAP6 SWAP4 PUSH2 0x2DF0 SWAP6 PUSH0 SWAP2 PUSH2 0x2DFB JUMPI JUMPDEST POP DUP2 PUSH1 0x1 SHL SWAP2 PUSH0 NOT SWAP1 PUSH1 0x3 SHL SHR NOT AND OR SWAP1 JUMP JUMPDEST SWAP1 SSTORE JUMPDEST PUSH32 0xF8E1A15ABA9398E019F0B49DF1A4FDE98EE17AE345CB5F6B5E2C27F5033E8CE7 DUP7 PUSH1 0x40 MLOAD DUP8 DUP2 MSTORE LOG1 PUSH1 0x40 MLOAD SWAP2 DUP3 SWAP2 DUP7 DUP4 MSTORE PUSH1 0x40 DUP9 DUP5 ADD MSTORE PUSH1 0x40 DUP4 ADD SWAP1 PUSH2 0x35E3 JUMP JUMPDEST SUB SWAP1 LOG2 PUSH1 0x40 MLOAD SWAP1 DUP2 MSTORE RETURN JUMPDEST SWAP1 POP DUP5 ADD MLOAD DUP11 PUSH2 0x2D98 JUMP JUMPDEST PUSH1 0x1F NOT DUP3 AND SWAP1 DUP4 PUSH0 MSTORE DUP8 PUSH0 KECCAK256 SWAP2 PUSH0 JUMPDEST DUP10 DUP3 DUP3 LT PUSH2 0x2E76 JUMPI POP POP SWAP3 PUSH2 0x2DF0 SWAP5 SWAP3 PUSH1 0x1 SWAP3 DUP3 PUSH32 0xE7CD4CE7F2A465EDC730269A1305E8A48BAD821E8FB7E152EC413829C01A53C4 SWAP9 SWAP7 LT PUSH2 0x2E5E JUMPI JUMPDEST POP POP DUP2 SHL ADD SWAP1 SSTORE PUSH2 0x2DAE JUMP JUMPDEST DUP6 ADD MLOAD PUSH0 NOT PUSH1 0xF8 DUP5 PUSH1 0x3 SHL AND SHR NOT AND SWAP1 SSTORE DUP10 DUP1 PUSH2 0x2E52 JUMP JUMPDEST PUSH1 0x1 DUP5 SWAP6 DUP3 SWAP4 SWAP6 DUP11 ADD MLOAD DUP2 SSTORE ADD SWAP5 ADD SWAP3 ADD PUSH2 0x2E15 JUMP JUMPDEST PUSH2 0x2EB4 SWAP1 DUP4 PUSH0 MSTORE DUP8 PUSH0 KECCAK256 PUSH1 0x1F DUP5 ADD PUSH1 0x5 SHR DUP2 ADD SWAP2 DUP10 DUP6 LT PUSH2 0x1803 JUMPI PUSH1 0x1F ADD PUSH1 0x5 SHR ADD SWAP1 PUSH2 0x39A2 JUMP JUMPDEST DUP7 PUSH2 0x2D58 JUMP JUMPDEST DUP5 PUSH2 0x2EF7 SWAP2 PUSH1 0x40 SWAP7 SWAP6 SWAP5 SWAP7 MLOAD DUP1 SWAP4 DUP2 SWAP3 PUSH4 0xA85BD01 PUSH1 0xE1 SHL DUP4 MSTORE CALLER PUSH1 0x4 DUP5 ADD MSTORE PUSH0 PUSH1 0x24 DUP5 ADD MSTORE DUP8 PUSH1 0x44 DUP5 ADD MSTORE PUSH1 0x80 PUSH1 0x64 DUP5 ADD MSTORE PUSH1 0x84 DUP4 ADD SWAP1 PUSH2 0x35E3 JUMP JUMPDEST SUB DUP2 PUSH0 DUP10 GAS CALL PUSH0 SWAP2 DUP2 PUSH2 0x2F67 JUMPI JUMPDEST POP PUSH2 0x2F33 JUMPI POP POP POP PUSH2 0x2F15 PUSH2 0x3BFD JUMP JUMPDEST DUP1 MLOAD SWAP2 DUP3 PUSH2 0x2F30 JUMPI DUP4 PUSH4 0x32505749 PUSH1 0xE1 SHL PUSH0 MSTORE PUSH1 0x4 MSTORE PUSH1 0x24 PUSH0 REVERT JUMPDEST ADD REVERT JUMPDEST SWAP3 SWAP4 SWAP2 SWAP3 PUSH1 0x1 PUSH1 0x1 PUSH1 0xE0 SHL SUB NOT AND PUSH4 0x757A42FF PUSH1 0xE1 SHL ADD PUSH2 0x2F54 JUMPI DUP5 PUSH2 0x2D29 JUMP JUMPDEST POP PUSH4 0x32505749 PUSH1 0xE1 SHL PUSH0 MSTORE PUSH1 0x4 MSTORE PUSH1 0x24 PUSH0 REVERT JUMPDEST SWAP1 SWAP2 POP DUP5 DUP2 DUP2 RETURNDATASIZE DUP4 GT PUSH2 0x2FA0 JUMPI JUMPDEST PUSH2 0x2F7F DUP2 DUP4 PUSH2 0x366A JUMP JUMPDEST DUP2 ADD SUB SLT PUSH2 0x313 JUMPI MLOAD PUSH1 0x1 PUSH1 0x1 PUSH1 0xE0 SHL SUB NOT DUP2 AND DUP2 SUB PUSH2 0x313 JUMPI SWAP1 DUP7 PUSH2 0x2F05 JUMP JUMPDEST POP RETURNDATASIZE PUSH2 0x2F75 JUMP JUMPDEST PUSH4 0x39E35637 PUSH1 0xE1 SHL PUSH0 MSTORE PUSH0 PUSH1 0x4 MSTORE PUSH1 0x24 PUSH0 REVERT JUMPDEST PUSH4 0x32505749 PUSH1 0xE1 SHL PUSH0 MSTORE PUSH0 PUSH1 0x4 MSTORE PUSH1 0x24 PUSH0 REVERT JUMPDEST CALLVALUE PUSH2 0x313 JUMPI PUSH1 0x20 CALLDATASIZE PUSH1 0x3 NOT ADD SLT PUSH2 0x313 JUMPI PUSH1 0x4 CALLDATALOAD PUSH0 MSTORE PUSH1 0xA PUSH1 0x20 MSTORE PUSH1 0x20 PUSH1 0xFF PUSH1 0x8 PUSH1 0x40 PUSH0 KECCAK256 ADD SLOAD AND PUSH2 0x3002 PUSH1 0x40 MLOAD DUP1 SWAP3 PUSH2 0x36FA JUMP JUMPDEST RETURN JUMPDEST CALLVALUE PUSH2 0x313 JUMPI PUSH1 0x20 CALLDATASIZE PUSH1 0x3 NOT ADD SLT PUSH2 0x313 JUMPI PUSH1 0x4 CALLDATALOAD PUSH0 MSTORE PUSH1 0xA PUSH1 0x20 MSTORE PUSH1 0x20 PUSH1 0x1 PUSH1 0x40 PUSH0 KECCAK256 ADD SLOAD PUSH1 0x40 MLOAD SWAP1 DUP2 MSTORE RETURN JUMPDEST PUSH1 0x60 CALLDATASIZE PUSH1 0x3 NOT ADD SLT PUSH2 0x313 JUMPI PUSH1 0x24 CALLDATALOAD PUSH1 0x4 CALLDATALOAD PUSH1 0x44 CALLDATALOAD PUSH1 0x1 PUSH1 0x1 PUSH1 0x40 SHL SUB DUP2 GT PUSH2 0x313 JUMPI PUSH2 0x3062 SWAP1 CALLDATASIZE SWAP1 PUSH1 0x4 ADD PUSH2 0x36DC JUMP JUMPDEST PUSH2 0x306A PUSH2 0x3D58 JUMP JUMPDEST DUP2 PUSH0 MSTORE PUSH1 0xA PUSH1 0x20 MSTORE PUSH1 0x1 DUP1 PUSH1 0xA0 SHL SUB PUSH1 0x40 PUSH0 KECCAK256 SLOAD AND CALLER EQ PUSH2 0x333D JUMPI PUSH2 0x308E DUP3 PUSH2 0x39C6 JUMP JUMPDEST ISZERO PUSH2 0x32E4 JUMPI DUP2 PUSH0 MSTORE PUSH1 0xA PUSH1 0x20 MSTORE PUSH1 0x40 PUSH0 KECCAK256 SWAP2 PUSH1 0xFF DUP4 SLOAD PUSH1 0xA0 SHR AND ISZERO PUSH0 EQ PUSH2 0x32D0 JUMPI PUSH2 0x30B9 CALLVALUE ISZERO PUSH2 0x3944 JUMP JUMPDEST PUSH1 0x40 MLOAD SWAP4 PUSH2 0x30C6 DUP6 PUSH2 0x3633 JUMP JUMPDEST CALLER DUP6 MSTORE PUSH1 0x20 DUP6 ADD SWAP5 DUP2 DUP7 MSTORE PUSH1 0x40 DUP2 ADD SWAP6 DUP5 DUP8 MSTORE DUP4 PUSH0 MSTORE PUSH1 0xB PUSH1 0x20 MSTORE PUSH1 0x40 PUSH0 KECCAK256 DUP1 SLOAD PUSH1 0x1 PUSH1 0x40 SHL DUP2 LT ISZERO PUSH2 0x180D JUMPI PUSH2 0x3102 SWAP2 PUSH1 0x1 DUP3 ADD DUP2 SSTORE PUSH2 0x38C8 JUMP JUMPDEST SWAP2 SWAP1 SWAP2 PUSH2 0x32BD JUMPI SWAP2 MLOAD DUP2 SLOAD PUSH1 0x1 PUSH1 0x1 PUSH1 0xA0 SHL SUB NOT AND PUSH1 0x1 PUSH1 0x1 PUSH1 0xA0 SHL SUB SWAP2 SWAP1 SWAP2 AND OR DUP2 SSTORE SWAP1 MLOAD PUSH1 0x1 DUP3 ADD SSTORE SWAP5 MLOAD DUP1 MLOAD SWAP1 SWAP6 PUSH1 0x2 ADD SWAP1 PUSH1 0x1 PUSH1 0x1 PUSH1 0x40 SHL SUB DUP2 GT PUSH2 0x180D JUMPI PUSH2 0x314F DUP3 SLOAD PUSH2 0x3741 JUMP JUMPDEST PUSH1 0x1F DUP2 GT PUSH2 0x328D JUMPI JUMPDEST POP PUSH1 0x20 PUSH1 0x1F DUP3 GT PUSH1 0x1 EQ PUSH2 0x3205 JUMPI DUP2 PUSH32 0xE4B8E969BE7436F10CC5E8D346F485FE6B6438E59BC9C0A22C1606572EF3B009 SWAP6 SWAP5 SWAP4 SWAP3 PUSH2 0x31AD SWAP3 PUSH1 0xA SWAP11 PUSH0 SWAP3 PUSH2 0x1A14 JUMPI POP POP DUP2 PUSH1 0x1 SHL SWAP2 PUSH0 NOT SWAP1 PUSH1 0x3 SHL SHR NOT AND OR SWAP1 JUMP JUMPDEST SWAP1 SSTORE JUMPDEST PUSH1 0x40 MLOAD SWAP2 DUP3 MSTORE PUSH1 0x20 DUP3 ADD MSTORE PUSH1 0x60 PUSH1 0x40 DUP3 ADD MSTORE DUP1 PUSH2 0x31D2 CALLER SWAP5 PUSH1 0x60 DUP4 ADD SWAP1 PUSH2 0x35E3 JUMP JUMPDEST SUB SWAP1 LOG2 ADD DUP1 SLOAD PUSH2 0x258 TIMESTAMP ADD SWAP1 DUP2 TIMESTAMP GT PUSH2 0x787 JUMPI LT PUSH2 0x31F1 JUMPI PUSH1 0x1 PUSH1 0x7 SSTORE STOP JUMPDEST PUSH2 0xE10 TIMESTAMP ADD SWAP1 DUP2 TIMESTAMP GT PUSH2 0x787 JUMPI SSTORE DUP1 PUSH2 0x6CF JUMP JUMPDEST PUSH1 0x1F NOT DUP3 AND SWAP8 DUP4 PUSH0 MSTORE DUP2 PUSH0 KECCAK256 SWAP9 PUSH0 JUMPDEST DUP2 DUP2 LT PUSH2 0x3275 JUMPI POP SWAP9 PUSH1 0x1 SWAP3 DUP5 SWAP3 PUSH32 0xE4B8E969BE7436F10CC5E8D346F485FE6B6438E59BC9C0A22C1606572EF3B009 SWAP9 SWAP8 SWAP7 SWAP6 PUSH1 0xA SWAP13 LT PUSH2 0x325D JUMPI JUMPDEST POP POP POP DUP2 SHL ADD SWAP1 SSTORE PUSH2 0x31B0 JUMP JUMPDEST ADD MLOAD PUSH0 NOT PUSH1 0xF8 DUP5 PUSH1 0x3 SHL AND SHR NOT AND SWAP1 SSTORE DUP10 DUP1 DUP1 PUSH2 0x3250 JUMP JUMPDEST DUP4 DUP4 ADD MLOAD DUP12 SSTORE PUSH1 0x1 SWAP1 SWAP11 ADD SWAP10 PUSH1 0x20 SWAP4 DUP5 ADD SWAP4 ADD PUSH2 0x3214 JUMP JUMPDEST PUSH2 0x32B7 SWAP1 DUP4 PUSH0 MSTORE PUSH1 0x20 PUSH0 KECCAK256 PUSH1 0x1F DUP5 ADD PUSH1 0x5 SHR DUP2 ADD SWAP2 PUSH1 0x20 DUP6 LT PUSH2 0x1803 JUMPI PUSH1 0x1F ADD PUSH1 0x5 SHR ADD SWAP1 PUSH2 0x39A2 JUMP JUMPDEST DUP8 PUSH2 0x3158 JUMP JUMPDEST PUSH4 0x4E487B71 PUSH1 0xE0 SHL PUSH0 MSTORE PUSH0 PUSH1 0x4 MSTORE PUSH1 0x24 PUSH0 REVERT JUMPDEST PUSH2 0x32DF PUSH1 0x5 DUP5 ADD SLOAD CALLVALUE EQ PUSH2 0x38F8 JUMP JUMPDEST PUSH2 0x30B9 JUMP JUMPDEST PUSH1 0x40 MLOAD PUSH3 0x461BCD PUSH1 0xE5 SHL DUP2 MSTORE PUSH1 0x20 PUSH1 0x4 DUP3 ADD MSTORE PUSH1 0x2B PUSH1 0x24 DUP3 ADD MSTORE PUSH32 0x436F6E7472616374206973206E6F206C6F6E676572206F70656E20666F722061 PUSH1 0x44 DUP3 ADD MSTORE PUSH11 0x70706C69636174696F6E73 PUSH1 0xA8 SHL PUSH1 0x64 DUP3 ADD MSTORE PUSH1 0x84 SWAP1 REVERT JUMPDEST PUSH1 0x40 MLOAD PUSH3 0x461BCD PUSH1 0xE5 SHL DUP2 MSTORE PUSH1 0x20 PUSH1 0x4 DUP3 ADD MSTORE PUSH1 0x2B PUSH1 0x24 DUP3 ADD MSTORE PUSH32 0x43726561746F722063616E6E6F74206170706C7920666F72207468656972206F PUSH1 0x44 DUP3 ADD MSTORE PUSH11 0x1DDB8818DBDB9D1C9858DD PUSH1 0xAA SHL PUSH1 0x64 DUP3 ADD MSTORE PUSH1 0x84 SWAP1 REVERT JUMPDEST CALLVALUE PUSH2 0x313 JUMPI PUSH1 0x40 CALLDATASIZE PUSH1 0x3 NOT ADD SLT PUSH2 0x313 JUMPI PUSH2 0x33AF PUSH2 0x3607 JUMP JUMPDEST PUSH1 0x24 CALLDATALOAD PUSH2 0x33BB DUP2 PUSH2 0x3D24 JUMP JUMPDEST CALLER ISZERO ISZERO DUP1 PUSH2 0x346D JUMPI JUMPDEST DUP1 PUSH2 0x3440 JUMPI JUMPDEST PUSH2 0x342D JUMPI DUP2 SWAP1 PUSH1 0x1 PUSH1 0x1 PUSH1 0xA0 SHL SUB DUP5 DUP2 AND SWAP2 AND PUSH32 0x8C5BE1E5EBEC7D5BD14F71427D1E84F3DD0314C0F7B2291E5B200AC8C7C3B925 PUSH0 DUP1 LOG4 PUSH0 SWAP1 DUP2 MSTORE PUSH1 0x4 PUSH1 0x20 MSTORE PUSH1 0x40 SWAP1 KECCAK256 DUP1 SLOAD PUSH1 0x1 PUSH1 0x1 PUSH1 0xA0 SHL SUB NOT AND PUSH1 0x1 PUSH1 0x1 PUSH1 0xA0 SHL SUB SWAP1 SWAP3 AND SWAP2 SWAP1 SWAP2 OR SWAP1 SSTORE STOP JUMPDEST PUSH4 0xA9FBF51F PUSH1 0xE0 SHL PUSH0 MSTORE CALLER PUSH1 0x4 MSTORE PUSH1 0x24 PUSH0 REVERT JUMPDEST POP PUSH1 0x1 PUSH1 0x1 PUSH1 0xA0 SHL SUB DUP2 AND PUSH0 SWAP1 DUP2 MSTORE PUSH1 0x5 PUSH1 0x20 SWAP1 DUP2 MSTORE PUSH1 0x40 DUP1 DUP4 KECCAK256 CALLER DUP5 MSTORE SWAP1 SWAP2 MSTORE SWAP1 KECCAK256 SLOAD PUSH1 0xFF AND ISZERO PUSH2 0x33CA JUMP JUMPDEST POP PUSH1 0x1 PUSH1 0x1 PUSH1 0xA0 SHL SUB DUP2 AND CALLER EQ ISZERO PUSH2 0x33C4 JUMP JUMPDEST CALLVALUE PUSH2 0x313 JUMPI PUSH1 0x20 CALLDATASIZE PUSH1 0x3 NOT ADD SLT PUSH2 0x313 JUMPI PUSH1 0x4 CALLDATALOAD PUSH2 0x349D DUP2 PUSH2 0x3D24 JUMP JUMPDEST POP PUSH0 MSTORE PUSH1 0x4 PUSH1 0x20 MSTORE PUSH1 0x20 PUSH1 0x1 DUP1 PUSH1 0xA0 SHL SUB PUSH1 0x40 PUSH0 KECCAK256 SLOAD AND PUSH1 0x40 MLOAD SWAP1 DUP2 MSTORE RETURN JUMPDEST CALLVALUE PUSH2 0x313 JUMPI PUSH0 CALLDATASIZE PUSH1 0x3 NOT ADD SLT PUSH2 0x313 JUMPI PUSH1 0x40 MLOAD PUSH0 DUP1 SLOAD PUSH2 0x34DB DUP2 PUSH2 0x3741 JUMP JUMPDEST DUP1 DUP5 MSTORE SWAP1 PUSH1 0x1 DUP2 AND SWAP1 DUP2 ISZERO PUSH2 0x1C67 JUMPI POP PUSH1 0x1 EQ PUSH2 0x3502 JUMPI PUSH2 0x4A4 DUP4 PUSH2 0x490 DUP2 DUP6 SUB DUP3 PUSH2 0x366A JUMP JUMPDEST PUSH0 DUP1 DUP1 MSTORE PUSH32 0x290DECD9548B62A8D60345A988386FC84BA6BC95484008F6362F93160EF3E563 SWAP4 SWAP3 POP SWAP1 JUMPDEST DUP1 DUP3 LT PUSH2 0x3544 JUMPI POP SWAP1 SWAP2 POP DUP2 ADD PUSH1 0x20 ADD PUSH2 0x490 PUSH2 0x1BF9 JUMP JUMPDEST SWAP2 SWAP3 PUSH1 0x1 DUP2 PUSH1 0x20 SWAP3 SLOAD DUP4 DUP6 DUP9 ADD ADD MSTORE ADD SWAP2 ADD SWAP1 SWAP3 SWAP2 PUSH2 0x352C JUMP JUMPDEST CALLVALUE PUSH2 0x313 JUMPI PUSH1 0x20 CALLDATASIZE PUSH1 0x3 NOT ADD SLT PUSH2 0x313 JUMPI PUSH1 0x4 CALLDATALOAD SWAP1 PUSH4 0xFFFFFFFF PUSH1 0xE0 SHL DUP3 AND DUP1 SWAP3 SUB PUSH2 0x313 JUMPI PUSH1 0x20 SWAP2 PUSH4 0x24832483 PUSH1 0xE1 SHL DUP2 EQ SWAP1 DUP2 ISZERO PUSH2 0x35A0 JUMPI JUMPDEST POP ISZERO ISZERO DUP2 MSTORE RETURN JUMPDEST PUSH4 0x80AC58CD PUSH1 0xE0 SHL DUP2 EQ SWAP2 POP DUP2 ISZERO PUSH2 0x35D2 JUMPI JUMPDEST DUP2 ISZERO PUSH2 0x35C1 JUMPI JUMPDEST POP DUP4 PUSH2 0x3599 JUMP JUMPDEST PUSH4 0x1FFC9A7 PUSH1 0xE0 SHL EQ SWAP1 POP DUP4 PUSH2 0x35BA JUMP JUMPDEST PUSH4 0x5B5E139F PUSH1 0xE0 SHL DUP2 EQ SWAP2 POP PUSH2 0x35B3 JUMP JUMPDEST DUP1 MLOAD DUP1 DUP4 MSTORE PUSH1 0x20 SWAP3 SWAP2 DUP2 SWAP1 DUP5 ADD DUP5 DUP5 ADD MCOPY PUSH0 DUP3 DUP3 ADD DUP5 ADD MSTORE PUSH1 0x1F ADD PUSH1 0x1F NOT AND ADD ADD SWAP1 JUMP JUMPDEST PUSH1 0x4 CALLDATALOAD SWAP1 PUSH1 0x1 PUSH1 0x1 PUSH1 0xA0 SHL SUB DUP3 AND DUP3 SUB PUSH2 0x313 JUMPI JUMP JUMPDEST PUSH1 0x24 CALLDATALOAD SWAP1 PUSH1 0x1 PUSH1 0x1 PUSH1 0xA0 SHL SUB DUP3 AND DUP3 SUB PUSH2 0x313 JUMPI JUMP JUMPDEST PUSH1 0x60 DUP2 ADD SWAP1 DUP2 LT PUSH1 0x1 PUSH1 0x1 PUSH1 0x40 SHL SUB DUP3 GT OR PUSH2 0x180D JUMPI PUSH1 0x40 MSTORE JUMP JUMPDEST PUSH2 0x280 DUP2 ADD SWAP1 DUP2 LT PUSH1 0x1 PUSH1 0x1 PUSH1 0x40 SHL SUB DUP3 GT OR PUSH2 0x180D JUMPI PUSH1 0x40 MSTORE JUMP JUMPDEST SWAP1 PUSH1 0x1F DUP1 NOT SWAP2 ADD AND DUP2 ADD SWAP1 DUP2 LT PUSH1 0x1 PUSH1 0x1 PUSH1 0x40 SHL SUB DUP3 GT OR PUSH2 0x180D JUMPI PUSH1 0x40 MSTORE JUMP JUMPDEST PUSH1 0x1 PUSH1 0x1 PUSH1 0x40 SHL SUB DUP2 GT PUSH2 0x180D JUMPI PUSH1 0x1F ADD PUSH1 0x1F NOT AND PUSH1 0x20 ADD SWAP1 JUMP JUMPDEST SWAP3 SWAP2 SWAP3 PUSH2 0x36B2 DUP3 PUSH2 0x368B JUMP JUMPDEST SWAP2 PUSH2 0x36C0 PUSH1 0x40 MLOAD SWAP4 DUP5 PUSH2 0x366A JUMP JUMPDEST DUP3 SWAP5 DUP2 DUP5 MSTORE DUP2 DUP4 ADD GT PUSH2 0x313 JUMPI DUP3 DUP2 PUSH1 0x20 SWAP4 DUP5 PUSH0 SWAP7 ADD CALLDATACOPY ADD ADD MSTORE JUMP JUMPDEST SWAP1 DUP1 PUSH1 0x1F DUP4 ADD SLT ISZERO PUSH2 0x313 JUMPI DUP2 PUSH1 0x20 PUSH2 0x36F7 SWAP4 CALLDATALOAD SWAP2 ADD PUSH2 0x36A6 JUMP JUMPDEST SWAP1 JUMP JUMPDEST SWAP1 PUSH1 0x5 DUP3 LT ISZERO PUSH2 0x828 JUMPI MSTORE JUMP JUMPDEST PUSH1 0x60 SWAP1 PUSH1 0x3 NOT ADD SLT PUSH2 0x313 JUMPI PUSH1 0x4 CALLDATALOAD PUSH1 0x1 PUSH1 0x1 PUSH1 0xA0 SHL SUB DUP2 AND DUP2 SUB PUSH2 0x313 JUMPI SWAP1 PUSH1 0x24 CALLDATALOAD PUSH1 0x1 PUSH1 0x1 PUSH1 0xA0 SHL SUB DUP2 AND DUP2 SUB PUSH2 0x313 JUMPI SWAP1 PUSH1 0x44 CALLDATALOAD SWAP1 JUMP JUMPDEST SWAP1 PUSH1 0x1 DUP3 DUP2 SHR SWAP3 AND DUP1 ISZERO PUSH2 0x376F JUMPI JUMPDEST PUSH1 0x20 DUP4 LT EQ PUSH2 0x375B JUMPI JUMP JUMPDEST PUSH4 0x4E487B71 PUSH1 0xE0 SHL PUSH0 MSTORE PUSH1 0x22 PUSH1 0x4 MSTORE PUSH1 0x24 PUSH0 REVERT JUMPDEST SWAP2 PUSH1 0x7F AND SWAP2 PUSH2 0x3750 JUMP JUMPDEST PUSH0 SWAP3 SWAP2 DUP2 SLOAD SWAP2 PUSH2 0x3788 DUP4 PUSH2 0x3741 JUMP JUMPDEST DUP1 DUP4 MSTORE SWAP3 PUSH1 0x1 DUP2 AND SWAP1 DUP2 ISZERO PUSH2 0x37DD JUMPI POP PUSH1 0x1 EQ PUSH2 0x37A4 JUMPI POP POP POP JUMP JUMPDEST PUSH0 SWAP1 DUP2 MSTORE PUSH1 0x20 DUP2 KECCAK256 SWAP4 SWAP5 POP SWAP2 SWAP3 JUMPDEST DUP4 DUP4 LT PUSH2 0x37C3 JUMPI POP PUSH1 0x20 SWAP3 POP ADD ADD SWAP1 JUMP JUMPDEST PUSH1 0x1 DUP2 PUSH1 0x20 SWAP3 SWAP5 SWAP4 SWAP5 SLOAD DUP4 DUP6 DUP8 ADD ADD MSTORE ADD SWAP2 ADD SWAP2 SWAP1 PUSH2 0x37B2 JUMP JUMPDEST SWAP2 POP POP PUSH1 0x20 SWAP4 SWAP5 POP PUSH1 0xFF SWAP3 SWAP2 SWAP3 NOT AND DUP4 DUP4 ADD MSTORE ISZERO ISZERO PUSH1 0x5 SHL ADD ADD SWAP1 JUMP JUMPDEST CALLVALUE PUSH2 0x313 JUMPI PUSH0 CALLDATASIZE PUSH1 0x3 NOT ADD SLT PUSH2 0x313 JUMPI PUSH1 0x20 PUSH1 0x40 MLOAD PUSH32 0x0 DUP2 MSTORE RETURN JUMPDEST SWAP1 DUP1 PUSH1 0x20 DUP4 MLOAD SWAP2 DUP3 DUP2 MSTORE ADD SWAP2 PUSH1 0x20 DUP1 DUP4 PUSH1 0x5 SHL DUP4 ADD ADD SWAP5 ADD SWAP3 PUSH0 SWAP2 JUMPDEST DUP4 DUP4 LT PUSH2 0x385F JUMPI POP POP POP POP POP SWAP1 JUMP JUMPDEST SWAP1 SWAP2 SWAP3 SWAP4 SWAP5 PUSH1 0x20 DUP1 PUSH2 0x387D PUSH1 0x1 SWAP4 PUSH1 0x1F NOT DUP7 DUP3 SUB ADD DUP8 MSTORE DUP10 MLOAD PUSH2 0x35E3 JUMP JUMPDEST SWAP8 ADD SWAP4 ADD SWAP4 ADD SWAP2 SWAP4 SWAP3 SWAP1 PUSH2 0x3850 JUMP JUMPDEST PUSH1 0x40 SWAP1 PUSH1 0x3 NOT ADD SLT PUSH2 0x313 JUMPI PUSH1 0x4 CALLDATALOAD SWAP1 PUSH1 0x24 CALLDATALOAD SWAP1 JUMP JUMPDEST DUP1 SLOAD ISZERO PUSH2 0x38B4 JUMPI PUSH0 MSTORE PUSH1 0x20 PUSH0 KECCAK256 SWAP1 PUSH0 SWAP1 JUMP JUMPDEST PUSH4 0x4E487B71 PUSH1 0xE0 SHL PUSH0 MSTORE PUSH1 0x32 PUSH1 0x4 MSTORE PUSH1 0x24 PUSH0 REVERT JUMPDEST DUP1 SLOAD DUP3 LT ISZERO PUSH2 0x38B4 JUMPI PUSH0 MSTORE PUSH1 0x3 PUSH1 0x20 PUSH0 KECCAK256 SWAP2 MUL ADD SWAP1 PUSH0 SWAP1 JUMP JUMPDEST PUSH1 0x1 PUSH1 0x1 PUSH1 0x40 SHL SUB DUP2 GT PUSH2 0x180D JUMPI PUSH1 0x5 SHL PUSH1 0x20 ADD SWAP1 JUMP JUMPDEST ISZERO PUSH2 0x38FF JUMPI JUMP JUMPDEST PUSH1 0x40 MLOAD PUSH3 0x461BCD PUSH1 0xE5 SHL DUP2 MSTORE PUSH1 0x20 PUSH1 0x4 DUP3 ADD MSTORE PUSH1 0x17 PUSH1 0x24 DUP3 ADD MSTORE PUSH32 0x496E73756666696369656E742066756E64732073656E74000000000000000000 PUSH1 0x44 DUP3 ADD MSTORE PUSH1 0x64 SWAP1 REVERT JUMPDEST ISZERO PUSH2 0x394B JUMPI JUMP JUMPDEST PUSH1 0x40 MLOAD PUSH3 0x461BCD PUSH1 0xE5 SHL DUP2 MSTORE PUSH1 0x20 PUSH1 0x4 DUP3 ADD MSTORE PUSH1 0x29 PUSH1 0x24 DUP3 ADD MSTORE PUSH32 0x4E6F2066756E64732073686F756C642062652073656E7420666F722074686973 PUSH1 0x44 DUP3 ADD MSTORE PUSH9 0x818DBDB9D1C9858DD PUSH1 0xBA SHL PUSH1 0x64 DUP3 ADD MSTORE PUSH1 0x84 SWAP1 REVERT JUMPDEST DUP2 DUP2 LT PUSH2 0x39AD JUMPI POP POP JUMP JUMPDEST PUSH0 DUP2 SSTORE PUSH1 0x1 ADD PUSH2 0x39A2 JUMP JUMPDEST PUSH0 NOT DUP2 EQ PUSH2 0x787 JUMPI PUSH1 0x1 ADD SWAP1 JUMP JUMPDEST DUP1 PUSH0 MSTORE PUSH1 0xA PUSH1 0x20 MSTORE PUSH1 0xFF PUSH1 0x8 PUSH1 0x40 PUSH0 KECCAK256 ADD SLOAD AND PUSH1 0x5 DUP2 LT ISZERO PUSH2 0x828 JUMPI ISZERO SWAP1 DUP2 PUSH2 0x39ED JUMPI POP SWAP1 JUMP JUMPDEST SWAP1 POP PUSH0 MSTORE PUSH1 0xA PUSH1 0x20 MSTORE PUSH1 0xA PUSH1 0x40 PUSH0 KECCAK256 ADD SLOAD TIMESTAMP LT SWAP1 JUMP JUMPDEST PUSH1 0x1 PUSH1 0x1 PUSH1 0xA0 SHL SUB SWAP1 SWAP2 AND SWAP2 SWAP1 DUP3 ISZERO PUSH2 0x2FBA JUMPI PUSH0 DUP3 DUP2 MSTORE PUSH1 0x2 PUSH1 0x20 MSTORE PUSH1 0x40 SWAP1 KECCAK256 SLOAD PUSH1 0x1 PUSH1 0x1 PUSH1 0xA0 SHL SUB AND SWAP3 DUP3 SWAP1 CALLER ISZERO ISZERO DUP1 PUSH2 0x3AF6 JUMPI JUMPDEST POP DUP5 PUSH2 0x3AC3 JUMPI JUMPDEST DUP1 PUSH0 MSTORE PUSH1 0x3 PUSH1 0x20 MSTORE PUSH1 0x40 PUSH0 KECCAK256 PUSH1 0x1 DUP2 SLOAD ADD SWAP1 SSTORE DUP2 PUSH0 MSTORE PUSH1 0x2 PUSH1 0x20 MSTORE PUSH1 0x40 PUSH0 KECCAK256 DUP2 PUSH1 0x1 PUSH1 0x1 PUSH1 0x60 SHL SUB PUSH1 0xA0 SHL DUP3 SLOAD AND OR SWAP1 SSTORE DUP5 PUSH32 0xDDF252AD1BE2C89B69C2B068FC378DAA952BA7F163C4A11628F55A4DF523B3EF PUSH0 DUP1 LOG4 PUSH1 0x1 PUSH1 0x1 PUSH1 0xA0 SHL SUB AND DUP1 DUP4 SUB PUSH2 0x3AAB JUMPI POP POP POP JUMP JUMPDEST PUSH4 0x64283D7B PUSH1 0xE0 SHL PUSH0 MSTORE PUSH1 0x4 MSTORE PUSH1 0x24 MSTORE PUSH1 0x44 MSTORE PUSH1 0x64 PUSH0 REVERT JUMPDEST PUSH0 DUP3 DUP2 MSTORE PUSH1 0x4 PUSH1 0x20 MSTORE PUSH1 0x40 SWAP1 KECCAK256 DUP1 SLOAD PUSH1 0x1 PUSH1 0x1 PUSH1 0xA0 SHL SUB NOT AND SWAP1 SSTORE DUP5 PUSH0 MSTORE PUSH1 0x3 PUSH1 0x20 MSTORE PUSH1 0x40 PUSH0 KECCAK256 PUSH0 NOT DUP2 SLOAD ADD SWAP1 SSTORE PUSH2 0x3A40 JUMP JUMPDEST SWAP1 SWAP2 POP DUP1 PUSH2 0x3B3A JUMPI JUMPDEST ISZERO PUSH2 0x3B0C JUMPI DUP3 SWAP1 PUSH0 PUSH2 0x3A39 JUMP JUMPDEST DUP3 DUP5 PUSH2 0x3B24 JUMPI PUSH4 0x7E273289 PUSH1 0xE0 SHL PUSH0 MSTORE PUSH1 0x4 MSTORE PUSH1 0x24 PUSH0 REVERT JUMPDEST PUSH4 0x177E802F PUSH1 0xE0 SHL PUSH0 MSTORE CALLER PUSH1 0x4 MSTORE PUSH1 0x24 MSTORE PUSH1 0x44 PUSH0 REVERT JUMPDEST POP CALLER DUP5 EQ DUP1 ISZERO PUSH2 0x3B69 JUMPI JUMPDEST DUP1 PUSH2 0x3AFF JUMPI POP PUSH0 DUP4 DUP2 MSTORE PUSH1 0x4 PUSH1 0x20 MSTORE PUSH1 0x40 SWAP1 KECCAK256 SLOAD PUSH1 0x1 PUSH1 0x1 PUSH1 0xA0 SHL SUB AND CALLER EQ PUSH2 0x3AFF JUMP JUMPDEST POP PUSH0 DUP5 DUP2 MSTORE PUSH1 0x5 PUSH1 0x20 SWAP1 DUP2 MSTORE PUSH1 0x40 DUP1 DUP4 KECCAK256 CALLER DUP5 MSTORE SWAP1 SWAP2 MSTORE SWAP1 KECCAK256 SLOAD PUSH1 0xFF AND PUSH2 0x3B45 JUMP JUMPDEST ISZERO PUSH2 0x3B92 JUMPI JUMP JUMPDEST PUSH1 0x40 MLOAD PUSH3 0x461BCD PUSH1 0xE5 SHL DUP2 MSTORE PUSH1 0x20 PUSH1 0x4 DUP3 ADD MSTORE PUSH1 0x3A PUSH1 0x24 DUP3 ADD MSTORE PUSH32 0x4F6E6C792063726561746F72206F722073656C6563746564206170706C696361 PUSH1 0x44 DUP3 ADD MSTORE PUSH32 0x6E742063616E20706572666F726D207468697320616374696F6E000000000000 PUSH1 0x64 DUP3 ADD MSTORE PUSH1 0x84 SWAP1 REVERT JUMPDEST RETURNDATASIZE ISZERO PUSH2 0x3C27 JUMPI RETURNDATASIZE SWAP1 PUSH2 0x3C0E DUP3 PUSH2 0x368B JUMP JUMPDEST SWAP2 PUSH2 0x3C1C PUSH1 0x40 MLOAD SWAP4 DUP5 PUSH2 0x366A JUMP JUMPDEST DUP3 MSTORE RETURNDATASIZE PUSH0 PUSH1 0x20 DUP5 ADD RETURNDATACOPY JUMP JUMPDEST PUSH1 0x60 SWAP1 JUMP JUMPDEST SWAP1 DUP2 SLOAD PUSH2 0x3C38 DUP2 PUSH2 0x38E1 JUMP JUMPDEST SWAP3 PUSH2 0x3C46 PUSH1 0x40 MLOAD SWAP5 DUP6 PUSH2 0x366A JUMP JUMPDEST DUP2 DUP5 MSTORE PUSH1 0x20 DUP5 ADD SWAP1 PUSH0 MSTORE PUSH1 0x20 PUSH0 KECCAK256 PUSH0 SWAP2 JUMPDEST DUP4 DUP4 LT PUSH2 0x3C64 JUMPI POP POP POP POP JUMP JUMPDEST PUSH1 0x1 PUSH1 0x20 DUP2 SWAP3 PUSH1 0x40 MLOAD PUSH2 0x3C7B DUP2 PUSH2 0x489 DUP2 DUP10 PUSH2 0x3779 JUMP JUMPDEST DUP2 MSTORE ADD SWAP3 ADD SWAP3 ADD SWAP2 SWAP1 PUSH2 0x3C57 JUMP JUMPDEST DUP2 DUP2 MUL SWAP3 SWAP2 DUP2 ISZERO SWAP2 DUP5 DIV EQ OR ISZERO PUSH2 0x787 JUMPI JUMP JUMPDEST PUSH2 0x3CA6 DUP2 SLOAD PUSH2 0x3741 JUMP JUMPDEST SWAP1 DUP2 PUSH2 0x3CB0 JUMPI POP POP JUMP JUMPDEST DUP2 PUSH1 0x1F PUSH0 SWAP4 GT PUSH1 0x1 EQ PUSH2 0x3CC1 JUMPI POP SSTORE JUMP JUMPDEST DUP2 DUP4 MSTORE PUSH1 0x20 DUP4 KECCAK256 PUSH2 0x3CDD SWAP2 PUSH1 0x1F ADD PUSH1 0x5 SHR DUP2 ADD SWAP1 PUSH1 0x1 ADD PUSH2 0x39A2 JUMP JUMPDEST DUP1 DUP3 MSTORE DUP2 PUSH1 0x20 DUP2 KECCAK256 SWAP2 SSTORE SSTORE JUMP JUMPDEST PUSH2 0x3CF3 DUP2 PUSH2 0x3D24 JUMP JUMPDEST POP PUSH0 MSTORE PUSH1 0x6 PUSH1 0x20 MSTORE PUSH2 0x489 PUSH2 0x3D11 PUSH1 0x40 PUSH0 KECCAK256 PUSH1 0x40 MLOAD SWAP3 DUP4 DUP1 SWAP3 PUSH2 0x3779 JUMP JUMPDEST PUSH0 PUSH1 0x40 MLOAD PUSH2 0x3D20 PUSH1 0x20 DUP3 PUSH2 0x366A JUMP JUMPDEST MSTORE SWAP1 JUMP JUMPDEST PUSH0 DUP2 DUP2 MSTORE PUSH1 0x2 PUSH1 0x20 MSTORE PUSH1 0x40 SWAP1 KECCAK256 SLOAD PUSH1 0x1 PUSH1 0x1 PUSH1 0xA0 SHL SUB AND SWAP1 DUP2 ISZERO PUSH2 0x3D46 JUMPI POP SWAP1 JUMP JUMPDEST PUSH4 0x7E273289 PUSH1 0xE0 SHL PUSH0 MSTORE PUSH1 0x4 MSTORE PUSH1 0x24 PUSH0 REVERT JUMPDEST PUSH1 0x2 PUSH1 0x7 SLOAD EQ PUSH2 0x3D69 JUMPI PUSH1 0x2 PUSH1 0x7 SSTORE JUMP JUMPDEST PUSH1 0x40 MLOAD PUSH3 0x461BCD PUSH1 0xE5 SHL DUP2 MSTORE PUSH1 0x20 PUSH1 0x4 DUP3 ADD MSTORE PUSH1 0x1F PUSH1 0x24 DUP3 ADD MSTORE PUSH32 0x5265656E7472616E637947756172643A207265656E7472616E742063616C6C00 PUSH1 0x44 DUP3 ADD MSTORE PUSH1 0x64 SWAP1 REVERT JUMPDEST PUSH0 DUP3 DUP2 MSTORE PUSH1 0x2 PUSH1 0x20 MSTORE PUSH1 0x40 SWAP1 KECCAK256 SLOAD PUSH1 0x1 PUSH1 0x1 PUSH1 0xA0 SHL SUB AND SWAP2 SWAP1 DUP3 PUSH2 0x3E3A JUMPI JUMPDEST PUSH1 0x1 PUSH1 0x1 PUSH1 0xA0 SHL SUB AND DUP1 PUSH2 0x3E22 JUMPI JUMPDEST DUP2 PUSH0 MSTORE PUSH1 0x2 PUSH1 0x20 MSTORE PUSH1 0x40 PUSH0 KECCAK256 DUP2 PUSH1 0x1 PUSH1 0x1 PUSH1 0x60 SHL SUB PUSH1 0xA0 SHL DUP3 SLOAD AND OR SWAP1 SSTORE DUP3 PUSH32 0xDDF252AD1BE2C89B69C2B068FC378DAA952BA7F163C4A11628F55A4DF523B3EF PUSH0 DUP1 LOG4 SWAP1 JUMP JUMPDEST DUP1 PUSH0 MSTORE PUSH1 0x3 PUSH1 0x20 MSTORE PUSH1 0x40 PUSH0 KECCAK256 PUSH1 0x1 DUP2 SLOAD ADD SWAP1 SSTORE PUSH2 0x3DDC JUMP JUMPDEST PUSH0 DUP3 DUP2 MSTORE PUSH1 0x4 PUSH1 0x20 MSTORE PUSH1 0x40 SWAP1 KECCAK256 DUP1 SLOAD PUSH1 0x1 PUSH1 0x1 PUSH1 0xA0 SHL SUB NOT AND SWAP1 SSTORE DUP3 PUSH0 MSTORE PUSH1 0x3 PUSH1 0x20 MSTORE PUSH1 0x40 PUSH0 KECCAK256 PUSH0 NOT DUP2 SLOAD ADD SWAP1 SSTORE PUSH2 0x3DCD JUMP JUMPDEST SWAP2 SWAP3 SWAP2 SWAP1 PUSH1 0x1 PUSH1 0x1 PUSH1 0xA0 SHL SUB DUP2 AND ISZERO PUSH2 0x2FBA JUMPI PUSH1 0x1 PUSH1 0x1 PUSH1 0xA0 SHL SUB SWAP1 PUSH2 0x3E94 SWAP1 DUP6 SWAP1 PUSH2 0x3DAE JUMP JUMPDEST AND SWAP1 DUP2 PUSH2 0x3EAE JUMPI DUP4 PUSH4 0x7E273289 PUSH1 0xE0 SHL PUSH0 MSTORE PUSH1 0x4 MSTORE PUSH1 0x24 PUSH0 REVERT JUMPDEST SWAP2 SWAP3 SWAP1 SWAP2 PUSH1 0x1 PUSH1 0x1 PUSH1 0xA0 SHL SUB AND DUP1 DUP4 SUB PUSH2 0x3AAB JUMPI POP POP POP JUMP JUMPDEST DUP1 PUSH0 MSTORE PUSH1 0xA PUSH1 0x20 MSTORE PUSH1 0x40 PUSH0 KECCAK256 SWAP2 PUSH1 0xFF DUP4 SLOAD PUSH1 0xA0 SHR AND ISZERO PUSH2 0x3FAD JUMPI PUSH0 JUMPDEST DUP3 PUSH0 MSTORE PUSH1 0xB PUSH1 0x20 MSTORE PUSH1 0x40 PUSH0 KECCAK256 SLOAD DUP2 LT ISZERO PUSH2 0x3FA7 JUMPI DUP3 PUSH0 MSTORE PUSH1 0xB PUSH1 0x20 MSTORE PUSH2 0x3F0C DUP2 PUSH1 0x40 PUSH0 KECCAK256 PUSH2 0x38C8 JUMP JUMPDEST POP SLOAD PUSH1 0x1 PUSH1 0x1 PUSH1 0xA0 SHL SUB SWAP1 DUP2 AND SWAP1 DUP4 AND SUB PUSH2 0x3F2A JUMPI JUMPDEST PUSH1 0x1 ADD PUSH2 0x3EE3 JUMP JUMPDEST DUP3 PUSH0 MSTORE PUSH1 0xB PUSH1 0x20 MSTORE PUSH0 DUP1 DUP1 DUP1 PUSH2 0x3F43 DUP6 PUSH1 0x40 DUP4 KECCAK256 PUSH2 0x38C8 JUMP JUMPDEST POP SLOAD PUSH1 0x5 DUP10 ADD SLOAD SWAP1 PUSH1 0x1 PUSH1 0x1 PUSH1 0xA0 SHL SUB AND GAS CALL PUSH2 0x3F5E PUSH2 0x3BFD JUMP JUMPDEST POP PUSH2 0x3F22 JUMPI PUSH1 0x64 PUSH1 0x40 MLOAD PUSH3 0x461BCD PUSH1 0xE5 SHL DUP2 MSTORE PUSH1 0x20 PUSH1 0x4 DUP3 ADD MSTORE PUSH1 0x20 PUSH1 0x24 DUP3 ADD MSTORE PUSH32 0x4661696C656420746F20726566756E64206170706C69636174696F6E20666565 PUSH1 0x44 DUP3 ADD MSTORE REVERT JUMPDEST POP POP POP POP JUMP JUMPDEST POP POP POP JUMP JUMPDEST SWAP3 SWAP2 DUP2 EXTCODESIZE PUSH2 0x3FC0 JUMPI POP POP POP POP JUMP JUMPDEST PUSH1 0x40 MLOAD PUSH4 0xA85BD01 PUSH1 0xE1 SHL DUP2 MSTORE CALLER PUSH1 0x4 DUP3 ADD MSTORE PUSH1 0x1 PUSH1 0x1 PUSH1 0xA0 SHL SUB SWAP5 DUP6 AND PUSH1 0x24 DUP3 ADD MSTORE PUSH1 0x44 DUP2 ADD SWAP2 SWAP1 SWAP2 MSTORE PUSH1 0x80 PUSH1 0x64 DUP3 ADD MSTORE SWAP3 AND SWAP2 SWAP1 PUSH1 0x20 SWAP1 DUP3 SWAP1 DUP2 SWAP1 PUSH2 0x400B SWAP1 PUSH1 0x84 DUP4 ADD SWAP1 PUSH2 0x35E3 JUMP JUMPDEST SUB DUP2 PUSH0 DUP7 GAS CALL PUSH0 SWAP2 DUP2 PUSH2 0x407A JUMPI JUMPDEST POP PUSH2 0x4047 JUMPI POP PUSH2 0x4027 PUSH2 0x3BFD JUMP JUMPDEST DUP1 MLOAD SWAP1 DUP2 PUSH2 0x4042 JUMPI DUP3 PUSH4 0x32505749 PUSH1 0xE1 SHL PUSH0 MSTORE PUSH1 0x4 MSTORE PUSH1 0x24 PUSH0 REVERT JUMPDEST PUSH1 0x20 ADD REVERT JUMPDEST PUSH1 0x1 PUSH1 0x1 PUSH1 0xE0 SHL SUB NOT AND PUSH4 0x757A42FF PUSH1 0xE1 SHL ADD PUSH2 0x4068 JUMPI POP PUSH0 DUP1 DUP1 DUP1 PUSH2 0x3FA7 JUMP JUMPDEST PUSH4 0x32505749 PUSH1 0xE1 SHL PUSH0 MSTORE PUSH1 0x4 MSTORE PUSH1 0x24 PUSH0 REVERT JUMPDEST SWAP1 SWAP2 POP PUSH1 0x20 DUP2 RETURNDATASIZE PUSH1 0x20 GT PUSH2 0x40B7 JUMPI JUMPDEST DUP2 PUSH2 0x4096 PUSH1 0x20 SWAP4 DUP4 PUSH2 0x366A JUMP JUMPDEST DUP2 ADD SUB SLT PUSH2 0x313 JUMPI MLOAD PUSH1 0x1 PUSH1 0x1 PUSH1 0xE0 SHL SUB NOT DUP2 AND DUP2 SUB PUSH2 0x313 JUMPI SWAP1 PUSH0 PUSH2 0x4019 JUMP JUMPDEST RETURNDATASIZE SWAP2 POP PUSH2 0x4089 JUMP INVALID LOG2 PUSH5 0x6970667358 0x22 SLT KECCAK256 0xE4 LOG2 DUP7 0xE7 ISZERO 0xF 0xB2 LOG0 DUP16 0xCB 0xB9 COINBASE PUSH14 0x6B067EC801376DF3A54E94887E09 0xCA SIGNEXTEND 0xB7 0x1F 0x1E PUSH5 0x736F6C6343 STOP ADDMOD BYTE STOP CALLER "
		},
		"gasEstimates": {
			"creation": {
				"codeDepositCost": "3325800",
				"executionCost": "infinite",
				"totalCost": "infinite"
			},
			"external": {
				"": "1337",
				"agreeFulfillment(uint256)": "119589",
				"applications(uint256,uint256)": "infinite",
				"applyForContract(uint256,uint256,string)": "infinite",
				"approve(address,uint256)": "31168",
				"balanceOf(address)": "2965",
				"cancelContract(uint256,string)": "infinite",
				"contractCounter()": "2290",
				"contracts(uint256)": "infinite",
				"createContract(bool,uint256,string,uint256,uint32,string[],int32,int32,uint256,uint256,bool,string)": "infinite",
				"fulfillContract(uint256)": "infinite",
				"getApplicant(uint256,uint256)": "infinite",
				"getApplicantAgreement(uint256)": "2797",
				"getApplicationCount(uint256)": "3452",
				"getApplicationEndDate(uint256)": "2647",
				"getApplicationFee()": "infinite",
				"getApplicationStartDate(uint256)": "3263",
				"getApproved(uint256)": "4659",
				"getCancellationFee()": "infinite",
				"getCancellationReason(uint256)": "infinite",
				"getClauses(uint256)": "infinite",
				"getCommodity(uint256)": "infinite",
				"getContract(uint256)": "infinite",
				"getContractCount()": "2928",
				"getContractQuantity(uint256)": "3357",
				"getContractRate(uint256)": "3043",
				"getContractStatus(uint256)": "2551",
				"getCreatorAgreement(uint256)": "2923",
				"getDeliveryCoordinates(uint256)": "infinite",
				"getDeliveryDate(uint256)": "2801",
				"getIsCreatorFarmer(uint256)": "2703",
				"getLockInAmount(uint256)": "3153",
				"getPlatformFeePercent()": "infinite",
				"getQualityOfProduce(uint256)": "infinite",
				"getSelectedApplicant(uint256)": "3457",
				"getTokenId(uint256)": "2471",
				"getTotalAmount(uint256)": "5640",
				"isApprovedForAll(address,address)": "3619",
				"isContractOpen(uint256)": "4804",
				"isCreatorResponsibleForLogistics(uint256)": "3413",
				"mint(string,address)": "infinite",
				"name()": "infinite",
				"ownerOf(uint256)": "2914",
				"platformFeePercent()": "infinite",
				"safeTransferFrom(address,address,uint256)": "infinite",
				"safeTransferFrom(address,address,uint256,bytes)": "infinite",
				"selectApplicant(uint256,address)": "infinite",
				"setApprovalForAll(address,bool)": "27253",
				"supportsInterface(bytes4)": "391",
				"symbol()": "infinite",
				"tokenCounter()": "3236",
				"tokenURI(uint256)": "infinite",
				"transferFrom(address,address,uint256)": "106489"
			},
			"internal": {
				"freeFunds(uint256,address)": "infinite"
			}
		},
		"methodIdentifiers": {
			"agreeFulfillment(uint256)": "c6497da1",
			"applications(uint256,uint256)": "7a870b63",
			"applyForContract(uint256,uint256,string)": "0cc1679b",
			"approve(address,uint256)": "095ea7b3",
			"balanceOf(address)": "70a08231",
			"cancelContract(uint256,string)": "2e55b510",
			"contractCounter()": "067bd3b4",
			"contracts(uint256)": "474da79a",
			"createContract(bool,uint256,string,uint256,uint32,string[],int32,int32,uint256,uint256,bool,string)": "987d4b7c",
			"fulfillContract(uint256)": "c1511395",
			"getApplicant(uint256,uint256)": "cfa3f450",
			"getApplicantAgreement(uint256)": "51e4e174",
			"getApplicationCount(uint256)": "fadd2b69",
			"getApplicationEndDate(uint256)": "3bc4dbf1",
			"getApplicationFee()": "7a76e865",
			"getApplicationStartDate(uint256)": "ce7bf797",
			"getApproved(uint256)": "081812fc",
			"getCancellationFee()": "9c0401c6",
			"getCancellationReason(uint256)": "d6b2737b",
			"getClauses(uint256)": "8031e4ee",
			"getCommodity(uint256)": "2f63f34f",
			"getContract(uint256)": "6ebc8c86",
			"getContractCount()": "9399869d",
			"getContractQuantity(uint256)": "e250fc7b",
			"getContractRate(uint256)": "971d608f",
			"getContractStatus(uint256)": "17b18458",
			"getCreatorAgreement(uint256)": "7a77dc5d",
			"getDeliveryCoordinates(uint256)": "2766df9b",
			"getDeliveryDate(uint256)": "530ea55a",
			"getIsCreatorFarmer(uint256)": "3ee23f92",
			"getLockInAmount(uint256)": "b7c9bf34",
			"getPlatformFeePercent()": "4c9c3f85",
			"getQualityOfProduce(uint256)": "3cf13901",
			"getSelectedApplicant(uint256)": "f32f3ae6",
			"getTokenId(uint256)": "14ff5ea3",
			"getTotalAmount(uint256)": "f0e40662",
			"isApprovedForAll(address,address)": "e985e9c5",
			"isContractOpen(uint256)": "1ecb9938",
			"isCreatorResponsibleForLogistics(uint256)": "ed87620e",
			"mint(string,address)": "1c351a9d",
			"name()": "06fdde03",
			"ownerOf(uint256)": "6352211e",
			"platformFeePercent()": "8c639a85",
			"safeTransferFrom(address,address,uint256)": "42842e0e",
			"safeTransferFrom(address,address,uint256,bytes)": "b88d4fde",
			"selectApplicant(uint256,address)": "9e5d9c09",
			"setApprovalForAll(address,bool)": "a22cb465",
			"supportsInterface(bytes4)": "01ffc9a7",
			"symbol()": "95d89b41",
			"tokenCounter()": "d082e381",
			"tokenURI(uint256)": "c87b56dd",
			"transferFrom(address,address,uint256)": "23b872dd"
		}
	},
	"abi": [
		{
			"inputs": [],
			"stateMutability": "nonpayable",
			"type": "constructor"
		},
		{
			"inputs": [
				{
					"internalType": "address",
					"name": "sender",
					"type": "address"
				},
				{
					"internalType": "uint256",
					"name": "tokenId",
					"type": "uint256"
				},
				{
					"internalType": "address",
					"name": "owner",
					"type": "address"
				}
			],
			"name": "ERC721IncorrectOwner",
			"type": "error"
		},
		{
			"inputs": [
				{
					"internalType": "address",
					"name": "operator",
					"type": "address"
				},
				{
					"internalType": "uint256",
					"name": "tokenId",
					"type": "uint256"
				}
			],
			"name": "ERC721InsufficientApproval",
			"type": "error"
		},
		{
			"inputs": [
				{
					"internalType": "address",
					"name": "approver",
					"type": "address"
				}
			],
			"name": "ERC721InvalidApprover",
			"type": "error"
		},
		{
			"inputs": [
				{
					"internalType": "address",
					"name": "operator",
					"type": "address"
				}
			],
			"name": "ERC721InvalidOperator",
			"type": "error"
		},
		{
			"inputs": [
				{
					"internalType": "address",
					"name": "owner",
					"type": "address"
				}
			],
			"name": "ERC721InvalidOwner",
			"type": "error"
		},
		{
			"inputs": [
				{
					"internalType": "address",
					"name": "receiver",
					"type": "address"
				}
			],
			"name": "ERC721InvalidReceiver",
			"type": "error"
		},
		{
			"inputs": [
				{
					"internalType": "address",
					"name": "sender",
					"type": "address"
				}
			],
			"name": "ERC721InvalidSender",
			"type": "error"
		},
		{
			"inputs": [
				{
					"internalType": "uint256",
					"name": "tokenId",
					"type": "uint256"
				}
			],
			"name": "ERC721NonexistentToken",
			"type": "error"
		},
		{
			"anonymous": false,
			"inputs": [
				{
					"indexed": false,
					"internalType": "uint256",
					"name": "contractId",
					"type": "uint256"
				},
				{
					"indexed": true,
					"internalType": "address",
					"name": "creator",
					"type": "address"
				},
				{
					"indexed": true,
					"internalType": "address",
					"name": "applicant",
					"type": "address"
				},
				{
					"indexed": false,
					"internalType": "uint256",
					"name": "rate",
					"type": "uint256"
				},
				{
					"indexed": false,
					"internalType": "string",
					"name": "note",
					"type": "string"
				}
			],
			"name": "ApplicantSelected",
			"type": "event"
		},
		{
			"anonymous": false,
			"inputs": [
				{
					"indexed": false,
					"internalType": "uint256",
					"name": "contractId",
					"type": "uint256"
				},
				{
					"indexed": true,
					"internalType": "address",
					"name": "applicant",
					"type": "address"
				},
				{
					"indexed": false,
					"internalType": "uint256",
					"name": "proposedRate",
					"type": "uint256"
				},
				{
					"indexed": false,
					"internalType": "string",
					"name": "note",
					"type": "string"
				}
			],
			"name": "ApplicationSubmitted",
			"type": "event"
		},
		{
			"anonymous": false,
			"inputs": [
				{
					"indexed": true,
					"internalType": "address",
					"name": "owner",
					"type": "address"
				},
				{
					"indexed": true,
					"internalType": "address",
					"name": "approved",
					"type": "address"
				},
				{
					"indexed": true,
					"internalType": "uint256",
					"name": "tokenId",
					"type": "uint256"
				}
			],
			"name": "Approval",
			"type": "event"
		},
		{
			"anonymous": false,
			"inputs": [
				{
					"indexed": true,
					"internalType": "address",
					"name": "owner",
					"type": "address"
				},
				{
					"indexed": true,
					"internalType": "address",
					"name": "operator",
					"type": "address"
				},
				{
					"indexed": false,
					"internalType": "bool",
					"name": "approved",
					"type": "bool"
				}
			],
			"name": "ApprovalForAll",
			"type": "event"
		},
		{
			"anonymous": false,
			"inputs": [
				{
					"indexed": false,
					"internalType": "uint256",
					"name": "_fromTokenId",
					"type": "uint256"
				},
				{
					"indexed": false,
					"internalType": "uint256",
					"name": "_toTokenId",
					"type": "uint256"
				}
			],
			"name": "BatchMetadataUpdate",
			"type": "event"
		},
		{
			"anonymous": false,
			"inputs": [
				{
					"indexed": false,
					"internalType": "uint256",
					"name": "contractId",
					"type": "uint256"
				},
				{
					"indexed": true,
					"internalType": "address",
					"name": "creator",
					"type": "address"
				},
				{
					"indexed": true,
					"internalType": "address",
					"name": "applicant",
					"type": "address"
				}
			],
			"name": "ContractAgreed",
			"type": "event"
		},
		{
			"anonymous": false,
			"inputs": [
				{
					"indexed": false,
					"internalType": "uint256",
					"name": "contractId",
					"type": "uint256"
				},
				{
					"indexed": false,
					"internalType": "address",
					"name": "canceller",
					"type": "address"
				},
				{
					"indexed": false,
					"internalType": "string",
					"name": "reason",
					"type": "string"
				}
			],
			"name": "ContractCancelled",
			"type": "event"
		},
		{
			"anonymous": false,
			"inputs": [
				{
					"indexed": false,
					"internalType": "uint256",
					"name": "contractId",
					"type": "uint256"
				},
				{
					"indexed": true,
					"internalType": "address",
					"name": "creator",
					"type": "address"
				},
				{
					"indexed": true,
					"internalType": "address",
					"name": "applicant",
					"type": "address"
				},
				{
					"indexed": false,
					"internalType": "uint256",
					"name": "rate",
					"type": "uint256"
				},
				{
					"indexed": false,
					"internalType": "uint32",
					"name": "quantity",
					"type": "uint32"
				}
			],
			"name": "ContractCompleted",
			"type": "event"
		},
		{
			"anonymous": false,
			"inputs": [
				{
					"indexed": false,
					"internalType": "uint256",
					"name": "contractId",
					"type": "uint256"
				},
				{
					"indexed": false,
					"internalType": "address",
					"name": "creator",
					"type": "address"
				},
				{
					"indexed": false,
					"internalType": "bool",
					"name": "isCreatorFarmer",
					"type": "bool"
				},
				{
					"indexed": false,
					"internalType": "uint256",
					"name": "tokenId",
					"type": "uint256"
				},
				{
					"indexed": false,
					"internalType": "string",
					"name": "commodity",
					"type": "string"
				},
				{
					"indexed": false,
					"internalType": "uint256",
					"name": "rate",
					"type": "uint256"
				},
				{
					"indexed": false,
					"internalType": "uint32",
					"name": "quantity",
					"type": "uint32"
				},
				{
					"indexed": false,
					"internalType": "uint256",
					"name": "lockInAmount",
					"type": "uint256"
				},
				{
					"indexed": false,
					"internalType": "string[]",
					"name": "clauses",
					"type": "string[]"
				},
				{
					"indexed": false,
					"internalType": "uint256",
					"name": "deliveryDate",
					"type": "uint256"
				},
				{
					"indexed": false,
					"internalType": "int32",
					"name": "deliveryLatitude",
					"type": "int32"
				},
				{
					"indexed": false,
					"internalType": "int32",
					"name": "deliveryLongitude",
					"type": "int32"
				},
				{
					"indexed": false,
					"internalType": "uint256",
					"name": "startAt",
					"type": "uint256"
				},
				{
					"indexed": false,
					"internalType": "uint256",
					"name": "endAt",
					"type": "uint256"
				},
				{
					"indexed": false,
					"internalType": "bool",
					"name": "creatorResponsibleForLogistics",
					"type": "bool"
				},
				{
					"indexed": false,
					"internalType": "string",
					"name": "quality",
					"type": "string"
				}
			],
			"name": "ContractCreated",
			"type": "event"
		},
		{
			"anonymous": false,
			"inputs": [
				{
					"indexed": false,
					"internalType": "uint256",
					"name": "_tokenId",
					"type": "uint256"
				}
			],
			"name": "MetadataUpdate",
			"type": "event"
		},
		{
			"anonymous": false,
			"inputs": [
				{
					"indexed": true,
					"internalType": "address",
					"name": "minter",
					"type": "address"
				},
				{
					"indexed": false,
					"internalType": "uint256",
					"name": "nftID",
					"type": "uint256"
				},
				{
					"indexed": false,
					"internalType": "string",
					"name": "uri",
					"type": "string"
				}
			],
			"name": "Minted",
			"type": "event"
		},
		{
			"anonymous": false,
			"inputs": [
				{
					"indexed": true,
					"internalType": "address",
					"name": "from",
					"type": "address"
				},
				{
					"indexed": true,
					"internalType": "address",
					"name": "to",
					"type": "address"
				},
				{
					"indexed": true,
					"internalType": "uint256",
					"name": "tokenId",
					"type": "uint256"
				}
			],
			"name": "Transfer",
			"type": "event"
		},
		{
			"stateMutability": "payable",
			"type": "fallback"
		},
		{
			"inputs": [
				{
					"internalType": "uint256",
					"name": "contractId",
					"type": "uint256"
				}
			],
			"name": "agreeFulfillment",
			"outputs": [],
			"stateMutability": "payable",
			"type": "function"
		},
		{
			"inputs": [
				{
					"internalType": "uint256",
					"name": "",
					"type": "uint256"
				},
				{
					"internalType": "uint256",
					"name": "",
					"type": "uint256"
				}
			],
			"name": "applications",
			"outputs": [
				{
					"internalType": "address",
					"name": "applicant",
					"type": "address"
				},
				{
					"internalType": "uint256",
					"name": "proposedRate",
					"type": "uint256"
				},
				{
					"internalType": "string",
					"name": "note",
					"type": "string"
				}
			],
			"stateMutability": "view",
			"type": "function"
		},
		{
			"inputs": [
				{
					"internalType": "uint256",
					"name": "contractId",
					"type": "uint256"
				},
				{
					"internalType": "uint256",
					"name": "proposedRate",
					"type": "uint256"
				},
				{
					"internalType": "string",
					"name": "note",
					"type": "string"
				}
			],
			"name": "applyForContract",
			"outputs": [],
			"stateMutability": "payable",
			"type": "function"
		},
		{
			"inputs": [
				{
					"internalType": "address",
					"name": "to",
					"type": "address"
				},
				{
					"internalType": "uint256",
					"name": "tokenId",
					"type": "uint256"
				}
			],
			"name": "approve",
			"outputs": [],
			"stateMutability": "nonpayable",
			"type": "function"
		},
		{
			"inputs": [
				{
					"internalType": "address",
					"name": "owner",
					"type": "address"
				}
			],
			"name": "balanceOf",
			"outputs": [
				{
					"internalType": "uint256",
					"name": "",
					"type": "uint256"
				}
			],
			"stateMutability": "view",
			"type": "function"
		},
		{
			"inputs": [
				{
					"internalType": "uint256",
					"name": "contractId",
					"type": "uint256"
				},
				{
					"internalType": "string",
					"name": "reason",
					"type": "string"
				}
			],
			"name": "cancelContract",
			"outputs": [],
			"stateMutability": "payable",
			"type": "function"
		},
		{
			"inputs": [],
			"name": "contractCounter",
			"outputs": [
				{
					"internalType": "uint256",
					"name": "",
					"type": "uint256"
				}
			],
			"stateMutability": "view",
			"type": "function"
		},
		{
			"inputs": [
				{
					"internalType": "uint256",
					"name": "",
					"type": "uint256"
				}
			],
			"name": "contracts",
			"outputs": [
				{
					"internalType": "address",
					"name": "creator",
					"type": "address"
				},
				{
					"internalType": "bool",
					"name": "isCreatorFarmer",
					"type": "bool"
				},
				{
					"internalType": "uint256",
					"name": "tokenId",
					"type": "uint256"
				},
				{
					"internalType": "string",
					"name": "commodity",
					"type": "string"
				},
				{
					"internalType": "uint256",
					"name": "rate",
					"type": "uint256"
				},
				{
					"internalType": "uint32",
					"name": "quantity",
					"type": "uint32"
				},
				{
					"internalType": "uint256",
					"name": "lockInAmount",
					"type": "uint256"
				},
				{
					"internalType": "uint256",
					"name": "deliveryDate",
					"type": "uint256"
				},
				{
					"internalType": "enum ContractPlatform.Status",
					"name": "status",
					"type": "uint8"
				},
				{
					"internalType": "int32",
					"name": "deliveryLatitude",
					"type": "int32"
				},
				{
					"internalType": "int32",
					"name": "deliveryLongitude",
					"type": "int32"
				},
				{
					"internalType": "uint256",
					"name": "startAt",
					"type": "uint256"
				},
				{
					"internalType": "uint256",
					"name": "endAt",
					"type": "uint256"
				},
				{
					"internalType": "address",
					"name": "selectedApplicant",
					"type": "address"
				},
				{
					"internalType": "string",
					"name": "cancellationReason",
					"type": "string"
				},
				{
					"internalType": "bool",
					"name": "creatorAgreement",
					"type": "bool"
				},
				{
					"internalType": "bool",
					"name": "applicantAgreement",
					"type": "bool"
				},
				{
					"internalType": "bool",
					"name": "creatorResponsibleForLogistics",
					"type": "bool"
				},
				{
					"internalType": "string",
					"name": "quality",
					"type": "string"
				}
			],
			"stateMutability": "view",
			"type": "function"
		},
		{
			"inputs": [
				{
					"internalType": "bool",
					"name": "isCreatorFarmer",
					"type": "bool"
				},
				{
					"internalType": "uint256",
					"name": "tokenId",
					"type": "uint256"
				},
				{
					"internalType": "string",
					"name": "commodity",
					"type": "string"
				},
				{
					"internalType": "uint256",
					"name": "rate",
					"type": "uint256"
				},
				{
					"internalType": "uint32",
					"name": "quantity",
					"type": "uint32"
				},
				{
					"internalType": "string[]",
					"name": "clauses",
					"type": "string[]"
				},
				{
					"internalType": "int32",
					"name": "deliveryLatitude",
					"type": "int32"
				},
				{
					"internalType": "int32",
					"name": "deliveryLongitude",
					"type": "int32"
				},
				{
					"internalType": "uint256",
					"name": "contractOpenFor",
					"type": "uint256"
				},
				{
					"internalType": "uint256",
					"name": "deliveryDate",
					"type": "uint256"
				},
				{
					"internalType": "bool",
					"name": "creatorResponsibleForLogistics",
					"type": "bool"
				},
				{
					"internalType": "string",
					"name": "quality",
					"type": "string"
				}
			],
			"name": "createContract",
			"outputs": [
				{
					"internalType": "uint256",
					"name": "",
					"type": "uint256"
				}
			],
			"stateMutability": "payable",
			"type": "function"
		},
		{
			"inputs": [
				{
					"internalType": "uint256",
					"name": "contractId",
					"type": "uint256"
				}
			],
			"name": "fulfillContract",
			"outputs": [],
			"stateMutability": "nonpayable",
			"type": "function"
		},
		{
			"inputs": [
				{
					"internalType": "uint256",
					"name": "contractId",
					"type": "uint256"
				},
				{
					"internalType": "uint256",
					"name": "index",
					"type": "uint256"
				}
			],
			"name": "getApplicant",
			"outputs": [
				{
					"components": [
						{
							"internalType": "address",
							"name": "applicant",
							"type": "address"
						},
						{
							"internalType": "uint256",
							"name": "proposedRate",
							"type": "uint256"
						},
						{
							"internalType": "string",
							"name": "note",
							"type": "string"
						}
					],
					"internalType": "struct ContractPlatform.Application",
					"name": "",
					"type": "tuple"
				}
			],
			"stateMutability": "view",
			"type": "function"
		},
		{
			"inputs": [
				{
					"internalType": "uint256",
					"name": "contractId",
					"type": "uint256"
				}
			],
			"name": "getApplicantAgreement",
			"outputs": [
				{
					"internalType": "bool",
					"name": "",
					"type": "bool"
				}
			],
			"stateMutability": "view",
			"type": "function"
		},
		{
			"inputs": [
				{
					"internalType": "uint256",
					"name": "contractId",
					"type": "uint256"
				}
			],
			"name": "getApplicationCount",
			"outputs": [
				{
					"internalType": "uint256",
					"name": "",
					"type": "uint256"
				}
			],
			"stateMutability": "view",
			"type": "function"
		},
		{
			"inputs": [
				{
					"internalType": "uint256",
					"name": "contractId",
					"type": "uint256"
				}
			],
			"name": "getApplicationEndDate",
			"outputs": [
				{
					"internalType": "uint256",
					"name": "",
					"type": "uint256"
				}
			],
			"stateMutability": "view",
			"type": "function"
		},
		{
			"inputs": [],
			"name": "getApplicationFee",
			"outputs": [
				{
					"internalType": "uint256",
					"name": "",
					"type": "uint256"
				}
			],
			"stateMutability": "view",
			"type": "function"
		},
		{
			"inputs": [
				{
					"internalType": "uint256",
					"name": "contractId",
					"type": "uint256"
				}
			],
			"name": "getApplicationStartDate",
			"outputs": [
				{
					"internalType": "uint256",
					"name": "",
					"type": "uint256"
				}
			],
			"stateMutability": "view",
			"type": "function"
		},
		{
			"inputs": [
				{
					"internalType": "uint256",
					"name": "tokenId",
					"type": "uint256"
				}
			],
			"name": "getApproved",
			"outputs": [
				{
					"internalType": "address",
					"name": "",
					"type": "address"
				}
			],
			"stateMutability": "view",
			"type": "function"
		},
		{
			"inputs": [],
			"name": "getCancellationFee",
			"outputs": [
				{
					"internalType": "uint256",
					"name": "",
					"type": "uint256"
				}
			],
			"stateMutability": "view",
			"type": "function"
		},
		{
			"inputs": [
				{
					"internalType": "uint256",
					"name": "contractId",
					"type": "uint256"
				}
			],
			"name": "getCancellationReason",
			"outputs": [
				{
					"internalType": "string",
					"name": "",
					"type": "string"
				}
			],
			"stateMutability": "view",
			"type": "function"
		},
		{
			"inputs": [
				{
					"internalType": "uint256",
					"name": "contractId",
					"type": "uint256"
				}
			],
			"name": "getClauses",
			"outputs": [
				{
					"internalType": "string[]",
					"name": "",
					"type": "string[]"
				}
			],
			"stateMutability": "view",
			"type": "function"
		},
		{
			"inputs": [
				{
					"internalType": "uint256",
					"name": "contractId",
					"type": "uint256"
				}
			],
			"name": "getCommodity",
			"outputs": [
				{
					"internalType": "string",
					"name": "",
					"type": "string"
				}
			],
			"stateMutability": "view",
			"type": "function"
		},
		{
			"inputs": [
				{
					"internalType": "uint256",
					"name": "contractId",
					"type": "uint256"
				}
			],
			"name": "getContract",
			"outputs": [
				{
					"components": [
						{
							"internalType": "address",
							"name": "creator",
							"type": "address"
						},
						{
							"internalType": "bool",
							"name": "isCreatorFarmer",
							"type": "bool"
						},
						{
							"internalType": "uint256",
							"name": "tokenId",
							"type": "uint256"
						},
						{
							"internalType": "string",
							"name": "commodity",
							"type": "string"
						},
						{
							"internalType": "uint256",
							"name": "rate",
							"type": "uint256"
						},
						{
							"internalType": "uint32",
							"name": "quantity",
							"type": "uint32"
						},
						{
							"internalType": "uint256",
							"name": "lockInAmount",
							"type": "uint256"
						},
						{
							"internalType": "string[]",
							"name": "clauses",
							"type": "string[]"
						},
						{
							"internalType": "uint256",
							"name": "deliveryDate",
							"type": "uint256"
						},
						{
							"internalType": "enum ContractPlatform.Status",
							"name": "status",
							"type": "uint8"
						},
						{
							"internalType": "int32",
							"name": "deliveryLatitude",
							"type": "int32"
						},
						{
							"internalType": "int32",
							"name": "deliveryLongitude",
							"type": "int32"
						},
						{
							"internalType": "uint256",
							"name": "startAt",
							"type": "uint256"
						},
						{
							"internalType": "uint256",
							"name": "endAt",
							"type": "uint256"
						},
						{
							"internalType": "address",
							"name": "selectedApplicant",
							"type": "address"
						},
						{
							"internalType": "string",
							"name": "cancellationReason",
							"type": "string"
						},
						{
							"internalType": "bool",
							"name": "creatorAgreement",
							"type": "bool"
						},
						{
							"internalType": "bool",
							"name": "applicantAgreement",
							"type": "bool"
						},
						{
							"internalType": "bool",
							"name": "creatorResponsibleForLogistics",
							"type": "bool"
						},
						{
							"internalType": "string",
							"name": "quality",
							"type": "string"
						}
					],
					"internalType": "struct ContractPlatform.ContractDetails",
					"name": "",
					"type": "tuple"
				}
			],
			"stateMutability": "view",
			"type": "function"
		},
		{
			"inputs": [],
			"name": "getContractCount",
			"outputs": [
				{
					"internalType": "uint256",
					"name": "",
					"type": "uint256"
				}
			],
			"stateMutability": "view",
			"type": "function"
		},
		{
			"inputs": [
				{
					"internalType": "uint256",
					"name": "contractId",
					"type": "uint256"
				}
			],
			"name": "getContractQuantity",
			"outputs": [
				{
					"internalType": "uint32",
					"name": "",
					"type": "uint32"
				}
			],
			"stateMutability": "view",
			"type": "function"
		},
		{
			"inputs": [
				{
					"internalType": "uint256",
					"name": "contractId",
					"type": "uint256"
				}
			],
			"name": "getContractRate",
			"outputs": [
				{
					"internalType": "uint256",
					"name": "",
					"type": "uint256"
				}
			],
			"stateMutability": "view",
			"type": "function"
		},
		{
			"inputs": [
				{
					"internalType": "uint256",
					"name": "contractId",
					"type": "uint256"
				}
			],
			"name": "getContractStatus",
			"outputs": [
				{
					"internalType": "enum ContractPlatform.Status",
					"name": "",
					"type": "uint8"
				}
			],
			"stateMutability": "view",
			"type": "function"
		},
		{
			"inputs": [
				{
					"internalType": "uint256",
					"name": "contractId",
					"type": "uint256"
				}
			],
			"name": "getCreatorAgreement",
			"outputs": [
				{
					"internalType": "bool",
					"name": "",
					"type": "bool"
				}
			],
			"stateMutability": "view",
			"type": "function"
		},
		{
			"inputs": [
				{
					"internalType": "uint256",
					"name": "contractId",
					"type": "uint256"
				}
			],
			"name": "getDeliveryCoordinates",
			"outputs": [
				{
					"internalType": "int32[2]",
					"name": "",
					"type": "int32[2]"
				}
			],
			"stateMutability": "view",
			"type": "function"
		},
		{
			"inputs": [
				{
					"internalType": "uint256",
					"name": "contractId",
					"type": "uint256"
				}
			],
			"name": "getDeliveryDate",
			"outputs": [
				{
					"internalType": "uint256",
					"name": "",
					"type": "uint256"
				}
			],
			"stateMutability": "view",
			"type": "function"
		},
		{
			"inputs": [
				{
					"internalType": "uint256",
					"name": "contractId",
					"type": "uint256"
				}
			],
			"name": "getIsCreatorFarmer",
			"outputs": [
				{
					"internalType": "bool",
					"name": "",
					"type": "bool"
				}
			],
			"stateMutability": "view",
			"type": "function"
		},
		{
			"inputs": [
				{
					"internalType": "uint256",
					"name": "contractId",
					"type": "uint256"
				}
			],
			"name": "getLockInAmount",
			"outputs": [
				{
					"internalType": "uint256",
					"name": "",
					"type": "uint256"
				}
			],
			"stateMutability": "view",
			"type": "function"
		},
		{
			"inputs": [],
			"name": "getPlatformFeePercent",
			"outputs": [
				{
					"internalType": "uint256",
					"name": "",
					"type": "uint256"
				}
			],
			"stateMutability": "view",
			"type": "function"
		},
		{
			"inputs": [
				{
					"internalType": "uint256",
					"name": "contractId",
					"type": "uint256"
				}
			],
			"name": "getQualityOfProduce",
			"outputs": [
				{
					"internalType": "string",
					"name": "",
					"type": "string"
				}
			],
			"stateMutability": "view",
			"type": "function"
		},
		{
			"inputs": [
				{
					"internalType": "uint256",
					"name": "contractId",
					"type": "uint256"
				}
			],
			"name": "getSelectedApplicant",
			"outputs": [
				{
					"internalType": "address",
					"name": "",
					"type": "address"
				}
			],
			"stateMutability": "view",
			"type": "function"
		},
		{
			"inputs": [
				{
					"internalType": "uint256",
					"name": "contractId",
					"type": "uint256"
				}
			],
			"name": "getTokenId",
			"outputs": [
				{
					"internalType": "uint256",
					"name": "",
					"type": "uint256"
				}
			],
			"stateMutability": "view",
			"type": "function"
		},
		{
			"inputs": [
				{
					"internalType": "uint256",
					"name": "contractId",
					"type": "uint256"
				}
			],
			"name": "getTotalAmount",
			"outputs": [
				{
					"internalType": "uint256",
					"name": "",
					"type": "uint256"
				}
			],
			"stateMutability": "view",
			"type": "function"
		},
		{
			"inputs": [
				{
					"internalType": "address",
					"name": "owner",
					"type": "address"
				},
				{
					"internalType": "address",
					"name": "operator",
					"type": "address"
				}
			],
			"name": "isApprovedForAll",
			"outputs": [
				{
					"internalType": "bool",
					"name": "",
					"type": "bool"
				}
			],
			"stateMutability": "view",
			"type": "function"
		},
		{
			"inputs": [
				{
					"internalType": "uint256",
					"name": "id",
					"type": "uint256"
				}
			],
			"name": "isContractOpen",
			"outputs": [
				{
					"internalType": "bool",
					"name": "",
					"type": "bool"
				}
			],
			"stateMutability": "view",
			"type": "function"
		},
		{
			"inputs": [
				{
					"internalType": "uint256",
					"name": "contractId",
					"type": "uint256"
				}
			],
			"name": "isCreatorResponsibleForLogistics",
			"outputs": [
				{
					"internalType": "bool",
					"name": "",
					"type": "bool"
				}
			],
			"stateMutability": "view",
			"type": "function"
		},
		{
			"inputs": [
				{
					"internalType": "string",
					"name": "tokenURI",
					"type": "string"
				},
				{
					"internalType": "address",
					"name": "minterAddress",
					"type": "address"
				}
			],
			"name": "mint",
			"outputs": [
				{
					"internalType": "uint256",
					"name": "",
					"type": "uint256"
				}
			],
			"stateMutability": "nonpayable",
			"type": "function"
		},
		{
			"inputs": [],
			"name": "name",
			"outputs": [
				{
					"internalType": "string",
					"name": "",
					"type": "string"
				}
			],
			"stateMutability": "view",
			"type": "function"
		},
		{
			"inputs": [
				{
					"internalType": "uint256",
					"name": "tokenId",
					"type": "uint256"
				}
			],
			"name": "ownerOf",
			"outputs": [
				{
					"internalType": "address",
					"name": "",
					"type": "address"
				}
			],
			"stateMutability": "view",
			"type": "function"
		},
		{
			"inputs": [],
			"name": "platformFeePercent",
			"outputs": [
				{
					"internalType": "uint256",
					"name": "",
					"type": "uint256"
				}
			],
			"stateMutability": "view",
			"type": "function"
		},
		{
			"inputs": [
				{
					"internalType": "address",
					"name": "from",
					"type": "address"
				},
				{
					"internalType": "address",
					"name": "to",
					"type": "address"
				},
				{
					"internalType": "uint256",
					"name": "tokenId",
					"type": "uint256"
				}
			],
			"name": "safeTransferFrom",
			"outputs": [],
			"stateMutability": "nonpayable",
			"type": "function"
		},
		{
			"inputs": [
				{
					"internalType": "address",
					"name": "from",
					"type": "address"
				},
				{
					"internalType": "address",
					"name": "to",
					"type": "address"
				},
				{
					"internalType": "uint256",
					"name": "tokenId",
					"type": "uint256"
				},
				{
					"internalType": "bytes",
					"name": "data",
					"type": "bytes"
				}
			],
			"name": "safeTransferFrom",
			"outputs": [],
			"stateMutability": "nonpayable",
			"type": "function"
		},
		{
			"inputs": [
				{
					"internalType": "uint256",
					"name": "contractId",
					"type": "uint256"
				},
				{
					"internalType": "address",
					"name": "applicant",
					"type": "address"
				}
			],
			"name": "selectApplicant",
			"outputs": [],
			"stateMutability": "nonpayable",
			"type": "function"
		},
		{
			"inputs": [
				{
					"internalType": "address",
					"name": "operator",
					"type": "address"
				},
				{
					"internalType": "bool",
					"name": "approved",
					"type": "bool"
				}
			],
			"name": "setApprovalForAll",
			"outputs": [],
			"stateMutability": "nonpayable",
			"type": "function"
		},
		{
			"inputs": [
				{
					"internalType": "bytes4",
					"name": "interfaceId",
					"type": "bytes4"
				}
			],
			"name": "supportsInterface",
			"outputs": [
				{
					"internalType": "bool",
					"name": "",
					"type": "bool"
				}
			],
			"stateMutability": "view",
			"type": "function"
		},
		{
			"inputs": [],
			"name": "symbol",
			"outputs": [
				{
					"internalType": "string",
					"name": "",
					"type": "string"
				}
			],
			"stateMutability": "view",
			"type": "function"
		},
		{
			"inputs": [],
			"name": "tokenCounter",
			"outputs": [
				{
					"internalType": "uint256",
					"name": "",
					"type": "uint256"
				}
			],
			"stateMutability": "view",
			"type": "function"
		},
		{
			"inputs": [
				{
					"internalType": "uint256",
					"name": "tokenId",
					"type": "uint256"
				}
			],
			"name": "tokenURI",
			"outputs": [
				{
					"internalType": "string",
					"name": "",
					"type": "string"
				}
			],
			"stateMutability": "view",
			"type": "function"
		},
		{
			"inputs": [
				{
					"internalType": "address",
					"name": "from",
					"type": "address"
				},
				{
					"internalType": "address",
					"name": "to",
					"type": "address"
				},
				{
					"internalType": "uint256",
					"name": "tokenId",
					"type": "uint256"
				}
			],
			"name": "transferFrom",
			"outputs": [],
			"stateMutability": "nonpayable",
			"type": "function"
		},
		{
			"stateMutability": "payable",
			"type": "receive"
		}
	]
}